:020000040800F2
:1000000050970020E901000855210008C51D00088F
:100010005121000811090008052E00080000000009
:100020000000000000000000000000004501000882
:10003000D71A000800000000890100089125000877
:10004000030200080302000803020008030200087C
:10005000030200080302000803020008030200086C
:10006000030200080302000803020008030200085C
:10007000030200080302000803020008030200084C
:10008000030200080302000803020008030200083C
:10009000030200080302000803020008030200082C
:1000A000030200080302000803020008030200081C
:1000B000030200080302000803020008030200080C
:1000C00003020008030200080302000803020008FC
:1000D0000302000811260008212600083126000826
:1000E00003020008030200080302000803020008DC
:1000F00003020008030200080302000803020008CC
:1001000003020008030200080302000803020008BB
:1001100003020008030200080302000803020008AB
:10012000030200080302000803020008030200089B
:10013000DFF80CD000F06AFB004800478D61000832
:1001400050970020204B19680868B0E8F00F80F342
:100150000988BFF36F8F4FF0000080F311884EF0D5
:100160000D0E70470000000006480068006880F32C
:10017000088862B661B6BFF34F8FBFF36F8F00DFA1
:1001800000BF00BF08ED00E0EFF30980BFF36F8F01
:100190000D4B1A6820E9F00F106008B54FF0100001
:1001A00080F3118807F0DAF94FF0000080F311882E
:1001B000BDE8084019680868B0E8F00F80F30988C6
:1001C000BFF36F8F704700BF1C000020EFF311805A
:1001D0004FF0100181F31188704780F31188704748
:1001E000EFF3058070470000064880470648004747
:1001F000FEE7FEE7FEE7FEE7FEE7FEE7FEE7FEE7D7
:10020000FEE7FEE7B125000831010008A0F1610119
:10021000192900D82038704740EA01039B0703D012
:1002200009E008C9121F08C0042AFAD203E011F835
:10023000013B00F8013B521EF9D27047D2B201E0F7
:1002400000F8012B491EFBD270470022F6E710B5DB
:1002500013460A4604461946FFF7F0FF204610BD34
:10026000421C10F8011B0029FBD1801A704730B5E1
:1002700004460020034600E05B1C934203D2E05C8E
:10028000CD5C401BF8D030BD034611F8012B00F8BF
:10029000012B002AF9D11846704730B505460020D9
:1002A000034600E05B1C934205D2EC5CC85C201A5C
:1002B00001D1002CF6D130BD2DE9FE4F804681EAF8
:1002C0000300C00F0C46009021F0004123F00045D0
:1002D000B8EB0200A94105D24046214690461C4693
:1002E0000B46024623F00040104347D0270DC7F3CA
:1002F0000A00C3F30A510290401A019040286BDAB9
:10030000C3F3130040F4801B0098924620B10023F1
:10031000D2EB030A63EB0B0B01985946C0F1400284
:10032000504600F052F906460D4650465946019A8D
:1003300000F05AF910EB08006141002487EA1152DD
:1003400084EAE7731A4340D0009A62B3019A012A03
:100350004FEA075215DC001B61EB02014FF000422F
:1003600002EA0752CDE90042001C41F580113246F5
:100370002B4600F05AF903B0BDE8F08F4046214605
:10038000F9E7001B61EB0201001C41F58013001826
:100390005B412018A2F5001747EB030140EAD57036
:1003A000B6196D4111E06D084FEA360645EAC07591
:1003B0004FEA0752001B61EB0201001C41F580115E
:1003C00049084FEA30000019514132462B4603B02C
:1003D000BDE8F04F00F01AB9009801224000002358
:1003E000D0EB020263EBE073009821464FEAE07421
:1003F000B8EB000061EB0401E9E783F000435BE741
:1004000081F0004158E72DE9F04D81EA030404F042
:10041000004B21F0004514464FF0000A23F0004144
:1004200050EA050220D054EA01021DD0C5F30A5754
:100430000246C5F31303C1F31300C1F30A5640F497
:10044000801543F48013A7EB0608101BD64608F26C
:10045000FD3873EB050002D308F1010801E09218A2
:100460005B41B8F1000F03DA00200146BDE8F08DD2
:1004700000204FF48011064684460EE0171B73EBF4
:10048000050705D3121B63EB050306434CEA010C79
:1004900049084FEA300092185B4150EA0107EDD15C
:1004A00052EA030012D082EA040083EA05010843FD
:1004B00005D0101BAB4106D20122002306E000222A
:1004C0004FF0004302E06FF0010253101AEB0600F8
:1004D0004CEB085110EB0A0041EB0B01BDE8F04D6D
:1004E00000F094B80EB540F2334102910021CDE9FD
:1004F00000110A460B4600F098F803B000BDA0E8D2
:10050000004FF0C040F804DB01B5AFF30080BDE858
:10051000024001C10020704700F12C080C4658F839
:10052000040DAFF3008058F8040D8546200008BF85
:10053000012038E9F00018E9004F704730B50B464C
:10054000014600202022012409E021FA02F59D4203
:1005500005D303FA02F5491B04FA02F52844151ED7
:10056000A2F10102F1DC30BD2DE9F05F054600206B
:1005700092469B4688460646814640241BE0284614
:1005800041464746224600F053F953465A46C01AA0
:10059000914110D311461846224600F016F82D1A44
:1005A00067EB01084F4622460120002100F00DF8BC
:1005B00017EB00094E41201EA4F10104DFDC484680
:1005C00031462A464346BDE8F09F202A04DB203A04
:1005D00000FA02F1002070479140C2F1200320FA96
:1005E00003F3194390407047202A06DBCB17203ACB
:1005F00041FA02F043EAE07306E041FA02F3D04028
:10060000C2F12002914008431946704710B5141EEC
:1006100073F1000408DA401C41F1000192185B41BB
:100620001A4301D120F0010010BD2DE9F04D924692
:100630009B4611B1B1FA81F202E0B0FA80F22032A9
:100640009046FFF7C2FF04460F4640EA0A0041EA1F
:100650000B0153465A46084313D0114653EA010092
:1006600019D0C8F14002504600F0E2F805460E46A7
:10067000504659464246FFF7A8FF084305D00120DF
:1006800004E020463946BDE8F08D0020054346EAE7
:10069000E0762C4337430A986305E40AA0EB080090
:1006A0000022FD0A44EA47540A3002D500200146E0
:1006B000E9E7010510196941DDE9084500196941BB
:1006C000BDE8F04DA2E72DE9FE4F81EA030404F0F6
:1006D000004421F0004100944FF0000B23F0004350
:1006E00050EA01045ED052EA03045BD0C3F30A541B
:1006F000C1F30A552C44A4F2F3340194A0FB025434
:10070000C1F3130141F48011C3F3130343F48013C5
:1007100001FB024400FB034E840A970A44EA815419
:1007200047EA8357A4FB076802958D0A05FB0785F6
:100730004FEA932C04FB0C542705029D4FEA065800
:1007400047EA1637B5EB08056EEB070C870E920EDD
:1007500047EA811742EA8312A7FB0201B6EB0B01BD
:1007600064EB00042B0D43EA0C335E1844EB1C5081
:10077000DA465146E7FB0201C5F313044FEA0B3397
:1007800043EA14534FEA0432019C43EA0603A4F1FE
:100790000C040294009CCDE900B4FFF746FF03B0BF
:1007A000BDE8F08F00200146F9E7C1F30A52C1F31A
:1007B000130140F2FF3341F480119A4202DA002023
:1007C0000146704740F233439A42A2F2334202DCC0
:1007D000524200F02DB8FFF7F8BE000030B5041EFD
:1007E00071F1000404DB4FF00044404264EB01016E
:1007F000141E73F1000405DB1C464FF00043524207
:1008000063EB0403994208BF904230BD064C074D8C
:1008100006E0E06840F0010394E8070098471034D0
:10082000AC42F6D3FFF788FC68860008888600088B
:10083000202A04DB203A21FA02F00021704721FA35
:1008400002F3D040C2F1200291400843194670479C
:1008500070B58C1810F8015B15F0070301D110F882
:10086000013B2A1106D110F8012B03E010F8016BAF
:1008700001F8016B5B1EF9D12B0705D40023521E32
:100880000DD401F8013BFAE710F8013BCB1A921C9A
:1008900003E013F8015B01F8015B521EF9D5A14298
:1008A000D8D3002070BD00001FB500200D4A0123E1
:1008B000CDE901200093039003464FF400720AA192
:1008C0000D4807F01BFA00200C4A0123CDE9012056
:1008D0000093039003464FF4007209A10B4807F000
:1008E0000DFA1FBD00000020765461736B41544324
:1008F0006F6D6D616E640000A5710008040000203A
:100900007642545F5461736B000000000D6F000865
:1009100000BFFEE7F8B504460D4616460020034624
:10092000324629460090204600F002F8F8BD00004B
:100930002DE9F84F04460E4617469846DDF82890F4
:100940000025AA461548006810B94FF00A0A1EE0B3
:1009500014B94FF0150A1AE043463A46314620468C
:10096000CDF8009005F0CFFA054615B94FF0010A11
:100970000DE021460948006806F08CFA012801D1F3
:100980004FF0180A29460548006805F0D7FB504685
:1009900001F000F82846BDE8F88F0000E8030020C9
:1009A0002DE9F04107460C4615460026B0461A4888
:1009B000006810B94FF00A0827E017B94FF0140883
:1009C00023E014B94FF01F081FE015B94FF01E08BF
:1009D0001BE02946204605F0C7FA064616B94FF037
:1009E000010812E00C4800684068401C0A49096888
:1009F00048602146384606F061FA012801D14FF0DF
:100A000020083146384605F0AEFB404600F0C2FFF4
:100A10003046BDE8F0810000E803002010B500F08A
:100A2000B5F848B909480078012803D008A114A0F6
:100A300002F0EAF90A2406E003F01AF9041E02D1D2
:100A400003F092F90446204610BD00002C0300205C
:100A5000464154414C204552524F52202D2054655E
:100A60007374207265676973747279206973206E7C
:100A70006F7420696E697469616C697A65642E00AF
:100A80000A0A25730A000000014908707047000037
:100A90002C03002010B5002000F07CFF024800F07D
:100AA00032F800F003F810BDE803002010B5024949
:100AB000024805F073F910BDF80300207885002086
:100AC00070B504460D4601E0641C6D1C207850B1E1
:100AD000287840B12078FFF799FB06462878FFF781
:100AE00095FB8642F0D020782978401A70BD10B569
:100AF0000C2005F05DFB04461CB10020A0602060C6
:100B00006060204610BD10B50446206810B1206812
:100B100005F02FF9206805F0D5FA0020206010BDFF
:100B20002DE9F0470F480068012816D10E480068EB
:100B3000FFF7D8FC04460D4605F04CF98246FFF756
:100B4000D1FC064622462B46FFF757FC8046002282
:100B5000064BFFF758FCBDE8F0870549D1E91601BF
:100B6000F9E70000EC0300200404002000408F405F
:100B7000788500200148007870470000300300208D
:100B800001480078704700003103002001480068E8
:100B900070470000E803002030B5CFB0F7484E9012
:100BA000FFF7F4FF4D900C2044900520072800D358
:100BB00000E00720062801D8062004E005200728C9
:100BC00000D300E00720042801D804200DE0052010
:100BD000072800D300E00720062801D8062004E0FB
:100BE0000520072800D300E00720062801D80620AA
:100BF0001FE00520072800D300E00720062801D8C1
:100C0000062004E00520072800D300E00720042880
:100C100001D804200DE00520072800D300E00720BC
:100C2000062801D8062004E00520072800D300E0AC
:100C30000720401C45904D980068419000F0FEFD53
:100C400004464D984068419000F0F8FD05464E98E6
:100C5000C06C419000F0F2FD854205D34D9840688C
:100C6000419000F0EBFD04E04E98C06C419000F024
:100C7000E5FD844205D34D980068419000F0DEFD0B
:100C800017E04D984068419000F0D8FD04464E981A
:100C9000C06C419000F0D2FD844205D34D9840686D
:100CA000419000F0CBFD04E04E98C06C419000F004
:100CB000C5FD052801D805203DE04D98006841900C
:100CC00000F0BCFD04464D984068419000F0B6FD30
:100CD00005464E98C06C419000F0B0FD854205D3AA
:100CE0004D984068419000F0A9FD04E04E98C06C1A
:100CF000419000F0A3FD844205D34D9800684190D7
:100D000000F09CFD17E04D984068419000F096FD82
:100D100004464E98C06C419000F090FD844205D38B
:100D20004D984068419000F089FD04E04E98C06CF9
:100D3000419000F083FD062801D806207FE04D9801
:100D40000068419000F07AFD04464D98406841905B
:100D500000F074FD05464E98C06C419000F06EFDA9
:100D6000854205D34D984068419000F067FD04E04E
:100D70004E98C06C419000F061FD844205D34D98BF
:100D80000068419000F05AFD17E04D98406841908E
:100D900000F054FD04464E98C06C419000F04EFDAA
:100DA000844205D34D984068419000F047FD04E02F
:100DB0004E98C06C419000F041FD052801D80520F7
:100DC0003DE04D980068419000F038FD04464D9894
:100DD0004068419000F032FD05464E98C06C41904D
:100DE00000F02CFD854205D34D984068419000F0FD
:100DF00025FD04E04E98C06C419000F01FFD844238
:100E000005D34D980068419000F018FD17E04D980B
:100E10004068419000F012FD04464E98C06C41902D
:100E200000F00CFD844205D34D984068419000F0DD
:100E300005FD04E04E98C06C419000F0FFFC401CA2
:100E400046904E98406B419000F0F8FC04464E9856
:100E5000006C419000F0F2FC05464E98C06C419049
:100E600000F0ECFC854205D34E98006C419000F0F8
:100E7000E5FC04E04E98C06C419000F0DFFC844239
:100E800005D34E98406B419000F0D8FC17E04E9887
:100E9000006C419000F0D2FC04464E98C06C41902A
:100EA00000F0CCFC844205D34E98006C419000F0D9
:100EB000C5FC04E04E98C06C419000F0BFFC0328D4
:100EC00001D803203DE04E98406B419000F0B6FC05
:100ED00004464E98006C419000F0B0FC05464E98D8
:100EE000C06C419000F0AAFC854205D34E98006C7E
:100EF000419000F0A3FC04E04E98C06C419000F0DB
:100F00009DFC844205D34E98406B419000F096FCC6
:100F100017E04E98006C419000F090FC04464E980B
:100F2000C06C419000F08AFC844205D34E98006C5E
:100F3000419000F083FC04E04E98C06C419000F0BA
:100F40007DFC062801D8062081E04E98406B419038
:100F500000F074FC04464E98006C419000F06EFC6A
:100F600005464E98C06C419000F068FC854207D35E
:100F70004E98006C419000F061FC06E078850020FE
:100F80004E98C06C419000F059FC844205D34E98B5
:100F9000406B419000F052FC17E04E98006C41907D
:100FA00000F04CFC04464E98C06C419000F046FCAA
:100FB000844205D34E98006C419000F03FFC04E061
:100FC0004E98C06C419000F039FC032801D80320F2
:100FD0003DE04E98406B419000F030FC04464E9846
:100FE000006C419000F02AFC05464E98C06C419080
:100FF00000F024FC854205D34E98006C419000F02F
:101000001DFC04E04E98C06C419000F017FC844237
:1010100005D34E98406B419000F010FC17E04E98BD
:10102000006C419000F00AFC04464E98C06C419060
:1010300000F004FC844205D34E98006C419000F00F
:10104000FDFB04E04E98C06C419000F0F7FB401CA3
:1010500047904E98D0E91010081A419000F0EEFB2E
:1010600004464E98D0E91310081A419000F0E6FBB0
:10107000844207D34E98D0E91010081A419000F02E
:10108000DDFB06E04E98D0E91310081A419000F0FD
:10109000D5FB032801D803201FE04E98D0E910109B
:1010A000081A419000F0CAFB04464E98D0E913108C
:1010B000081A419000F0C2FB844207D34E98D0E951
:1010C0001010081A419000F0B9FB06E04E98D0E9E4
:1010D0001310081A419000F0B1FB062801D8062031
:1010E00043E04E98D0E91010081A419000F0A6FB9A
:1010F00004464E98D0E91310081A419000F09EFB68
:10110000844207D34E98D0E91010081A419000F09D
:1011100095FB06E04E98D0E91310081A419000F0B4
:101120008DFB032801D803201FE04E98D0E9101052
:10113000081A419000F082FB04464E98D0E9131043
:10114000081A419000F07AFB844207D34E98D0E908
:101150001010081A419000F071FB06E04E98D0E99B
:101160001310081A419000F069FB062801D80620E8
:101170008BE04E98D0E91010081A419000F05EFB09
:1011800004464E98D0E91310081A419000F056FB1F
:10119000844207D34E98D0E91010081A419000F00D
:1011A0004DFB06E04E98D0E91310081A419000F06C
:1011B00045FB032801D803201FE04E98D0E910100A
:1011C000081A419000F03AFB04464E98D0E91310FB
:1011D000081A419000F032FB844207D34E98D0E9C0
:1011E0001010081A419000F029FB06E04E98D0E953
:1011F0001310081A419000F021FB062801D80620A0
:1012000043E04E98D0E91010081A419000F016FB08
:1012100004464E98D0E91310081A419000F00EFBD6
:10122000844207D34E98D0E91010081A419000F07C
:1012300005FB06E04E98D0E91310081A419000F023
:10124000FDFA032801D803201FE04E98D0E91010C2
:10125000081A419000F0F2FA04464E98D0E91310B3
:10126000081A419000F0EAFA844207D34E98D0E978
:101270001010081A419000F0E1FA06E04E98D0E90B
:101280001310081A419000F0D9FA401C48904E986B
:10129000806B419000F0D2FA04464E98406C419029
:1012A00000F0CCFA05464E98006D419000F0C6FA69
:1012B000854205D34E98406C419000F0BFFA04E09F
:1012C0004E98006D419000F0B9FA844205D34E98D3
:1012D000806B419000F0B2FA17E04E98406C41905C
:1012E00000F0ACFA04464E98006D419000F0A6FA6A
:1012F000844205D34E98406C419000F09FFA04E080
:101300004E98006D419000F099FA062801D8062009
:101310003DE04E98806B419000F090FA04464E9864
:10132000406C419000F08AFA05464E98006D41905D
:1013300000F084FA854205D34E98406C419000F04D
:101340007DFA04E04E98006D419000F077FA8442F7
:1013500005D34E98806B419000F070FA17E04E98DC
:10136000406C419000F06AFA04464E98006D41903E
:1013700000F064FA844205D34E98406C419000F02E
:101380005DFA04E04E98006D419000F057FA06288F
:1013900001D806207FE04E98806B419000F04EFA15
:1013A00004464E98406C419000F048FA05464E982D
:1013B000006D419000F042FA854205D34E98406C92
:1013C000419000F03BFA04E04E98006D419000F02F
:1013D00035FA844205D34E98806B419000F02EFA86
:1013E00017E04E98406C419000F028FA04464E9861
:1013F000006D419000F022FA844205D34E98406C73
:10140000419000F01BFA04E04E98006D419000F00E
:1014100015FA062801D806203DE04E98806B4190D1
:1014200000F00CFA04464E98406C419000F006FA29
:1014300005464E98006D419000F000FA854205D3B4
:101440004E98406C419000F0F9F904E04E98006D20
:10145000419000F0F3F9844205D34E98806B41909F
:1014600000F0ECF917E04E98406C419000F0E6F97E
:1014700004464E98006D419000F0E0F9844205D397
:101480004E98406C419000F0D9F904E04E98006D00
:10149000419000F0D3F9401C49904E98C06B4190A8
:1014A00000F0CCF904464E98806C419000F0C6F9EB
:1014B000032805D34E98806C419000F0BFF900E0FE
:1014C0000320844205D34E98C06B419000F0B6F9DA
:1014D0000DE04E98806C419000F0B0F9032805D3E0
:1014E0004E98806C419000F0A9F900E00320082894
:1014F00001D8082029E04E98C06B419000F09EF979
:1015000004464E98806C419000F098F9032805D36A
:101510004E98806C419000F091F900E003208442E5
:1015200005D34E98C06B419000F088F90DE04E98BD
:10153000806C419000F082F9032805D34E98806CAE
:10154000419000F07BF900E00320062801D8062036
:1015500057E04E98C06B419000F070F904464E98E9
:10156000806C419000F06AF9032805D34E98806C96
:10157000419000F063F900E00320844205D34E98C7
:10158000C06B419000F05AF90DE04E98806C41908C
:1015900000F054F9032805D34E98806C419000F078
:1015A0004DF900E00320082801D8082029E04E98D2
:1015B000C06B419000F042F904464E98806C419017
:1015C00000F03CF9032805D34E98806C419000F060
:1015D00035F900E00320844205D34E98C06B41905A
:1015E00000F02CF90DE04E98806C419000F026F947
:1015F000032805D34E98806C419000F01FF900E05D
:101600000320401C4A900F204B9008204C90459995
:10161000449808444699084447990844489908441E
:10162000499908444A99084480000D304B99084470
:101630004C990844401C4390439804F0B9FD4290F3
:101640004298E8B3FFF76CFA419140904DA14C9855
:10165000CDE93C01419940984DA2CDE93A0150A312
:101660004A994B98CDE93513CDE937024E98006D74
:101670004E9A4999D2E913329A1A489BCDE93132F0
:10168000CDE933104E98C06C4E9A4799D26C469B68
:10169000CDE92D32CDE92F1042A244A344994598BB
:1016A000CDE92913CDE92B024E98806C4E9A4A99C8
:1016B000526C499BCDE92532CDE927104E9800E0C8
:1016C0005DE0D0E91010091A4E9A4898126C479BB9
:1016D000CDE92132CDE923014D98406834A3459AE4
:1016E0004699CDE91D23CDE91F1030A344994E98AA
:1016F000C06B4A9A1AAC0BC419924E98806B28A3FF
:10170000489A4999CDE91523CDE917104E98426BB7
:101710004D9947980968469BCDE91131CDE91302EF
:1017200025A222A344994598CDE90D13CDE90F02D6
:1017300023A226A349994A98CDE90913CDE90B02C2
:1017400024A226A348994798CDE90631089205902E
:1017500023A225A345994698CDE90113CDE90302BB
:1017600023A0009044980346254A3F90439942980D
:1017700001F05AFB00224398411E4298425442987D
:101780004FB030BD207365636F6E6473000000005E
:10179000456C61707365642074696D65203D20003F
:1017A0006E2F610061737365727473002000000016
:1017B0007465737473000000737569746573000059
:1017C000496E616374697665000000004661696C6A
:1017D00065640000506173736564000052616E00BF
:1017E000546F74616C000000547970650000000053
:1017F00052756E2053756D6D6172793A000000006C
:10180000F485000810B500210C46084600F0C2F827
:101810000948006808B1FFF73DF9FFF768F9064984
:1018200008600846006820B901210C46084600F00F
:10183000B1F8204610BD0000E803002010B58AB0C2
:101840000446234606A2212101A801F0EDFA00205A
:101850008DF8240001A8FEF703FD0AB010BD0000BA
:101860002564000070B50546FFF796F904463CB1C3
:10187000214605A001F0C8FA204604F023FC02E04E
:1018800002A001F0C1FA70BD25730000416E206511
:1018900072726F72206F636375727265642070720A
:1018A000696E74696E67207468652072756E207247
:1018B0006573756C74732E002DE9FF5FFFF766F991
:1018C00082460024A1462A492A4804F067FABAF160
:1018D000000F02D14FF00A0942E0012026490860BA
:1018E00004F078FA25490860DAF808400CE021494C
:1018F000204605F023F98346B9F1000F01D158467F
:1019000000E048468146246A34B1B9F1000FEED0B8
:10191000FFF736F90028EAD0002017490860174879
:101920000068FEF7DFFD0746884604F053FA019091
:10193000FEF7D8FD3A464346CDE90201FEF75DFDCC
:10194000054600220E4BFEF75EFD0A4AC2E916016B
:101950000C48006820B1064800680A4909688847B1
:10196000484600F017F8484604B0BDE8F09F000074
:10197000F803002078850020EC03002004040020F8
:1019800000408F40180400200149086070470000A3
:101990001804002070B504467CB10948007802287C
:1019A0000BD1204604F0B6FB05462A46214605A089
:1019B00001F02AFA204604F079FB0A48047070BD51
:1019C000310300200A41626F7274696E672064758A
:1019D0006520746F206572726F72202325643A202F
:1019E00025730A0030030020014908707047000089
:1019F0003103002070B50446044805680020FFF755
:101A0000C9FF02480460284670BD0000E8030020BA
:101A10000149086070470000200400200149086067
:101A2000704700001C040020014908607047000056
:101A30001004002001490860704700000C040020D9
:101A4000014609B909487047012901D10848FAE758
:101A5000022901D10748F6E7032901D10020F2E766
:101A6000042901D10020EEE70020ECE7B426002095
:101A7000DC2E00200437002008B525208DF800005A
:101A800001208DF8010000208DF8020001208DF862
:101A90000300684600F060FB26208DF8000001205E
:101AA0008DF8010000208DF8020001208DF8030060
:101AB000684600F051FB27208DF8000001208DF8CA
:101AC000010000208DF8020001208DF80300684617
:101AD00000F042FB08BD70472DE9F05F05460C465B
:101AE0004FF00009CA4600260027B046B3465948C1
:101AF000854211D0584885420ED0584885420BD0B7
:101B00005748854208D05748854205D056488542F7
:101B100002D05648854200D103E0B82154A001F01C
:101B200073FEE078A0B1E078042811D0E07828288E
:101B30000ED0E07848280BD0E078142808D0E07860
:101B4000102805D0E0781C2802D0E078182800D1B1
:101B500003E0B92146A001F057FE002010B920880B
:101B600000B103E0BA2142A001F04EFEE07800F09F
:101B70000F09E07800F0100080B1A078012805D0AE
:101B8000A078022802D0A078032800D103E0C12168
:101B900037A001F039FEA07840EA0909207838B36F
:101BA000D5F8008000261FE0012000FA06F7208803
:101BB00000EA070ABA4516D1B7000F2000FA07FB62
:101BC00028EA0B0809FA07F040EA0808E078282814
:101BD00003D10120B040686105E0E078482802D1D7
:101BE0000120B0402861761C082EDDD3C5F80080A6
:101BF0002088FF282BDDD5F80480002623E006F19D
:101C00000800012101FA00F7208800EA070ABA4516
:101C100018D1B7000F2000FA07FB28EA0B0809FAD1
:101C200007F040EA0808E078282803D106F1080008
:101C300081406961E078482804D106F1080001215B
:101C400081402961761C082ED9D3C5F80480BDE8EF
:101C5000F09F000000080140000C0140001001400E
:101C60000014014000180140001C01400020014008
:101C70002E2E5C2E2E5C4C69627261726965735CFB
:101C800053544D3332463130785F5374645065722B
:101C90006970685F4472697665725C7372635C73C5
:101CA000746D3332663130785F6770696F2E630010
:101CB00070B505460C4616462B48854211D02B4878
:101CC00085420ED02A4885420BD02A48854208D04A
:101CD0002948854205D02948854202D028488542B6
:101CE00000D104E040F2931126A001F08DFD012CFB
:101CF00025D0022C23D0042C21D0082C1FD0102C4E
:101D00001DD0202C1BD0402C19D0802C17D0B4F51E
:101D1000807F14D0B4F5007F11D0B4F5806F0ED061
:101D2000B4F5006F0BD0B4F5805F08D0B4F5005F58
:101D300005D0B4F5804F02D0B4F5004F00D104E0D7
:101D40004FF4CA710FA001F05FFD0EB1012E00D15A
:101D500004E040F295110BA001F056FD0EB12C618C
:101D600000E06C6170BD000000080140000C014003
:101D7000001001400014014000180140001C014007
:101D8000002001402E2E5C2E2E5C4C696272617226
:101D90006965735C53544D3332463130785F537408
:101DA000645065726970685F4472697665725C73CD
:101DB00072635C73746D3332663130785F6770695B
:101DC0006F2E630009A100200CE00A5C124B1A8000
:101DD00000BF114A121F128802F04002002AF8D0F8
:101DE000421CD0B22A28F0D300BFFEE70D0A456E90
:101DF00074657220486172644661756C745F4861F5
:101E00006E646C65722C2053797374656D20486123
:101E10006C742E0D0A0000000438014000B585B036
:101E20000121052000F08EFA0121880300F08AFAD2
:101E30004FF40070ADF8100018208DF81300032047
:101E40008DF8120004A95E48FFF746FE4FF480604B
:101E5000ADF8100004208DF8130004A95848FFF7CE
:101E60003BFE4FF4612000900020ADF80400ADF877
:101E70000600ADF80800ADF80C000C20ADF80A0023
:101E80006946504800F076FD012240F225514D4848
:101E900000F0E8FC01214B4800F018FC40214948C3
:101EA00000F0CEFB0121052000F04CFA012148048E
:101EB00000F000FA0620ADF8100018208DF813008D
:101EC00003208DF8120004A93D48FFF705FE092004
:101ED000ADF8100004208DF8130004A93848FFF76E
:101EE000FBFD04A93648FFF7F7FD4FF46120009091
:101EF0000020ADF80400ADF80600ADF808004FF47E
:101F00004070ADF80C000C20ADF80A0069462E4870
:101F100000F030FD012240F225512B4800F0A2FCD8
:101F20000121294800F0D2FB4021274800F088FB1E
:101F30000121092000F006FA0121880400F0BAF915
:101F40004FF48060ADF8100018208DF813000320C6
:101F50008DF8120004A91D48FFF7BEFD4FF4006084
:101F6000ADF8100004208DF8130004A91748FFF7FE
:101F7000B3FD04A91548FFF7AFFD4FF461200090B1
:101F80000020ADF80400ADF80600ADF80800ADF88B
:101F90000C000C20ADF80A0069460D4800F0EAFC80
:101FA000012240F225510A4800F05CFC012108485A
:101FB00000F08CFB4021064800F042FB05B000BD5C
:101FC000000801400038014000440040000C01407E
:101FD000004800400948806800F4005058B908489B
:101FE000006800F0010030B90648806800F4807095
:101FF00008B1012070470020FCE7000000100140FC
:1020000008080140002001400948806800F40050A1
:1020100058B10848006800F0010030B106488068F7
:1020200000F4807008B9012070470020FCE7000030
:102030000010014008080140002001400948806864
:1020400000F4005058B10848006800F0010030B1B9
:102050000648806800F4807008B1012070470020B5
:10206000FCE700000010014008080140002001408A
:102070000948806800F4005058B10848006800F032
:10208000010030B90648806800F4807008B901206A
:1020900070470020FCE700000010014008080140E4
:1020A000002001400448806800F4004008B9012085
:1020B00070470020FCE70000002001400448006851
:1020C00000F0080008B9012070470020FCE700007C
:1020D000081401400448806800F4804008B90120D9
:1020E00070470020FCE700000020014004488068A1
:1020F00000F4005008B9012070470020FCE7000000
:10210000002001400448806800F0800008B90120E8
:1021100070470020FCE7000000200140094880686B
:1021200000F4005058B90848006800F0010030B1D0
:102130000648806800F4807008B1012070470020D4
:10214000FCE70000001001400808014000200140A9
:1021500000BFFEE7704700002DE9F041044600256E
:1021600000270F26E07810B1E078012800D103E0C5
:102170007B2121A001F048FB6078102800DA03E001
:102180007C211DA001F040FBA078102800DA03E0BC
:102190007D2119A001F038FBE07800B324480068E5
:1021A00000F4E060C0F5E060050AC5F10407EE4008
:1021B000607800FA07F5A078304005432D011D48EE
:1021C00022788554207800F01F0101208840217872
:1021D0004911890001F1E021C1F8000109E02078EE
:1021E00000F01F010120884013492278521141F864
:1021F0002200BDE8F08100002E2E5C2E2E5C4C6982
:10220000627261726965735C53544D33324631308A
:10221000785F5374645065726970685F4472697660
:1022200065725C7372635C6D6973632E630000009A
:102230000CED00E000E400E080E100E010B50446B1
:10224000B4F5E06F0BD0B4F5C06F08D0B4F5A06F53
:1022500005D0B4F5806F02D0B4F5407F00D103E023
:10226000692104A001F0D0FA104820431049086009
:1022700010BD00002E2E5C2E2E5C4C6962726172C5
:102280006965735C53544D3332463130785F537413
:10229000645065726970685F4472697665725C73D8
:1022A00072635C6D6973632E630000000000FA05C1
:1022B0000CED00E070B504460D461048204008B90A
:1022C00004B104E040F26F410DA001F09DFA0DB1A0
:1022D000012D00D104E04FF48E6109A001F094FAC1
:1022E0002DB11748C06920431549C86104E014485E
:1022F000C069A0431249C86170BD00000036018169
:102300002E2E5C2E2E5C4C69627261726965735C64
:1023100053544D3332463130785F53746450657294
:102320006970685F4472697665725C7372635C732E
:10233000746D3332663130785F7263632E630000F0
:102340000010024070B504460D461048204008B900
:1023500004B104E04FF48A610DA001F055FA0DB10B
:10236000012D00D104E040F2514109A001F04CFAE6
:102370002DB11748806920431549886104E014484D
:102380008069A0431249886170BD00000200C0FF4F
:102390002E2E5C2E2E5C4C69627261726965735CD4
:1023A00053544D3332463130785F53746450657204
:1023B0006970685F4472697665725C7372635C739E
:1023C000746D3332663130785F7263632E63000060
:1023D0000010024030B500210022002400232D4DC2
:1023E0006D6805F00C0121B1042905D0082923D11D
:1023F00005E0294D056022E0274D05601FE0254DD1
:102400006D6805F47012234D6D6805F48034022563
:1024100005EB92421CB9214D554305600BE01D4D63
:102420006D6805F400351DB11C4D5543056002E093
:10243000194D5543056002E0174D056000BF00BF10
:10244000144D6D6805F0F0010909154D6B5C0568C8
:10245000DD4045600F4D6D6805F4E061090A104DDF
:102460006B5C4568DD4085600A4D6D6805F4605120
:10247000C90A0B4D6B5C4568DD40C560054D6D6854
:1024800005F44041890B074D6B5CC568B5FBF3F55E
:10249000056130BD0010024000127A0000093D00C5
:1024A000080000201800002010B500F001F810BD51
:1024B0000CB50020019000903348006840F4803053
:1024C0003149086000BF3048006800F400300090D7
:1024D0000198401C0190009818B90198B0F5A06FC0
:1024E000F1D12948006800F4003010B101200090BB
:1024F00001E0002000900098012843D123480068A3
:1025000040F01000214908600846006820F00300F0
:1025100008600846006840F0020008601A484068F9
:10252000194948600846406848600846406840F4D9
:10253000806048600846406820F47C104860084687
:10254000406840F4E81048600846006840F0807039
:10255000086000BF0C48006800F000700028F9D047
:102560000948406820F00300074948600846406871
:1025700040F00200486000BF0348406800F00C00D3
:102580000828F9D10CBD00000010024000200240D4
:1025900010B5FDF71BFE05F071FC18B14FF080502F
:1025A000024908600020FDF718FE10BD04ED00E0B0
:1025B00010B51348006840F0010011490860084652
:1025C0004068104908400E494860084600680E49B6
:1025D00008400B4908600846006820F48020086025
:1025E0000846406820F4FE0048604FF41F008860F1
:1025F000FFF75AFF4FF000600449086010BD00006B
:10260000001002400000FFF8FFFFF6FE08ED00E0BA
:1026100010B5024800F0F8FA10BD0000B426002002
:1026200010B5024800F0F0FA10BD0000DC2E0020CA
:1026300010B5024800F0E8FA10BD00000437002091
:1026400070B504460D461B4884420BD01A4884429C
:1026500008D01A48844205D01948844202D019484B
:10266000844200D104E04FF46971174801F0CCF8BE
:102670004FF69F40284008B905B104E040F2A5316B
:10268000114801F0C1F805F40070B0F5007F0ED1DB
:102690000848844205D00848844202D00748844252
:1026A00000D104E040F2A931074801F0ADF8E84359
:1026B000208070BD003801400044004000480040C8
:1026C000004C0040005000401C83000870B50446D8
:1026D0000D46154884420BD01448844208D0144853
:1026E000844205D01348844202D01348844200D16A
:1026F00004E04FF4B471114801F086F80DB1012DDA
:1027000000D104E040F269110C4801F07DF825B1D8
:10271000A08940F40050A08104E0A0894DF6FF712B
:102720000840A08170BD0000003801400044004016
:1027300000480040004C0040005000401C8300084E
:102740002DE9F04705460C4600270026B046B14665
:102750003E4885420BD03E48854208D03D488542E0
:1027600005D03D48854202D03C48854200D104E076
:102770004FF472713A4801F047F8282C27D040F204
:102780002770844223D040F2266084421FD040F25A
:10279000255084421BD040F22440844217D040F69A
:1027A0004600844213D040F66A1084420FD0B4F53C
:1027B000587F0CD040F22530844208D0B4F5587FC1
:1027C00005D0B4F5187F02D0B4F5B07F00D104E095
:1027D00040F2C931224801F017F840F66A108442ED
:1027E0000ED11A48854205D01948854202D01948B1
:1027F000854200D104E040F2CD31194801F004F8DF
:10280000C4F3421804F01F06012000FA06F6B8F1DE
:10281000010F02D1A889064007E0B8F1020F02D1EA
:10282000288A064001E0A88A06402712012000FA03
:1028300007F7288807401EB117B14FF0010901E0E2
:102840004FF000094846BDE8F0870000003801401D
:102850000044004000480040004C00400050004050
:102860001C8300082DE9F04705460C4617464FF03B
:102870000008C246C1460026384885420BD0384879
:10288000854208D03748854205D03748854202D076
:102890003648854200D104E040F28F11344800F000
:1028A000B3FF282C19D040F22770844215D040F293
:1028B0002660844211D040F2255084420DD040F26F
:1028C0002440844209D040F64600844205D040F6B8
:1028D0006A10844201D0602C00D104E04FF4C8712A
:1028E000234800F091FF0FB1012F00D104E040F226
:1028F00091111F4800F088FF40F66A1084420ED103
:102900001648854205D01648854202D015488542B2
:1029100000D104E040F29511154800F075FF2E46F5
:10292000C4F3421804F01F0A012000FA0AF9B8F1B2
:10293000010F01D10C3605E0B8F1020F01D11036BC
:1029400000E0143627B1306840EA0900306003E047
:10295000306820EA09003060BDE8F08700380140A7
:102960000044004000480040004C0040005000403F
:102970001C8300082DE9F04786B005460C4600266A
:10298000B24600BFB14600276B4885420BD06B486A
:10299000854208D06A48854205D06A48854202D0FF
:1029A0006948854200D103E0BE21684800F02CFF51
:1029B000206820B166492068884200D203E0BF2128
:1029C000624800F021FFA08818B1A088B0F5805FB0
:1029D00000D103E0C0215D4800F016FFE08858B147
:1029E000E088B0F5805F07D0E088B0F5005F03D0E5
:1029F000E088B0F5405F00D103E0C121534800F00A
:102A000003FF208938B12089B0F5806F03D0208979
:102A1000B0F5C06F00D103E0C2214C4800F0F4FED5
:102A200060894FF6F371084010B9608900B103E086
:102A3000C321464800F0E8FEA08958B1A089B0F54E
:102A4000807F07D0A089B0F5007F03D0A089B0F5C2
:102A5000407F00D103E0C4213C4800F0D5FEA089AE
:102A600068B13548854205D03448854202D03448A3
:102A7000854200D103E0C821344800F0C5FE2F464E
:102A80002E8A4CF6FF700640E08806432E82AE89FF
:102A90004EF6F3100640A088218908436189084357
:102AA0000643AE81AE8A4FF6FF400640A08906433A
:102AB000AE8201A8FFF78EFC1F48874202D1DDF8E5
:102AC00010A001E0DDF80CA0A88900F4004040B19E
:102AD0000AEBCA0000EB0A1021684900B0FBF1F8CC
:102AE00007E00AEBCA0000EB0A1021688900B0FB7E
:102AF000F1F86420B8FBF0F006013009642101FB15
:102B00001089A88900F4004040B1322000EBC900D0
:102B1000B0FBF1F000F00700064308E0322000EBC4
:102B200009106421B0FBF1F000F00F0006432E8184
:102B300006B0BDE8F08700000038014000440040C6
:102B400000480040004C0040005000401C8300083A
:102B500021AA440010B504460C4884420BD00C480E
:102B6000844208D00B48844205D00B48844202D0EE
:102B70000A48844200D104E040F26A21084800F08B
:102B800043FEA088C0F3080010BD000000380140DB
:102B90000044004000480040004C0040005000400D
:102BA0001C83000870B504460D46114884420BD0C2
:102BB0001048844208D01048844205D00F4884420F
:102BC00002D00F48844200D104E040F259210D4860
:102BD00000F01AFEB5F5007F00DA04E040F25A2159
:102BE000084800F011FEC5F30800A08070BD000089
:102BF000003801400044004000480040004C0040C4
:102C0000005000401C83000870B5044640F2255176
:102C10002068FFF795FDE0B12068FFF79BFFC5B284
:102C2000E18AA0684554E08A401C80B2E082E189D4
:102C3000884201DB0020E082608BE189884202DA71
:102C4000608B401C6083606A10B12846616A8847C7
:102C500000BF40F227712068FFF772FD08B3A08A19
:102C600060B9002240F227712068FFF7FBFD0122C6
:102C700040F226612068FFF7F5FD37E0638A62685D
:102C8000D15C2068FFF78EFF608A401C80B26082B2
:102C9000A189884201DB00206082A08A401EA082B8
:102CA00024E040F226612068FFF74AFDF0B1A08AD7
:102CB00050B9002240F226612068FFF7D3FD206A58
:102CC000A0B1206A804711E0638A6268D15C206805
:102CD000FFF768FF608A401C80B26082A189884249
:102CE00001DB00206082A08A401EA08270BDF8B582
:102CF00004460E46174600251DE008E0A08A009015
:102D0000A089BDF80010884200DD01E000BFF5E7B2
:102D100000BF705D228A61688854208A401C80B29E
:102D20002082A189884201DB00202082A08A401CE9
:102D3000A082681C85B2BD42DFDB012240F2277110
:102D40002068FFF78FFDF8BD204821490860214821
:102D50004860214888604FF480608881C8810020E5
:102D600008824882C882088348838882C8610862D2
:102D70001A4848621A481B4908601B4848601B48AB
:102D800088604FF480608881C88100200882488272
:102D9000C882088348838882C861086214484862F0
:102DA00014481549086015484860154888604FF474
:102DB00080608881C881002008824882C882088398
:102DC00048838882C86108624862704700380140C1
:102DD000B4260020DC260020DC2A002071390008FF
:102DE00000440040DC2E0020042F0020043300208B
:102DF0000143000800480040043700202C37002021
:102E00002C3B002000BFFEE70FB4054B10B503A913
:102E1000044A029800F0F2F810BC5DF814FB0000C0
:102E2000B1600008DC0400200FB41CB5024600208D
:102E300007AC00290BD0491ECDE90021054B6A469D
:102E40002146069800F0DAF8009A002111701CBCA7
:102E50005DF814FB2B37000802E008C8121F08C1F8
:102E6000002AFAD170477047002001E001C1121F0B
:102E7000002AFBD1704700002DE9FF5F82B00021DE
:102E8000DDE90430020DDDF840B0034318D044F60C
:102E90001050A2F2FF3242431514119801281FD09E
:102EA000A5EB0B00401C5FEA000A4FF000064E4FF6
:102EB000DFF83891B046504615D5CAF1000413E04A
:102EC000119801244AA3012801D16FEA0B0102984D
:102ED000119AC0E90031C0E9024206B0BDE8F09F96
:102EE000CBF10000DFE704460021404A491842EBDD
:102EF0000450CDE9001012E0E00707D032463B460F
:102F000040464946FDF7DFFB8046894632463B4650
:102F100010461946FDF7D7FB06460F466410002CF5
:102F2000EAD1DDE90401DDE90023BAF1000F06DA98
:102F3000FDF7C9FB42464B46FDF7C5FB05E0FDF733
:102F400062FA42464B46FDF75EFA04460E46002200
:102F5000284BFDF743FC03D84FF0FF30014607E054
:102F60000022254B20463146FDF7A6F9FDF71DFC52
:102F7000102409E0002C0ADB0A220023FDF7F4FAF2
:102F8000039B30321A55641E50EA0102F2D1641CD0
:102F9000039AC4F111031444119A012A03D00122A7
:102FA00008430DD10AE0084304D000204FF0110B74
:102FB000119072E7A3EB0B056D1E0DE05B4504DD80
:102FC0004FF0000205F1010504E003DA4FF00002C2
:102FD000A5F10105002AECD002981199C0E902314F
:102FE000C0E9004579E70000000014400000F03F10
:102FF000300000000000F0430000E03F2DE9FF4FEB
:1030000095B09B468946064600250FE2252877D1D4
:1030100000242746F84A0121059400E0044316F8ED
:10302000013F203B01FA03F01042F7D130782A2803
:1030300011D06FF02F033078A0F13002092A16D892
:10304000059A44F0020402EB820203EB42021044B0
:10305000761C0590EFE759F8042B0592002A03DA55
:10306000504244F40054059044F00204761C307839
:103070002E2816D116F8010F44F004042A280DD08A
:103080006FF02F023078A0F13003092B09D807EB3D
:10309000870302EB4303C718761CF3E759F8047B58
:1030A000761C30786C280FD006DC4C2817D06828A6
:1030B0000DD06A2814D104E0742810D07A280FD1DA
:1030C0000DE044F400140AE044F4801401E044F4F8
:1030D00040147278824202D104F58014761C761C6A
:1030E000307866280BD013DC582877D009DC00280C
:1030F00075D04528F6D04628F4D047281AD19DE14E
:1031000018E0632835D0642879D0652812D195E17C
:10311000702873D008DC6728F1D069286FD06E283A
:103120000DD06F2806D1B5E073282CD0752875D046
:10313000782874D05A46179990476D1C75E1C4F3EE
:103140000250022809D003280DD0D9F80010042815
:103150000DD00D6009F1040967E1D9F80010EA17F4
:10316000C1E90052F6E7D9F800100D80F2E70D70C2
:10317000F0E719F8041B8DF8001000208DF801000D
:10318000EA46012003E059F804AB4FF0FF30610735
:103190004FF0000102D40DE008F101018846B94268
:1031A0000FDA8045F8DB1AF808100029F4D108E09E
:1031B00008F1010188468142FADB1AF8081000295B
:1031C000F6D105985B46A0EB080721463846179ACA
:1031D00000F094FA284400EB080507E04DE029E1EF
:1031E0000DE01AF8010B5A4617999047B8F10108FB
:1031F000F7D25B4621463846179A13E142E00A228D
:103200000092C4F302524FF0000A022A08D059F883
:1032100004CB032A4FEAEC710AD00DE029E02AE042
:1032200009F1070121F00702F2E802C1914609E025
:103230000FFA8CFC4FEAEC71042A03D14FFA8CFC94
:103240004FEAEC71002907DA0A460021DCF1000C94
:1032500061EB02012D2202E0220504D52B228DF81C
:103260000420012203E0E20701D02022F7E7904684
:1032700059E00A2102E010220DE010214FF0000A6F
:1032800000910BE010224FF0000A44F004040827DC
:10329000009203E008224FF0000A0092C4F30252A9
:1032A000022A05D059F804CB0021032A08D009E0EE
:1032B00009F1070121F00702F2E802C1914605E099
:1032C0001FFA8CFC042A01D10CF0FF0C4FF000080F
:1032D000220728D5702806D0009B83F0100353EAFC
:1032E0000A0305D00EE040228DF80420012208E0F8
:1032F0005CEA010206D030228DF804208DF805002A
:1033000002229046009B83F0080353EA0A030AD185
:103310005CEA010201D1620705D530228DF8042054
:103320004FF001087F1E582804D034A003900EA847
:1033300002900DE036A0F9E753466046009AFDF78B
:1033400013F984460398825C0298401E0290027032
:103350005CEA0100F0D1029806A9081A00F1200ADF
:10336000600702D524F4803400E00127574502DDD0
:10337000A7EB0A0000E0002000EB0A01009005988E
:103380004144401A0590E00306D45B462146179A53
:10339000059800F0B3F90544002706E001A85A4655
:1033A000C05D179990476D1C7F1C4745F6DBE00315
:1033B0000CD55B462146179A059800F09FF9054405
:1033C00004E030205A46179990476D1C0099481E1A
:1033D00000900029F5DC08E0029802995A4600782E
:1033E000491C0291179990476D1CBAF10001AAF18E
:1033F000010AF1DC65E100000928010030313233B7
:103400003435363738396162636465660000000020
:10341000303132333435363738394142434445460A
:103420000000000000F058F90544761C30780028B0
:103430007FF4ECAD19B02846BDE8F08F620700D4E8
:10344000062709F1070222F0070CFCE80223E146F7
:1034500003F000485FEA080C02D00FF2702C0DE078
:103460005FEA045C02D50FF2682C07E05FEAC47CD7
:1034700002D00FF2602C01E0AFF2700C4FF0FF3879
:1034800023F00043CDF850C065280CD006DC452859
:1034900009D046281DD047283DD13DE0662818D0E8
:1034A00067287ED138E00021112F01DB112000E0D8
:1034B000781CCDE9000106A90EA8FFF7DDFCDDE9C7
:1034C0000F010E9A03910021009207F1010A049165
:1034D0004DE04FF000400097CDE9011006A90EA87D
:1034E000FFF7CAFCDDE90F0203920E9B119900223F
:1034F000DDF80CA00093049211B9791C00EB010ACD
:10350000B7EB0A0004D4C0F1FF3007F1010A0490C0
:10351000AAEB0700019044E0012F00DA0127002107
:10352000112F01DD112000E03846CDE9000106A988
:103530000EA8FFF7A1FCDDE90F010E9A039100210F
:1035400004910092BA4621070CD40399514500DA40
:103550008A46BAF1010F05DD009AAAF10101515C1A
:10356000302908D0B84202DA10F1040F06DA01213E
:10357000CDE9011015E0AAF10101E9E7002805DC19
:10358000049901440491AAEB000102E0411C514559
:1035900000DD8A460499401A401C01904FF000401B
:1035A0000290200704D40198504501DBCDF8048037
:1035B00000208DF84F0002980DF14F07B0F1004F39
:1035C00025D02B200E9002984FF0020800280CDA2C
:1035D000404202902D200E9007E00A210298FCF74D
:1035E000ADFF3031029007F8011DB8F10001A8F1DC
:1035F0000108F2DC02980028EFD1791E0E980870BD
:10360000307800F0200040F0450007F8020D12A8C5
:10361000C01B00F107081498007800B1012000EBEE
:103620000A01019801EBE07105984144401A401EDF
:103630000590E00306D45B462146179A059800F0F2
:103640005DF805441498007818B15A4617999047C8
:103650006D1CE00324D55B462146179A059800F0BF
:103660004DF805441CE00498002807DBDDE9030160
:10367000884203DD0098405C179901E017993020DB
:103680005A469047049805F10105401C04900198A2
:10369000401E019004D12E205A46179990476D1C68
:1036A000BAF10001AAF1010ADDDC05E017F8010B0F
:1036B0005A46179990476D1CB8F10001A8F101080E
:1036C000F4DC5B462146179A0598ABE62D00000016
:1036D0002B000000200000002DE9F04104460025E9
:1036E0001E461746880404D405E039462020B0471A
:1036F0006D1C641EF9D52846BDE8F0812DE9F04126
:10370000044600251E469046C80301D5302700E038
:103710002027880404D505E041463846B0476D1C93
:10372000641EF9D52846BDE8F0814A68002A06D013
:103730000A68531C0B6010704868401E4860704750
:103740002DE9F84F07460E4692469B46DDE90A8969
:1037500000240025202002F02BFD04460CB9BDE812
:10376000F88F0020A060E060B9F1000F11D048464A
:10377000FCF776FD401C009002F01AFDA060A068E6
:1037800018B9204602F09EFCE9E74946A068FCF71C
:103790007BFDB8F1000F16D04046FCF761FD401CE0
:1037A000009002F005FDE060E06840B9A06810B14B
:1037B000A06802F087FC204602F084FCCFE7414677
:1037C000E068FCF761FD84F800A0C4F804B00D982F
:1037D00020610C9860610020A061E0613D683DB10E
:1037E00000E0AD69A8690028FBD1AC61E56100E0AB
:1037F0003C6016B1706D401C70650248046000BFEB
:10380000ADE70000FC03002004460D4604E02A4614
:10381000214602A0FFF7F8FAF9E7000057726F6E31
:103820006720706172616D65746572732076616C7A
:1038300075653A2066696C65202573206F6E206C73
:10384000696E652025640D0A0000000030B59BB04C
:1038500005460C46682101A8FCF7F7FC04B10DB938
:103860001BB030BD224611A12846FCF716FD30B929
:1038700001F072FF10A101A8FCF706FD10E022463E
:103880000EA12846FCF709FD30B901F049FF0AA155
:1038900001A8FCF7F9FC03E00BA101A8FCF7F4FC7C
:1038A00001A800F00FF900BFDAE70000504F5745BC
:1038B000525F4F4E000000004F4B0000504F5745E5
:1038C000525F4F46460000004572726F722C2055C1
:1038D0006E6B6E6F776E20415420636F6D6D616EFD
:1038E0006400000008B513A0FFF78EFA002205213E
:1038F0000A2003F0E7FE174908600846006810B97F
:103900004FF0FF3008BD1448006880B91348002309
:103910001A464FF6FF71009011A004F05DFC0E49AD
:1039200008600846006810B94FF0FF30EAE7002051
:10393000E8E700005B41545F434F4D4D414E445D0D
:103940002061745F636F6D6D616E645F696E697431
:103950000D0A00002C04002030040020ED3A00087D
:1039600041545F434D445F54696D6572000000002F
:1039700038B5044600254E48007807287DD2DFE898
:1039800000F00416212C4E596400412C0ED1642005
:1039900000F0F6F8054601204649087046480078D0
:1039A000401C454908700120414908707DE0542CB5
:1039B00007D141480078401C3F49087002203C492B
:1039C000087072E02B2C07D13B480078401C3A4924
:1039D000087003203649087067E037480078401CBB
:1039E000354908703D2C0DD104203149087032480A
:1039F0000078401E314988702F480078C870012037
:103A000008700BE00D2C09D10620294908702A48BE
:103A10000078401E294988700020087045E026483B
:103A20000078401C244908700D2C02D10620204942
:103A300008703AE00D2C07D11F480078401C1E4941
:103A4000087006201A4908702FE00A2C2BD11A485A
:103A50000078401C184908700846007817494870DB
:103A600008460078012807D10846C078124909782D
:103A7000081A801E1149087100E015E000F0C4F832
:103A800000236A460D490E48006803F0D8FF002065
:103A90000749087008490870084800210160017151
:103AA00002200449087000E000BF00BF38BD0000DC
:103AB00029040020280400203904002034040020B8
:103AC0002C04002010B5044604B910BD214602A004
:103AD000FFF79AF900BFF8E75B41545F434F4D4D44
:103AE000414E445D2025730D0A00000010B50446C8
:103AF000002C1ED00F48006884421AD10E4800786E
:103B000001280FD100200D4908700D4908700D489B
:103B1000002101600171002002F065F90AA0FFF7A1
:103B200073F906E004480078032802D10CA0FFF7DF
:103B30006BF910BD30040020280400202904002067
:103B400039040020340400205B41545F434F4D4D45
:103B5000414E445D206572726F720D0A00000000D4
:103B60005B41545F434F4D4D414E445D2065786548
:103B7000637574652074696D656F75740D0A000056
:103B8000F8B50446254601F099FCE0B10020034653
:103B90002A46092100901B48006804F06BFB10B90D
:103BA0004FF0FF30F8BD04F05FF9064600200346F1
:103BB0003246072100901348006804F05BFBF8B917
:103BC0004FF0FF30EEE7002003462A460421009024
:103BD0000C48006804F04EFB10B94FF0FF30E1E7ED
:103BE00004F03CF9064600200346324602210090CC
:103BF0000448006804F03EFB10B94FF0FF30D1E7F5
:103C00000020CFE73004002008B501F057FC60B178
:103C1000002003460246082100900B48006804F08B
:103C200029FB78B94FF0FF3008BD0020034602465B
:103C3000032100900448006804F01CFB10B94FF009
:103C4000FF30F1E70020EFE73004002010B5044614
:103C500004A0FFF7D9F80448FDF704FE03A0FFF71E
:103C6000D3F810BD0A0A0000DC0400200A0000009E
:103C700010B500234FF48062194614484FF0FF300E
:103C800000234FF48062194611484FF0FF300020A6
:103C9000FDF780FE0F480078012804D00EA216A17F
:103CA00022A0FFF7B1F82B48FDF7C4FE2A48FDF724
:103CB000BBFE2A48FDF768FE2948FDF7AFFE2948FC
:103CC000FDF7A6FEFCF756FF10BD0000DC04002047
:103CD000E00400202C030020687474703A2F2F63D6
:103CE000756E69742E736F75726365666F72676542
:103CF0002E6E65742F00000043556E6974202D20D0
:103D00004120756E69742074657374696E672066EE
:103D100072616D65776F726B20666F722043202D24
:103D20002056657273696F6E200000000A0A202019
:103D300020202025734056455253494F4E402D4078
:103D400052454C45415345400A20202020202573F0
:103D50000A0A0000F93E00082D3E00084D3C00080C
:103D6000DD3D0008953D000870B5044600250020A3
:103D7000074908601CB12046FDF73CFE0546FDF7EB
:103D80009BFD064614B12846FDF734FE304670BD53
:103D90002803002010B5044604480078012803D009
:103DA00003A02168FFF730F810BD00002C030020AD
:103DB0000A5741524E494E47202D2053756974656C
:103DC00020636C65616E7570206661696C65642046
:103DD000666F7220272573272E00000010B5044659
:103DE00004480078012803D003A02168FFF70CF8ED
:103DF00010BD00002C0300200A5741524E494E4787
:103E0000202D20537569746520696E697469616C31
:103E1000697A6174696F6E206661696C6564206699
:103E20006F7220272573272E000000002DE9F8432C
:103E30000746884615462C463CB91B4800780228A0
:103E400030D11AA0FEF7E0FF2CE01748007828B127
:103E500002280AD117A0FEF7D7FF07E03A6817A09B
:103E6000D8F80010FEF7D0FF00E000BF00BF0E48FA
:103E70000078012816D0012612E0E06808B1E06859
:103E800000E016A00090D4E9013008B1A06800E07D
:103E900012A00246314612A0FEF7B6FFA469761CB6
:103EA000002CEAD1BDE8F8832C0300207061737305
:103EB000656400004641494C454400000A53756959
:103EC00074652025732C2054657374202573206835
:103ED0006164206661696C757265733A0000000068
:103EE0000A2020202025642E2025733A25752020C5
:103EF0002D2025730000000070B505460C460F48C4
:103F00000078022818D10E48006818B10C480068E3
:103F1000A0420CD00BA10DA02268FEF775FF0DA1E9
:103F20000EA02A68FEF770FF0548046004E009A1AE
:103F30000AA02A68FEF768FF70BD00002C0300206D
:103F40002803002053756974650000000A25733A40
:103F50002025730054657374000000000A2020259A
:103F6000733A202573202E2E2E00000010B54FF43A
:103F70004070FEF763F900F0FFF800F0C5F800F0BC
:103F800001F810BD10B500F055F800F001F810BDB3
:103F900008B501214FF49A70FEF7D4F903208DF88B
:103FA000020004208DF80300C002ADF8000069464D
:103FB0001C48FDF791FD0120ADF8000069461A4844
:103FC000FDF78AFD4FF48070ADF800006946174890
:103FD000FDF782FD4FF40040ADF80000694613483C
:103FE000FDF77AFD0820ADF8000069461048FDF79E
:103FF00073FD4FF48040ADF8000069460B48FDF7B3
:104000006BFD4FF40050ADF8000069460748FDF71E
:1040100063FD8020ADF8000069460448FDF75CFDB3
:1040200008BD0000001001400008014000200140D0
:10403000001401400021284A9172D17211730020AE
:1040400018E06421254A02EB001211810221234A63
:1040500002EB001211710021204A02EB0012917252
:104060001E4A02EB0012D1721C4A02EB00121173BD
:10407000411CC8B20A28E4DB642218490A870522D9
:1040800081F83B206422A1F84820052281F84B20CA
:104090006422A1F85820052281F85B206422A1F84F
:1040A0006820052281F86B200D490C4A11600D49EA
:1040B00011610D4911620D4911630D4911640D49DA
:1040C00011650D4911660D4911670D49C2F880103F
:1040D0000C49C2F890107047A42600200426002046
:1040E000D51F00083D20000871200008A520000809
:1040F000BD200008D5200008ED200008052100089B
:104100001D2100080920000808B501218020FEF7C4
:1041100019F9012000F038F8022000F035F80320EA
:1041200000F032F8042000F02FF803208DF8020090
:1041300010208DF80300C001ADF8000069460D485D
:10414000FDF7CAFC8020ADF8000069460948FDF77C
:10415000C3FC4FF48070ADF8000069460548FDF7D8
:10416000BBFC4FF40070ADF8000069460148FDF754
:10417000B3FC08BD001C014010B5FEF7E5FDFDF7DE
:104180004DFEFDF779FC10BD411EC8B220B94FF4B9
:1041900000610B4A116011E0012803D18021084A17
:1041A00011600BE0022803D1C101054A116005E04E
:1041B000032803D14FF40071014A116070470000D9
:1041C000101C01402DE9F04105460E46174600241B
:1041D000E90E012000FA01F82DBB00BF1FE004EB3F
:1041E0004400134911F82000C0B104EB440001EB76
:1041F0008000806890B104EB440001EB80004068CF
:1042000000EA080050B104EB440001EB80003A469C
:104210003146836828469847064602E0641C1F2CF6
:10422000DDD300BF00E000BF00BFBDE8F0810000AB
:10423000D885002070B50C46002100220722551CAD
:104240000E46491C855509260D46491C46554318FE
:1042500008A52E681E60AE889E80AD799D71C91D2F
:1042600001220D46491C425503260D46491C465560
:1042700070BD000042542D44656D6F0008B50121EA
:104280000420FEF75FF88020ADF8000010208DF8C4
:10429000030001208DF8020069460848FDF71CFC68
:1042A000002280210548FDF703FDC82003F000F837
:1042B000012280210148FDF7FBFC08BD00080140F8
:1042C00010B50648007838B9FFF7D8FF0120034938
:1042D000087003A0FEF798FD10BD00009C000020B0
:1042E0005B42545F4452495645525D2062745F649C
:1042F000726976657220696E69740D0A00000000AB
:1043000070B50446002545480088062807D2434872
:1043100001880088401C414A10804148445441486B
:10432000007830B101280CD0022824D0032871D1A4
:1043300048E0022C01D0042C02D101203949087038
:1043400069E0394800680078022807D133480088BE
:10435000052803D30220334908700BE03248006877
:104360000078042806D12D480088032802D30220B3
:104370002C4908704FE02D480088401C2B490880CC
:1043800029480068007802280AD127480068B0F858
:1043900003000988884203DC03202249087010E0EA
:1043A00021480068007804280AD11F4800688078F6
:1043B0001E490988884203DC03201A49087000E07E
:1043C00029E000BF184800680078022806D1164886
:1043D0000068B0F80300401D85B208E0124800688C
:1043E0000078042803D1104800688078C51C00229A
:1043F0002946012001F0FEF906220021084800F0BC
:10440000CFFF002007490870044908800749088049
:1044100001E0FFE700BF00BF70BD0000A400002066
:104420009E0000209D000020A8000020AC0000207D
:1044300070B5044600250026211D012000F024FE51
:10444000051D05B103E06E210BA0FFF7DDF9224643
:104450002946012001F0D5FC0646A64200D103E022
:10446000712105A0FFF7D0F9291F02220E4800682C
:10447000183000F0A5FD70BD2E2E5C2E2E5C4D690F
:1044800064646C65776172655C626C75655F616EB2
:1044900067656C5C6472697665725C62745F647295
:1044A000697665722E6300008C00002070B50446AA
:1044B0000D462A462146012001F006FD211F00205D
:1044C00000F0A2FE70BD000070B504460025002675
:1044D000012C00DA03E0AD2115A0FFF795F904EBFC
:1044E0004400204901EB8000806808B9002070BDBD
:1044F00002F07EFD04EB44011A4A02EB810101F156
:104500000800012100F024FD05462E1F306820F030
:10451000404040F080403060134830F814200021C3
:10452000284600F03DFF02F085FD2846DFE7000049
:104530002E2E5C2E2E5C4D6964646C65776172650D
:104540005C626C75655F616E67656C5C7372635C01
:10455000636F6D6D6F6E5C62745F6D656D6F7279A8
:104560002E63000040840020128300082DE9F843E8
:1045700004460E46314800904FF00008012C00DA46
:1045800003E0C1212EA0FFF73FF904EB44003949B5
:1045900051F82000B04207D804EB440001EB800042
:1045A0004068B04200D303E0C22125A0FFF72CF9F8
:1045B000351F286820F040402844071D0121286845
:1045C000B1EB907F01D100BF03E0C5211CA0FFF734
:1045D0001BF904226946384600F03DFD00B903E0AE
:1045E000C62117A0FFF710F9286820F04040286086
:1045F00002F0FEFC04EB44011E4A02EB810101F1D2
:10460000080032461C4900F00FFD8046B8F1000F4B
:104610000BD104EB4401174A02EB810101F10800C0
:104620000222314600F0CCFC03E0CE2104A0FFF7CB
:10463000EBF802F0FFFCBDE8F8830000CDABCDAB9A
:104640002E2E5C2E2E5C4D6964646C6577617265FC
:104650005C626C75655F616E67656C5C7372635CF0
:10466000636F6D6D6F6E5C62745F6D656D6F727997
:104670002E63000040840020414F00082DE9F047E0
:1046800004460D461646244830F814000830B6FBA0
:10469000F0F90027B846BA461DB116B1012C00DA70
:1046A00003E098211DA0FFF7AFF802F0A1FC04EB96
:1046B0004400274941F82050A81904EB4401244A3A
:1046C00002EB81014860002720E0134830F8140015
:1046D000083007FB0058104830F81400C8F80000F4
:1046E0000D4830F81400404400F1040A1948CAF893
:1046F000000004EB4401164A02EB810101F10800BD
:10470000022208F1040100F05BFC7F1C4F45DCD362
:1047100002F090FCBDE8F087128300082E2E5C2E7C
:104720002E5C4D6964646C65776172655C626C7562
:10473000655F616E67656C5C7372635C636F6D6D02
:104740006F6E5C62745F6D656D6F72792E630000D1
:1047500040840020CDABCDAB2DE9F04104460D46A1
:1047600000270CB105B103E018210AA0FFF74CF8AF
:10477000206810B90120BDE8F0812E462768062286
:104780003146381D00F067FC08B90120F3E700202E
:10479000F1E700002E2E5C2E2E5C4D6964646C6582
:1047A000776172655C626C75655F616E67656C5C94
:1047B0007372635C636F72655C6761705C62745F87
:1047C0006761705F636F6E6E656374696F6E2E6391
:1047D000000000002DE9F04186B005460E469046E7
:1047E0001C46022700200490059002900390002DA3
:1047F0000BD031461BA0FEF707FB372124A0FFF7A3
:1048000003F8384606B0BDE8F0813148304420B3A3
:10481000012823D1E06801281ED1E01C00F082F8B5
:10482000D0B90622E11C02A800F023FC01208DF87B
:104830000E0040F20940ADF8100007208DF812007C
:1048400002A8059000204FF47A7302460090DDE93B
:10485000040100F0A7F9074601E000E000BF00BF37
:104860003846CFE75B42545F4741505D5B434F4E54
:104870004E5D2074696D656F75742C2074696D656B
:10488000725F6964203D20307825780D0A000000B1
:104890002E2E5C2E2E5C4D6964646C6577617265AA
:1048A0005C626C75655F616E67656C5C7372635C9E
:1048B000636F72655C6761705C62745F6761705F93
:1048C000636F6E6E656374696F6E2E630000000027
:1048D000FDFFFEDF2DE9F04105460E4600240227CC
:1048E00000BF16E00E4850F83400A84210D10C4822
:1048F00000EBC400406858B1094800EBC4003346DF
:1049000000222946D0F804C01046E047074602E0DE
:10491000641C022CE6D300BF3846BDE8F0810000DD
:104920001803002031B5002500246A4604490548D3
:1049300000F07AFB044604B12568284638BD000023
:10494000594700087C84002010B5002418480078DE
:104950001B2801D1002010BD154801780078401CAB
:10496000134A107001EB4100124901EB8004A0884A
:10497000A0F6134010B13F2816D108E00E48006899
:10498000FBF76EFCA0710C480168A1600DE00120EE
:104990000A490870F0210948401CFFF74BFCF1213F
:1049A000A1710649A16000E000BF00BF2046D2E728
:1049B000B8000020D4010020BC0100208484002025
:1049C0002DE9F04104460D4616461F461CB1D42180
:1049D00009A0FEF719FF1C220021164800F0E0FC98
:1049E000002015490870002211461046FFF7EAFB27
:1049F0000120BDE8F08100002E2E5C2E2E5C4D695A
:104A000064646C65776172655C626C75655F616E2C
:104A100067656C5C7372635C636F72655C67617021
:104A20005C62745F6761705F636F6D6D6F6E2E6344
:104A30000000000068840020B80000202DE9FE433B
:104A400006460F46154698464FF001090024DEB190
:104A50002C462C48027839462B48FEF7D5F92078A9
:104A6000012804D1AC2129A0FEF7CEFE0CE020786D
:104A7000022809D13448642322460090D4E9010178
:104A800000F090F8BDE8FE8330483844E0B10428D7
:104A90001BD1062208F107012D4800F0EAFA2C4844
:104AA000401E80792A49491E4979294A521E1279A5
:104AB000CDE9002102902648401EC37882784178D3
:104AC00024A0FEF7A1F901E000E000BF00BFFFF75E
:104AD0003BFF044654B11C484FF47A7322460090C1
:104AE000D4E9010100F05EF8814608E00120184990
:104AF000491E0870002211461046FFF763FB484626
:104B0000C0E70000B8000020608300082E2E5C2E55
:104B10002E5C4D6964646C65776172655C626C756E
:104B2000655F616E67656C5C7372635C636F726511
:104B30005C6761705C62745F6761705F636F6D6D0D
:104B40006F6E2E63000000003D4A0008FBEFFFDFA0
:104B5000698400205B42545F4741505D5B434F4D89
:104B60004D4F4E5D204C6F63616C207075626C69B7
:104B7000632061646472203D202532782D253278CF
:104B80002D2532782D2532782D2532782D25327835
:104B90000D0A000010B500F0DFFD10BD0146002039
:104BA000704700002DE9FF4790461D460C9E0127E7
:104BB00000249DF8020000F10409BDF8000040F057
:104BC000005ABDF8001027A0FEF71EF909F10401F4
:104BD000002000F059FA041D34B92CA0FEF714F996
:104BE000202004B0BDE8F08701202070BDF800004F
:104BF000A4F801009DF80210E1709DF80200002861
:104C000005DD9DF80220201D019900F032FA002EEA
:104C10001AD0504600F0E6FF40B124A0FEF7F4F8A9
:104C2000211F002000F0F0FA2C48DAE73346424614
:104C30002946504600F0ECFF0746012F00D103E063
:104C40002A2127A0FEF7E0FDE078021D2146002082
:104C500000F096F8E078011D2046FFF727FC384663
:104C6000BFE700005B42545F4843495D20636D64C9
:104C70002073656E642C20636D645F636F646520D0
:104C80003D2030782578200D0A0000005B42545FFB
:104C90004843495D20636D642073656E64206661DE
:104CA000696C2C204F4F4D200D0A00005B42545F71
:104CB0004843495D20636D642073656E64206661BE
:104CC000696C2C2074696D657220616C7265616419
:104CD000792065786973740D0A00000002000010E5
:104CE0002E2E5C2E2E5C4D6964646C657761726556
:104CF0005C626C75655F616E67656C5C7372635C4A
:104D0000636F72655C6863695C62745F6863692E77
:104D1000630000002DE9F04104460126677875071D
:104D2000132F11D004DC0E2F07D00F2F11D107E065
:104D30003E2F0AD0FF2F0CD108E0A08805430CE0DD
:104D4000E6783046BDE8F08107E006E045F47C45B2
:104D500003E047F48030054300BF00BF21462846EA
:104D600000F044FE06460548864204D12146284606
:104D7000FFF7B0FD06463046E4E7000001000010F2
:104D80002DE9F84F82460E4617464FF0000B0025DE
:104D9000A846002400200090BAF1000F09D1307815
:104DA000012801D1814612E0307802280FD18146D6
:104DB0000DE0BAF1010F0AD13078022802D14FF08C
:104DC000040904E03078042801D14FF00809761C6A
:104DD000781E87B2B81D1FFA80FB5946002000F0EC
:104DE00053F9044604B103E02B2123A0FEF70CFD88
:104DF000F5222846691C8DB222545A222846691C85
:104E00008DB222542846691C8DB204F800902846C1
:104E1000691C8DB227543A0A2846691C8DB2225467
:104E20004FF0000808E016F808006055681C85B2CD
:104E300008F101001FFA80F8B845F4DB4FF00008D4
:104E400009E014F8081000980844C0B2009008F176
:104E500001001FFA80F8ABF101004045F1DC009839
:104E600060555A462146022001F02EF821460020C6
:104E700000F0CAF9BDE8F88F2E2E5C2E2E5C4D692D
:104E800064646C65776172655C626C75655F616EA8
:104E900067656C5C706C6174666F726D5C62745F88
:104EA0006C6F672E6300000010B5002425E001211F
:104EB00015480068183000F04BF8041D20780228CF
:104EC0000BD1B4F80300401D82B221460120FFF748
:104ED00057FF2046FFF762FE0BE02078042808D138
:104EE000A078C21C21460120FFF74AFF2046FFF7A9
:104EF00011FF211F012000F087F903480068806935
:104F00000028D4D110BD00008C00002010B54FF453
:104F100080520849002000F0D3F94FF4805206492E
:104F2000012000F0CDF94FF48C7204490020FFF706
:104F3000A5FB10BD0406002004160020EC04002090
:104F400002461068884201D1012070470020FCE72A
:104F50002DE9F04105460F462E46346805B103E0C1
:104F60001C2109A0FEF750FC5CB1022F05D101E025
:104F70002646246820680028FAD120683060002086
:104F800020602046BDE8F0812E2E5C2E2E5C4D69FF
:104F900064646C65776172655C626C75655F616E97
:104FA00067656C5C7372635C636F6D6D6F6E5C6282
:104FB000745F6C696E6B6E6F64652E630000000039
:104FC0002DE9F04105460E4617462C4605B103E093
:104FD0000E2107A0FEF718FC022F04D100E0246880
:104FE00020680028FBD1206830602660BDE8F08191
:104FF0002E2E5C2E2E5C4D6964646C657761726543
:105000005C626C75655F616E67656C5C7372635C36
:10501000636F6D6D6F6E5C62745F6C696E6B6E6FEB
:1050200064652E63000000002DE9F04105460F463F
:1050300016462C460BE031462046B84710B12046B4
:10504000BDE8F0812468AC4201D10020F8E7002CD3
:10505000F1D10020F4E770B504460D4616463246FD
:1050600029462046FBF703F908B1012070BD002056
:10507000FCE770B504460D461646324629462046E2
:10508000FBF7CAF870BD00002DE9F04106460D4659
:105090004FF00008002400272946304600F064F94C
:1050A00068B9304600F06CF8264850F8260030B950
:1050B000472125A0FEF7A8FB0020BDE8F0812D1DAB
:1050C000E81C20F0030501F093FF1E4850F826402D
:1050D00004B103E050211CA0FEF796FB206820F0ED
:1050E0004040401B08280FD3201D4119154840F8A7
:1050F00026102068401B001F20F04040114951F845
:10510000261008602F4606E000210E4840F82610C1
:10511000206820F0404701F08DFF3A1F0021201D3C
:1051200000F03EF927F0404040F080402060211D13
:105130003944081F04221149FFF79BFF04F10408BA
:105140004046BAE7248400202E2E5C2E2E5C4D694A
:1051500064646C65776172655C626C75655F616ED5
:1051600067656C5C7372635C636F6D6D6F6E5C62C0
:10517000745F6D656D6F72792E630000880000208A
:105180002DE9F04104461F4850F82450002601F054
:105190002FFF00BF2868870FFFB90EB92E4606E023
:1051A000306829680844001D20F0404030601548F0
:1051B000083050F8240058B1306820F040411148C0
:1051C000083050F82400006820F04040814205D9A2
:1051D0000C48083040F8246000E00026286820F0E1
:1051E00040402844051D074850F82400291A054866
:1051F000103050F824008142CCD301F01BFFBDE8F1
:10520000F08100001C8400202DE9F04105460E4687
:1052100000240027341F206820F04041201D08444E
:10522000071F042217493846FFF715FF00B903E0AE
:105230006C2115A0FEF7E8FA01212068B1EB907F00
:1052400000D103E06D2110A0FEF7DEFA1B4850F8F4
:105250002510103050F825000844216821F0404105
:105260003144884200D303E06E2107A0FEF7CCFA58
:10527000206820F0404020602846FFF781FFBDE80D
:10528000F0810000880000202E2E5C2E2E5C4D69DF
:1052900064646C65776172655C626C75655F616E94
:1052A00067656C5C7372635C636F6D6D6F6E5C627F
:1052B000745F6D656D6F72792E6300001C84002031
:1052C00070B504460E4615461748006800B103E065
:1052D000222116A0FEF798FA05F0030010B9082D58
:1052E00000D303E0232111A0FEF78EFA01F080FE27
:1052F0001B4840F82450103840F8246050F824101F
:10530000083040F8241001F095FE7119081F04229E
:105310001449FFF7AEFE281F20F040401049103915
:1053200051F82410086070BD8C0000202E2E5C2ED9
:105330002E5C4D6964646C65776172655C626C7546
:10534000655F616E67656C5C7372635C636F6D6DE6
:105350006F6E5C62745F6D656D6F72792E630000B5
:105360002C8400208800002070B504460E46361DAF
:1053700001F03EFE094850F8240048B1074850F8B3
:105380002400006820F04040B04201D9012500E02F
:10539000002501F04FFE284670BD00002484002047
:1053A00070B506460C461546224629463046FAF7A1
:1053B00045FF70BD10B5042002F060F910BD10B5B6
:1053C00003220021012002F07DF910BD012080F3AD
:1053D000108800BF7047002080F3108800BF70471E
:1053E00010B502F03BFD10BD10B5044602F026FDDD
:1053F000012800D110BD204602F0C1FB00BFF9E733
:1054000010B5044602F01AFD012800D110BD00239A
:105410001A461946204602F071FA00BFF6E738B581
:10542000044602F00BFD012800D138BD6946204634
:1054300002F05BFB00BFF8E708B50C48006898B9BC
:105440000B4800231A464FF6FF71009009A002F0A6
:10545000C3FE064908600846006808B100BF03E0C3
:10546000222107A0FEF7D0F908BD0000940000201B
:105470000957000842545F54696D657200000000CE
:105480002E2E5C2E2E5C4D6964646C6577617265AE
:105490005C626C75655F616E67656C5C706C617495
:1054A000666F726D5C72746F735C62745F6F735F52
:1054B0006C617965725F6170692E630004480068F1
:1054C000C0F3090109B9002070470120FCE7000082
:1054D00004ED00E010B502F0B1FC022801D101207A
:1054E00010BD0020FCE7000010B50848006800B1BE
:1054F00003E0302106A0FEF787F90448006802F0B7
:10550000F3FE08B1012010BD0020FCE7940000204C
:105510002E2E5C2E2E5C4D6964646C65776172651D
:105520005C626C75655F616E67656C5C706C617404
:10553000666F726D5C72746F735C62745F6F735FC1
:105540006C617965725F6170692E630010B5044605
:1055500004B103E01A2103A0FEF756F910480460D5
:1055600010BD00002E2E5C2E2E5C4D6964646C65AF
:10557000776172655C626C75655F616E67656C5CB6
:10558000706C6174666F726D5C72746F735C627460
:105590005F6F735F6C617965725F6170692E630024
:1055A00098000020F8B5044625461748006800B169
:1055B00003E03B2115A0FEF727F9FFF795FF08B19F
:1055C00000F042F8002003462A46042100900E48CD
:1055D000006802F04FFE00B103E03F210BA0FEF790
:1055E00013F902F03BFC0646002003463246022136
:1055F00000900548006802F03DFE00B103E0402144
:1056000002A0FEF701F9F8BD940000202E2E5C2EBA
:105610002E5C4D6964646C65776172655C626C7563
:10562000655F616E67656C5C706C6174666F726DEE
:105630005C72746F735C62745F6F735F6C617965C9
:10564000725F6170692E630008B50948006800B197
:1056500003E0452107A0FEF7D7F8002003460246E5
:10566000032100900248006802F004FE08BD00001B
:10567000940000202E2E5C2E2E5C4D6964646C65B7
:10568000776172655C626C75655F616E67656C5CA5
:10569000706C6174666F726D5C72746F735C62744F
:1056A0005F6F735F6C617965725F6170692E630013
:1056B00010B5044602F0C2FB012800D110BD4FF026
:1056C000FF31204602F0BCFA00BFF7E770B505468F
:1056D0000C4602F0B3FB012800D170BD0023224626
:1056E0001946284602F021F800BFF6E738B504460F
:1056F00002F0A4FB012800D138BD6A4600212046F3
:1057000002F05AFA00BFF7E710B5044603480068F4
:1057100010B102480068804710BD000098000020CA
:105720000EB50A4903C9CDE90101094800780128ED
:1057300001D002200EBD07484FF47A73002200907A
:10574000DDE90101FFF72EFAF4E7000014830008F9
:1057500068840020C149000810B50A48007808B1E3
:10576000022010BD1C2200210648FFF719FE02206E
:105770000449087000231A4603491846FFF75EF9EA
:10578000EFE7000068840020FF0000281CB500241B
:10579000002000900190FFF719FE144804680822C9
:1057A000011D6846FFF765FC0020104908600822CB
:1057B00000210E48001DFFF7F3FDFFF70CFE0C481B
:1057C0000068FFF775FF04F0010008B100F036F93A
:1057D00004F0020028B1BDF80200FEF729FEFFF731
:1057E00063FB03480068FFF7FFFD1CBD4C840020ED
:1057F000B000002070B504460D461646042C00D2B9
:1058000003E048210BA0FDF7FFFFFFF7DFFD16487F
:1058100000680121A140084313490860081D20F8D1
:105820001450083040F82460FFF7D5FD00F066F80A
:1058300070BD00002E2E5C2E2E5C4D6964646C657C
:10584000776172655C626C75655F616E67656C5CE3
:10585000706C6174666F726D5C62745F706C6174A1
:10586000666F726D2E6300004C84002010B5FEF749
:1058700027FDFFF7E1FD1148FFF768FE10480068BB
:1058800058B9FFF797FD0E4908600846006800B157
:1058900003E05D210BA0FDF7B7FF1748006858B97A
:1058A000FFF78DFD144908600846006800B103E069
:1058B000612104A0FDF7A8FF10BD0000E95C00080D
:1058C000B00000202E2E5C2E2E5C4D6964646C6549
:1058D000776172655C626C75655F616E67656C5C53
:1058E000706C6174666F726D5C62745F706C617411
:1058F000666F726D2E630000B400002010B50A4878
:10590000006800B103E0222108A0FDF77DFFFFF74A
:10591000D5FD20B104480068FFF781FD03E002488F
:105920000068FFF76DFD10BDB40000202E2E5C2E28
:105930002E5C4D6964646C65776172655C626C7540
:10594000655F616E67656C5C706C6174666F726DCB
:105950005C62745F706C6174666F726D2E630000C0
:1059600010B5FFF7ABFD20B105480068FFF7BEFE9C
:1059700005E04FF0FF3102480068FFF7A7FE10BDB9
:10598000B4000020F1B50026002700256A4614491E
:105990001448FFF749FB04460CB91348F8BD012130
:1059A0002046FFF7D5FA06460E48844211D100F092
:1059B00097F90C48006860B100F026F907460948DD
:1059C0000068C068C51B002D00DA0025284600F0DD
:1059D00081F931460020FEF7C9FD0120DEE7000015
:1059E0007D5B00089000002001000010F0B585B03C
:1059F00004460D46012714216846FAF726FC0026C6
:105A0000204600F0EFF8064616B90B4805B0F0BD89
:105A1000142231466846FFF72CFB2046FFF7B2FF01
:105A2000049838B12B4621460020DDF810C0029AB8
:105A3000E04707463846E9E7010000102DE9F0414C
:105A400086B0002500F0E0F806460027002005900B
:105A5000002414216846FAF7F8FB254C11E025686C
:105A600075B1E868B0420BD801212046FFF770FA03
:105A700080460222414605A8FFF7A2FA1C4C00E02E
:105A80002468002CEBD1059810B906B0BDE8F08170
:105A900016E0059D142229466846FFF7EAFA0498A5
:105AA00030B100230120DDF810C0DDE90112E0472C
:105AB000012105A8FFF74CFA29460020FEF756FD04
:105AC00005980028E5D10A48006870B100F008F98F
:105AD00000F09AF8064606480068C068871B002F49
