:020000040800F2
:10000000A0910020E901000869110008D90D00083D
:100010006511000895080008151E00080000000082
:100020000000000000000000000000004501000882
:10003000EB0A00080000000089010008A51500086F
:10004000030200080302000803020008030200087C
:10005000030200080302000803020008030200086C
:10006000030200080302000803020008030200085C
:10007000030200080302000803020008030200084C
:10008000030200080302000803020008030200083C
:10009000030200080302000803020008030200082C
:1000A000030200080302000803020008030200081C
:1000B000030200080302000803020008030200080C
:1000C00003020008030200080302000803020008FC
:1000D000030200082516000835160008451600081A
:1000E00003020008030200080302000803020008DC
:1000F00003020008030200080302000803020008CC
:1001000003020008030200080302000803020008BB
:1001100003020008030200080302000803020008AB
:10012000030200080302000803020008030200089B
:10013000DFF80CD000F02EFB00480047933F00088A
:10014000A0910020204B19680868B0E8F00F80F3F8
:100150000988BFF36F8F4FF0000080F311884EF0D5
:100160000D0E70470000000006480068006880F32C
:10017000088862B661B6BFF34F8FBFF36F8F00DFA1
:1001800000BF00BF08ED00E0EFF30980BFF36F8F01
:100190000D4B1A6820E9F00F106008B54FF0100001
:1001A00080F3118804F062FE4FF0000080F31188A4
:1001B000BDE8084019680868B0E8F00F80F30988C6
:1001C000BFF36F8F704700BF1C000020EFF311805A
:1001D0004FF0100181F31188704780F31188704748
:1001E000EFF3058070470000064880470648004747
:1001F000FEE7FEE7FEE7FEE7FEE7FEE7FEE7FEE7D7
:10020000FEE7FEE7C515000831010008A0F1610115
:10021000192900D82038704740EA01039B0703D012
:1002200009E008C9121F08C0042AFAD203E011F835
:10023000013B00F8013B521EF9D27047D2B201E0F7
:1002400000F8012B491EFBD270470022F6E710B5DB
:1002500013460A4604461946FFF7F0FF204610BD34
:10026000421C10F8011B0029FBD1801A704730B5E1
:1002700004460020034600E05B1C934203D2E05C8E
:10028000CD5C401BF8D030BD034611F8012B00F8BF
:10029000012B002AF9D1184670472DE9FE4F804600
:1002A00081EA0300C00F0C46009021F0004123F0CA
:1002B0000045B8EB0200A94105D2404621469046D0
:1002C0001C460B46024623F00040104347D0270D42
:1002D000C7F30A00C3F30A510290401A0190402864
:1002E0006BDAC3F3130040F4801B0098924620B1F0
:1002F0000023D2EB030A63EB0B0B01985946C0F1C4
:100300004002504600F026F906460D465046594632
:10031000019A00F02EF910EB08006141002487EAF1
:10032000115284EAE7731A4340D0009A62B3019AEB
:10033000012A4FEA075215DC001B61EB02014FF066
:10034000004202EA0752CDE90042001C41F580114B
:1003500032462B4600F02EF903B0BDE8F08F404640
:100360002146F9E7001B61EB0201001C41F58013F7
:1003700000185B412018A2F5001747EB030140EA83
:10038000D570B6196D4111E06D084FEA360645EAA1
:10039000C0754FEA0752001B61EB0201001C41F5DA
:1003A000801149084FEA30000019514132462B466E
:1003B00003B0BDE8F04F00F0EEB800980122400015
:1003C0000023D0EB020263EBE073009821464FEA72
:1003D000E074B8EB000061EB0401E9E783F000434F
:1003E0005BE781F0004158E72DE9F04D81EA030415
:1003F00004F0004B21F0004514464FF0000A23F0B2
:10040000004150EA050220D054EA01021DD0C5F394
:100410000A570246C5F31303C1F31300C1F30A568A
:1004200040F4801543F48013A7EB0608101BD64652
:1004300008F2FD3873EB050002D308F1010801E072
:1004400092185B41B8F1000F03DA00200146BDE8C5
:10045000F08D00204FF48011064684460EE0171BF5
:1004600073EB050705D3121B63EB050306434CEA48
:10047000010C49084FEA300092185B4150EA01072D
:10048000EDD152EA030012D082EA040083EA0501AA
:10049000084305D0101BAB4106D20122002306E021
:1004A00000224FF0004302E06FF0010253101AEBFC
:1004B00006004CEB085110EB0A0041EB0B01BDE8C4
:1004C000F04D00F068B830B50B4601460020202200
:1004D000012409E021FA02F59D4205D303FA02F551
:1004E000491B04FA02F52844151EA2F10102F1DCB1
:1004F00030BD2DE9F05F0546002092469B468846B8
:100500000646814640241BE028464146474622468F
:1005100000F052F953465A46C01A914110D3114681
:100520001846224600F016F82D1A67EB01084F46D0
:1005300022460120002100F00DF817EB00094E4182
:10054000201EA4F10104DFDC484631462A4643461A
:10055000BDE8F09F202A04DB203A00FA02F10020D7
:1005600070479140C2F1200320FA03F319439040F1
:100570007047202A06DBCB17203A41FA02F043EA03
:10058000E07306E041FA02F3D040C2F1200291404C
:1005900008431946704710B5141E73F1000408DAB9
:1005A000401C41F1000192185B411A4301D120F037
:1005B000010010BD2DE9F04D92469B4611B1B1FAF4
:1005C00081F202E0B0FA80F220329046FFF7C2FFDB
:1005D00004460F4640EA0A0041EA0B0153465A46D8
:1005E000084313D0114653EA010019D0C8F1400264
:1005F000504600F0E1F805460E4650465946424640
:10060000FFF7A8FF084305D0012004E02046394643
:10061000BDE8F08D0020054346EAE0762C433743E1
:100620000A986305E40AA0EB08000022FD0A44EAE8
:1006300047540A3002D500200146E9E701051019A8
:100640006941DDE9084500196941BDE8F04DA2E7BF
:100650002DE9FE4F81EA030404F0004421F000413B
:1006600000944FF0000B23F0004350EA01045ED0E9
:1006700052EA03045BD0C3F30A54C1F30A552C4475
:10068000A4F2F3340194A0FB0254C1F3130141F42A
:100690008011C3F3130343F4801301FB024400FBF6
:1006A000034E840A970A44EA815447EA8357A4FB1D
:1006B000076802958D0A05FB07854FEA932C04FB1A
:1006C0000C542705029D4FEA065847EA1637B5EB4A
:1006D00008056EEB070C870E920E47EA811742EA77
:1006E0008312A7FB0201B6EB0B0164EB00042B0D98
:1006F00043EA0C335E1844EB1C50DA465146E7FBE4
:100700000201C5F313044FEA0B3343EA14534FEAD3
:100710000432019C43EA0603A4F10C040294009CF9
:10072000CDE900B4FFF746FF03B0BDE8F08F00202D
:100730000146F9E7C1F30A52C1F3130140F2FF3356
:1007400041F480119A4202DA00200146704740F2DB
:1007500033439A42A2F2334202DC524200F02CB8F8
:10076000FFF7F8BE30B5041E71F1000404DB4FF052
:100770000044404264EB0101141E73F1000405DBE8
:100780001C464FF00043524263EB0403994208BFFA
:10079000904230BD064C074D06E0E06840F0010392
:1007A00094E8070098471034AC42F6D3FFF7C4FC36
:1007B000A85E0008C85E0008202A04DB203A21FA5F
:1007C00002F00021704721FA02F3D040C2F120026A
:1007D000914008431946704770B58C1810F8015BBA
:1007E00015F0070301D110F8013B2A1106D110F8CA
:1007F000012B03E010F8016B01F8016B5B1EF9D1CE
:100800002B0705D40023521E0DD401F8013BFAE753
:1008100010F8013BCB1A921C03E013F8015B01F8BE
:10082000015B521EF9D5A142D8D3002070BD000053
:100830001FB500200D4A0123CDE90120009303904C
:1008400003464FF400720AA10C4804F0E7FE0020B2
:100850000B4A0123CDE901200093039003464FF496
:10086000007208A10A4804F0D9FE1FBD0000002054
:10087000765461736B55736572494600ED4E0008FE
:10088000040000207642545F5461736B0000000046
:100890009149000800BFFEE7F8B504460D4616462C
:1008A00000200346324629460090204600F002F818
:1008B000F8BD00002DE9F84F04460E46174698464D
:1008C000DDF828900025AA461548006810B94FF0B9
:1008D0000A0A1EE014B94FF0150A1AE043463A46D8
:1008E00031462046CDF8009003F082FA054615B94E
:1008F0004FF0010A0DE021460948006804F020F895
:10090000012801D14FF0180A29460548006803F074
:100910002BFB504600F06EF82846BDE8F88F00002B
:10092000780100200149087070470000BC000020D9
:1009300010B5002000F05EF8024800F032F800F038
:1009400003F810BD7801002010B50249024803F0F9
:10095000B1F910BD880100204081002070B5044627
:100960000D4601E0641C6D1C207850B1287840B120
:100970002078FFF74BFC06462878FFF747FC8642B5
:10098000F0D020782978401A70BD10B50C2003F003
:1009900011FB04461CB10020A0602060606020466E
:1009A00010BD10B50446206810B1206803F06DF941
:1009B000206803F09DFA0020206010BD10B50021D2
:1009C0000C46084600F016F80948006808B1FFF721
:1009D000AFFFFFF7DAFF064908600846006820B954
:1009E00001210C46084600F005F8204610BD000025
:1009F0007801002070B504467CB1094800780228CF
:100A00000BD1204603F09CFA05462A46214605A054
:100A100001F002FA204603F05FFA0A48047070BD44
:100A2000C10000200A41626F7274696E67206475AC
:100A30006520746F206572726F72202325643A20DE
:100A400025730A00C00000200149087070470000AB
:100A5000C1000020014609B909487047012901D1A8
:100A60000848FAE7022901D10748F6E7032901D12E
:100A70000020F2E7042901D10020EEE70020ECE796
:100A80008C230020B42B0020DC33002008B5252067
:100A90008DF8000001208DF8010000208DF8020083
:100AA00001208DF80300684600F060FB26208DF8D9
:100AB000000001208DF8010000208DF802000120C7
:100AC0008DF80300684600F051FB27208DF80000E8
:100AD00001208DF8010000208DF8020001208DF822
:100AE0000300684600F042FB08BD70472DE9F05F47
:100AF00005460C464FF00009CA4600260027B046BE
:100B0000B3465948854211D0584885420ED05848BE
:100B100085420BD05748854208D05748854205D0BA
:100B20005648854202D05648854200D103E0B8219C
:100B300054A001F0EBFDE078A0B1E078042811D0DA
:100B4000E07828280ED0E07848280BD0E0781428E8
:100B500008D0E078102805D0E0781C2802D0E07892
:100B6000182800D103E0B92146A001F0CFFD0020F4
:100B700010B9208800B103E0BA2142A001F0C6FDFF
:100B8000E07800F00F09E07800F0100080B1A07864
:100B9000012805D0A078022802D0A078032800D12F
:100BA00003E0C12137A001F0B1FDA07840EA0909B6
:100BB000207838B3D5F8008000261FE0012000FA25
:100BC00006F7208800EA070ABA4516D1B7000F20B9
:100BD00000FA07FB28EA0B0809FA07F040EA0808C0
:100BE000E078282803D10120B040686105E0E07872
:100BF000482802D10120B0402861761C082EDDD3A0
:100C0000C5F800802088FF282BDDD5F80480002659
:100C100023E006F10800012101FA00F7208800EA2C
:100C2000070ABA4518D1B7000F2000FA07FB28EAD7
:100C30000B0809FA07F040EA0808E078282803D1F1
:100C400006F1080081406961E078482804D106F186
:100C50000800012181402961761C082ED9D3C5F8EE
:100C60000480BDE8F09F000000080140000C014036
:100C7000001001400014014000180140001C014018
:100C8000002001402E2E5C2E2E5C4C696272617237
:100C90006965735C53544D3332463130785F537419
:100CA000645065726970685F4472697665725C73DE
:100CB00072635C73746D3332663130785F6770696C
:100CC0006F2E630070B505460C4616462B488542CC
:100CD00011D02B4885420ED02A4885420BD02A4895
:100CE000854208D02948854205D02948854202D04E
:100CF0002848854200D104E040F2931126A001F07B
:100D000005FD012C25D0022C23D0042C21D0082C49
:100D10001FD0102C1DD0202C1BD0402C19D0802C83
:100D200017D0B4F5807F14D0B4F5007F11D0B4F59E
:100D3000806F0ED0B4F5006F0BD0B4F5805F08D093
:100D4000B4F5005F05D0B4F5804F02D0B4F5004F84
:100D500000D104E04FF4CA710FA001F0D7FC0EB12E
:100D6000012E00D104E040F295110BA001F0CEFC61
:100D70000EB12C6100E06C6170BD00000008014004
:100D8000000C014000100140001401400018014017
:100D9000001C0140002001402E2E5C2E2E5C4C6970
:100DA000627261726965735C53544D3332463130FF
:100DB000785F5374645065726970685F44726976D5
:100DC00065725C7372635C73746D33326631307854
:100DD0005F6770696F2E630009A100200CE00A5C58
:100DE000124B1A8000BF114A121F128802F04002F3
:100DF000002AF8D0421CD0B22A28F0D300BFFEE768
:100E00000D0A456E74657220486172644661756CA6
:100E1000745F48616E646C65722C205379737465DD
:100E20006D2048616C742E0D0A00000004380140EA
:100E300000B585B00121052000F08EFA012188035C
:100E400000F08AFA4FF40070ADF8100018208DF809
:100E5000130003208DF8120004A95E48FFF746FE38
:100E60004FF48060ADF8100004208DF8130004A941
:100E70005848FFF73BFE4FF4E13000900020ADF8FA
:100E80000400ADF80600ADF80800ADF80C000C2029
:100E9000ADF80A006946504800F076FD012240F2A4
:100EA00025514D4800F0E8FC01214B4800F018FCAA
:100EB0004021494800F0CEFB0121052000F04CFA0A
:100EC0000121480400F000FA0620ADF810001820B7
:100ED0008DF8130003208DF8120004A93D48FFF798
:100EE00005FE0920ADF8100004208DF8130004A9B8
:100EF0003848FFF7FBFD04A93648FFF7F7FD4FF42C
:100F0000E13000900020ADF80400ADF80600ADF827
:100F100008004FF44070ADF80C000C20ADF80A004A
:100F200069462E4800F030FD012240F225512B4841
:100F300000F0A2FC0121294800F0D2FB4021274803
:100F400000F088FB0121092000F006FA0121880445
:100F500000F0BAF94FF48060ADF8100018208DF859
:100F6000130003208DF8120004A91D48FFF7BEFDF1
:100F70004FF40060ADF8100004208DF8130004A9B0
:100F80001748FFF7B3FD04A91548FFF7AFFD4FF46D
:100F9000612000900020ADF80400ADF80600ADF827
:100FA0000800ADF80C000C20ADF80A0069460D48A9
:100FB00000F0EAFC012240F225510A4800F05CFCF6
:100FC0000121084800F08CFB4021064800F042FB5C
:100FD00005B000BD00080140003801400044004059
:100FE000000C0140004800400948806800F40050AF
:100FF00058B90848006800F0010030B90648806818
:1010000000F4807008B1012070470020FCE7000068
:101010000010014008080140002001400948806894
:1010200000F4005058B10848006800F0010030B1E9
:101030000648806800F4807008B9012070470020DD
:10104000FCE70000001001400808014000200140BA
:101050000948806800F4005058B10848006800F062
:10106000010030B10648806800F4807008B10120AA
:1010700070470020FCE70000001001400808014014
:10108000002001400948806800F4005058B1084829
:10109000006800F0010030B90648806800F48070F4
:1010A00008B9012070470020FCE700000010014053
:1010B00008080140002001400448806800F4004016
:1010C00008B9012070470020FCE700000020014023
:1010D0000448006800F0080008B9012070470020AB
:1010E000FCE70000081401400448806800F48040D8
:1010F00008B9012070470020FCE7000000200140F3
:101100000448806800F4005008B9012070470020AE
:10111000FCE70000002001400448806800F08000E7
:1011200008B9012070470020FCE7000000200140C2
:101130000948806800F4005058B90848006800F079
:10114000010030B10648806800F4807008B10120C9
:1011500070470020FCE70000001001400808014033
:101160000020014000BFFEE7704700002DE9F0417C
:101170000446002500270F26E07810B1E07801280A
:1011800000D103E07B2121A001F0C0FA6078102893
:1011900000DA03E07C211DA001F0B8FAA078102845
:1011A00000DA03E07D2119A001F0B0FAE07800B385
:1011B0002448006800F4E060C0F5E060050AC5F16D
:1011C0000407EE40607800FA07F5A0783040054348
:1011D0002D011D4822788554207800F01F01012040
:1011E000884021784911890001F1E021C1F800010E
:1011F00009E0207800F01F0101208840134922787F
:10120000521141F82200BDE8F08100002E2E5C2E24
:101210002E5C4C69627261726965735C53544D3324
:1012200032463130785F5374645065726970685F1C
:101230004472697665725C7372635C6D6973632E68
:10124000630000000CED00E000E400E080E100E05D
:1012500010B50446B4F5E06F0BD0B4F5C06F08D0FC
:10126000B4F5A06F05D0B4F5806F02D0B4F5407F1F
:1012700000D103E0692104A001F048FA104820439E
:101280001049086010BD00002E2E5C2E2E5C4C69AB
:10129000627261726965735C53544D33324631300A
:1012A000785F5374645065726970685F44726976E0
:1012B00065725C7372635C6D6973632E630000001A
:1012C0000000FA050CED00E070B504460D4610482C
:1012D000204008B904B104E040F26F410DA001F0D4
:1012E00015FA0DB1012D00D104E04FF48E6109A073
:1012F00001F00CFA2DB11748C06920431549C861A7
:1013000004E01448C069A0431249C86170BD0000E0
:10131000003601812E2E5C2E2E5C4C696272617249
:101320006965735C53544D3332463130785F537482
:10133000645065726970685F4472697665725C7347
:1013400072635C73746D3332663130785F726363DD
:101350002E6300000010024070B504460D46104890
:10136000204008B904B104E04FF48A610DA001F0F7
:10137000CDF90DB1012D00D104E040F2514109A099
:1013800001F0C4F92DB117488069204315498861DF
:1013900004E014488069A0431249886170BD0000D0
:1013A0000200C0FF2E2E5C2E2E5C4C6962726172B0
:1013B0006965735C53544D3332463130785F5374F2
:1013C000645065726970685F4472697665725C73B7
:1013D00072635C73746D3332663130785F7263634D
:1013E0002E6300000010024030B5002100220024CE
:1013F00000232D4D6D6805F00C0121B1042905D0A5
:10140000082923D105E0294D056022E0274D05601C
:101410001FE0254D6D6805F47012234D6D6805F4CD
:101420008034022505EB92421CB9214D55430560DD
:101430000BE01D4D6D6805F400351DB11C4D554385
:10144000056002E0194D5543056002E0174D056047
:1014500000BF00BF144D6D6805F0F0010909154D7E
:101460006B5C0568DD4045600F4D6D6805F4E0611B
:10147000090A104D6B5C4568DD4085600A4D6D685A
:1014800005F46051C90A0B4D6B5C4568DD40C560D1
:10149000054D6D6805F44041890B074D6B5CC568CF
:1014A000B5FBF3F5056130BD0010024000127A0073
:1014B00000093D00080000201800002010B500F0D1
:1014C00001F810BD0CB50020019000903348006871
:1014D00040F480303149086000BF3048006800F4B3
:1014E000003000900198401C0190009818B90198B4
:1014F000B0F5A06FF1D12948006800F4003010B1B8
:101500000120009001E0002000900098012843D1C4
:101510002348006840F01000214908600846006830
:1015200020F0030008600846006840F002000860F0
:101530001A484068194948600846406848600846AB
:10154000406840F4806048600846406820F47C10A1
:1015500048600846406840F4E81048600846006863
:1015600040F08070086000BF0C48006800F0007018
:101570000028F9D00948406820F003000749486076
:101580000846406840F00200486000BF03484068D9
:1015900000F00C000828F9D10CBD0000001002403A
:1015A0000020024010B5FEF711FE04F0EDF818B16E
:1015B0004FF08050024908600020FEF70EFE10BD7B
:1015C00004ED00E010B51348006840F00100114937
:1015D000086008464068104908400E4948600846BF
:1015E00000680E4908400B4908600846006820F46E
:1015F000802008600846406820F4FE0048604FF4F0
:101600001F008860FFF75AFF4FF000600449086030
:1016100010BD0000001002400000FFF8FFFFF6FEC2
:1016200008ED00E010B5024800F0F8FA10BD000027
:101630008C23002010B5024800F0F0FA10BD000025
:10164000B42B002010B5024800F0E8FA10BD0000ED
:10165000DC33002070B504460D461B4884420BD095
:101660001A48844208D01A48844205D01948844256
:1016700002D01948844200D104E04FF46971174840
:1016800001F044F84FF69F40284008B905B104E046
:1016900040F2A531114801F039F805F40070B0F5B9
:1016A000007F0ED10848844205D00848844202D009
:1016B0000748844200D104E040F2A931074801F014
:1016C00025F8E843208070BD003801400044004008
:1016D00000480040004C004000500040205C0008E2
:1016E00070B504460D46154884420BD01448844218
:1016F00008D01448844205D01348844202D01348CD
:10170000844200D104E04FF4B471114800F0FEFFB0
:101710000DB1012D00D104E040F269110C4800F038
:10172000F5FF25B1A08940F40050A08104E0A08914
:101730004DF6FF710840A08170BD000000380140E7
:101740000044004000480040004C00400050004071
:10175000205C00082DE9F04705460C4600270026CE
:10176000B046B1463E4885420BD03E48854208D03F
:101770003D48854205D03D48854202D03C488542DF
:1017800000D104E04FF472713A4800F0BFFF282CFA
:1017900027D040F22770844223D040F22660844252
:1017A0001FD040F2255084421BD040F22440844296
:1017B00017D040F64600844213D040F66A108442A7
:1017C0000FD0B4F5587F0CD040F22530844208D0B9
:1017D000B4F5587F05D0B4F5187F02D0B4F5B07FCA
:1017E00000D104E040F2C931224800F08FFF40F6FA
:1017F0006A1084420ED11A48854205D019488542A4
:1018000002D01948854200D104E040F2CD31194898
:1018100000F07CFFC4F3421804F01F06012000FA18
:1018200006F6B8F1010F02D1A889064007E0B8F129
:10183000020F02D1288A064001E0A88A064027123A
:10184000012000FA07F7288807401EB117B14FF0B2
:10185000010901E04FF000094846BDE8F0870000AB
:10186000003801400044004000480040004C004067
:1018700000500040205C00082DE9F04705460C466A
:1018800017464FF00008C246C14600263848854238
:101890000BD03848854208D03748854205D03748B4
:1018A000854202D03648854200D104E040F28F11D3
:1018B000344800F02BFF282C19D040F227708442C6
:1018C00015D040F22660844211D040F22550844267
:1018D0000DD040F22440844209D040F646008442B4
:1018E00005D040F66A10844201D0602C00D104E09B
:1018F0004FF4C871234800F009FF0FB1012F00D148
:1019000004E040F291111F4800F000FF40F66A1019
:1019100084420ED11648854205D01648854202D031
:101920001548854200D104E040F29511154800F0B9
:10193000EDFE2E46C4F3421804F01F0A012000FAFF
:101940000AF9B8F1010F01D10C3605E0B8F1020F28
:1019500001D1103600E0143627B1306840EA0900A2
:10196000306003E0306820EA09003060BDE8F087AD
:10197000003801400044004000480040004C004056
:1019800000500040205C00082DE9F04786B0054675
:101990000C460026B24600BFB14600276B48854280
:1019A0000BD06B48854208D06A48854205D06A480A
:1019B000854202D06948854200D103E0BE216848D3
:1019C00000F0A4FE206820B166492068884200D259
:1019D00003E0BF21624800F099FEA08818B1A088FA
:1019E000B0F5805F00D103E0C0215D4800F08EFEBD
:1019F000E08858B1E088B0F5805F07D0E088B0F5A6
:101A0000005F03D0E088B0F5405F00D103E0C12162
:101A1000534800F07BFE208938B12089B0F5806FF3
:101A200003D02089B0F5C06F00D103E0C2214C483B
:101A300000F06CFE60894FF6F371084010B96089C0
:101A400000B103E0C321464800F060FEA08958B110
:101A5000A089B0F5807F07D0A089B0F5007F03D0C2
:101A6000A089B0F5407F00D103E0C4213C4800F0DC
:101A70004DFEA08968B13548854205D0344885427D
:101A800002D03448854200D103E0C821344800F038
:101A90003DFE2F462E8A4CF6FF700640E088064336
:101AA0002E82AE894EF6F3100640A08821890843A5
:101AB000618908430643AE81AE8A4FF6FF40064077
:101AC000A0890643AE8201A8FFF78EFC1F4887421B
:101AD00002D1DDF810A001E0DDF80CA0A88900F427
:101AE000004040B10AEBCA0000EB0A10216849002F
:101AF000B0FBF1F807E00AEBCA0000EB0A1021681E
:101B00008900B0FBF1F86420B8FBF0F00601300961
:101B1000642101FB1089A88900F4004040B1322003
:101B200000EBC900B0FBF1F000F00700064308E04D
:101B3000322000EB09106421B0FBF1F000F00F003F
:101B400006432E8106B0BDE8F08700000038014052
:101B50000044004000480040004C0040005000405D
:101B6000205C000821AA440010B504460C488442B9
:101B70000BD00C48844208D00B48844205D00B4857
:101B8000844202D00A48844200D104E040F26A2133
:101B9000084800F0BBFDA088C0F3080010BD00009D
:101BA000003801400044004000480040004C004024
:101BB00000500040205C000870B504460D461148F6
:101BC00084420BD01048844208D01048844205D08B
:101BD0000F48844202D00F48844200D104E040F212
:101BE00059210D4800F092FDB5F5007F00DA04E0C0
:101BF00040F25A21084800F089FDC5F30800A08092
:101C000070BD000000380140004400400048004022
:101C1000004C004000500040205C000870B50446B5
:101C200040F225512068FFF795FDE0B12068FFF7ED
:101C30009BFFC5B2E18AA0684554E08A401C80B28F
:101C4000E082E189884201DB0020E082608BE1894B
:101C5000884202DA608B401C6083606A10B12846BB
:101C6000616A884700BF40F227712068FFF772FD64
:101C700008B3A08A60B9002240F227712068FFF7FC
:101C8000FBFD012240F226612068FFF7F5FD37E0F9
:101C9000638A6268D15C2068FFF78EFF608A401C0F
:101CA00080B26082A189884201DB00206082A08A24
:101CB000401EA08224E040F226612068FFF74AFD22
:101CC000F0B1A08A50B9002240F226612068FFF7E7
:101CD000D3FD206AA0B1206A804711E0638A626860
:101CE000D15C2068FFF768FF608A401C80B2608288
:101CF000A189884201DB00206082A08A401EA08268
:101D000070BDF8B504460E46174600251DE008E0F4
:101D1000A08A0090A089BDF80010884200DD01E093
:101D200000BFF5E700BF705D228A61688854208A91
:101D3000401C80B22082A189884201DB00202082E1
:101D4000A08A401CA082681C85B2BD42DFDB012254
:101D500040F227712068FFF78FFDF8BD2048214928
:101D6000086021484860214888604FF4806088817D
:101D7000C881002008824882C882088348838882FC
:101D8000C861086248621A481A4908601A484860DF
:101D90001A4888604FF480608881C88100200882DA
:101DA0004882C882088348838882C86108621448D0
:101DB0004862144814490860144848601448886010
:101DC0004FF480608881C881002008824882C882E0
:101DD000088348838882C8610862486270470000AF
:101DE000003801408C230020B4230020B4270020B9
:101DF00000440040B42B0020DC2B0020DC2F00200E
:101E0000792A000800480040DC3300200434002018
:101E10000438002000BFFEE70FB4054B10B503A93E
:101E2000044A029800F0DAF810BC5DF814FB0000D8
:101E3000DD3E0008B801002002E008C8121F08C1FA
:101E4000002AFAD170477047002001E001C1121F3B
:101E5000002AFBD1704700002DE9FF5F82B000210E
:101E6000DDE90430020DDDF840B0034318D044F63C
:101E70001050A2F2FF3242431514119801281FD0CE
:101E8000A5EB0B00401C5FEA000A4FF000064E4F26
:101E9000DFF83891B046504615D5CAF1000413E07A
:101EA000119801244AA3012801D16FEA0B0102987D
:101EB000119AC0E90031C0E9024206B0BDE8F09FC6
:101EC000CBF10000DFE704460021404A491842EB0D
:101ED0000450CDE9001012E0E00707D032463B463F
:101EE00040464946FEF7B4FB8046894632463B46AB
:101EF00010461946FEF7ACFB06460F466410002C50
:101F0000EAD1DDE90401DDE90023BAF1000F06DAC8
:101F1000FEF79EFB42464B46FEF79AFB05E0FEF7B6
:101F200063FA42464B46FEF75FFA04460E4600222D
:101F3000284BFEF717FC03D84FF0FF30014607E0AF
:101F40000022254B20463146FEF7A7F9FEF7F2FBAB
:101F5000102409E0002C0ADB0A220023FEF7C9FA4C
:101F6000039B30321A55641E50EA0102F2D1641C00
:101F7000039AC4F111031444119A012A03D00122D7
:101F800008430DD10AE0084304D000204FF0110BA4
:101F9000119072E7A3EB0B056D1E0DE05B4504DDB0
:101FA0004FF0000205F1010504E003DA4FF00002F2
:101FB000A5F10105002AECD002981199C0E902317F
:101FC000C0E9004579E70000000014400000F03F40
:101FD000300000000000F0430000E03F2DE9FF4F1B
:101FE00095B09B468946064600250FE2252877D105
:101FF00000242746F84A0121059400E0044316F81E
:10200000013F203B01FA03F01042F7D130782A2833
:1020100011D06FF02F033078A0F13002092A16D8C2
:10202000059A44F0020402EB820203EB42021044E0
:10203000761C0590EFE759F8042B0592002A03DA85
:10204000504244F40054059044F00204761C307869
:102050002E2816D116F8010F44F004042A280DD0BA
:102060006FF02F023078A0F13003092B09D807EB6D
:10207000870302EB4303C718761CF3E759F8047B88
:10208000761C30786C280FD006DC4C2817D06828D6
:102090000DD06A2814D104E0742810D07A280FD10A
:1020A0000DE044F400140AE044F4801401E044F428
:1020B00040147278824202D104F58014761C761C9A
:1020C000307866280BD013DC582877D009DC00283C
:1020D00075D04528F6D04628F4D047281AD19DE17E
:1020E00018E0632835D0642879D0652812D195E1AD
:1020F000702873D008DC6728F1D069286FD06E286B
:102100000DD06F2806D1B5E073282CD0752875D076
:10211000782874D05A46179990476D1C75E1C4F31E
:102120000250022809D003280DD0D9F80010042845
:102130000DD00D6009F1040967E1D9F80010EA1724
:10214000C1E90052F6E7D9F800100D80F2E70D70F2
:10215000F0E719F8041B8DF8001000208DF801003D
:10216000EA46012003E059F804AB4FF0FF30610765
:102170004FF0000102D40DE008F101018846B94298
:102180000FDA8045F8DB1AF808100029F4D108E0CE
:1021900008F1010188468142FADB1AF8081000298B
:1021A000F6D105985B46A0EB080721463846179AFA
:1021B00000F094FA284400EB080507E04DE029E11F
:1021C0000DE01AF8010B5A4617999047B8F101082B
:1021D000F7D25B4621463846179A13E142E00A22BD
:1021E0000092C4F302524FF0000A022A08D059F8B4
:1021F00004CB032A4FEAEC710AD00DE029E02AE073
:1022000009F1070121F00702F2E802C1914609E055
:102210000FFA8CFC4FEAEC71042A03D14FFA8CFCC4
:102220004FEAEC71002907DA0A460021DCF1000CC4
:1022300061EB02012D2202E0220504D52B228DF84C
:102240000420012203E0E20701D02022F7E79046B4
:1022500059E00A2102E010220DE010214FF0000A9F
:1022600000910BE010224FF0000A44F0040408270C
:10227000009203E008224FF0000A0092C4F30252D9
:10228000022A05D059F804CB0021032A08D009E01E
:1022900009F1070121F00702F2E802C1914605E0C9
:1022A0001FFA8CFC042A01D10CF0FF0C4FF000083F
:1022B000220728D5702806D0009B83F0100353EA2C
:1022C0000A0305D00EE040228DF80420012208E028
:1022D0005CEA010206D030228DF804208DF805005A
:1022E00002229046009B83F0080353EA0A030AD1B6
:1022F0005CEA010201D1620705D530228DF8042085
:102300004FF001087F1E582804D034A003900EA877
:1023100002900DE036A0F9E753466046009AFEF7BA
:10232000E8F884460398825C0298401E029002708E
:102330005CEA0100F0D1029806A9081A00F1200A0F
:10234000600702D524F4803400E00127574502DD00
:10235000A7EB0A0000E0002000EB0A0100900598BE
:102360004144401A0590E00306D45B462146179A83
:10237000059800F0B3F90544002706E001A85A4685
:10238000C05D179990476D1C7F1C4745F6DBE00345
:102390000CD55B462146179A059800F09FF9054435
:1023A00004E030205A46179990476D1C0099481E4A
:1023B00000900029F5DC08E0029802995A4600785E
:1023C000491C0291179990476D1CBAF10001AAF1BE
:1023D000010AF1DC65E100000928010030313233E7
:1023E0003435363738396162636465660000000051
:1023F000303132333435363738394142434445463B
:102400000000000000F058F90544761C30780028E0
:102410007FF4ECAD19B02846BDE8F08F620700D418
:10242000062709F1070222F0070CFCE80223E14627
:1024300003F000485FEA080C02D00FF2702C0DE0A8
:102440005FEA045C02D50FF2682C07E05FEAC47C07
:1024500002D00FF2602C01E0AFF2700C4FF0FF38A9
:1024600023F00043CDF850C065280CD006DC452889
:1024700009D046281DD047283DD13DE0662818D018
:1024800067287ED138E00021112F01DB112000E008
:10249000781CCDE9000106A90EA8FFF7DDFCDDE9F7
:1024A0000F010E9A03910021009207F1010A049195
:1024B0004DE04FF000400097CDE9011006A90EA8AD
:1024C000FFF7CAFCDDE90F0203920E9B119900226F
:1024D000DDF80CA00093049211B9791C00EB010AFD
:1024E000B7EB0A0004D4C0F1FF3007F1010A0490F1
:1024F000AAEB0700019044E0012F00DA0127002138
:10250000112F01DD112000E03846CDE9000106A9B8
:102510000EA8FFF7A1FCDDE90F010E9A039100213F
:1025200004910092BA4621070CD40399514500DA70
:102530008A46BAF1010F05DD009AAAF10101515C4A
:10254000302908D0B84202DA10F1040F06DA01216E
:10255000CDE9011015E0AAF10101E9E7002805DC49
:10256000049901440491AAEB000102E0411C514589
:1025700000DD8A460499401A401C01904FF000404B
:102580000290200704D40198504501DBCDF8048067
:1025900000208DF84F0002980DF14F07B0F1004F69
:1025A00025D02B200E9002984FF0020800280CDA5C
:1025B000404202902D200E9007E00A210298FDF77C
:1025C00082FF3031029007F8011DB8F10001A8F137
:1025D0000108F2DC02980028EFD1791E0E980870ED
:1025E000307800F0200040F0450007F8020D12A8F6
:1025F000C01B00F107081498007800B1012000EB1F
:102600000A01019801EBE07105984144401A401E0F
:102610000590E00306D45B462146179A059800F022
:102620005DF805441498007818B15A4617999047F8
:102630006D1CE00324D55B462146179A059800F0EF
:102640004DF805441CE00498002807DBDDE9030190
:10265000884203DD0098405C179901E0179930200B
:102660005A469047049805F10105401C04900198D2
:10267000401E019004D12E205A46179990476D1C98
:10268000BAF10001AAF1010ADDDC05E017F8010B3F
:102690005A46179990476D1CB8F10001A8F101083E
:1026A000F4DC5B462146179A0598ABE62D00000046
:1026B0002B000000200000002DE9F0410446002519
:1026C0001E461746880404D405E039462020B0474A
:1026D0006D1C641EF9D52846BDE8F0812DE9F04156
:1026E000044600251E469046C80301D5302700E069
:1026F0002027880404D505E041463846B0476D1CC4
:10270000641EF9D52846BDE8F081000004460D4658
:1027100004E02A46214602A0FFF77EFBF9E700000D
:1027200057726F6E6720706172616D657465727348
:102730002076616C75653A2066696C65202573208A
:102740006F6E206C696E652025640D0A0000000024
:1027500010B54FF44070FEF77BFD00F0FFF800F07D
:10276000C5F800F001F810BD10B500F055F800F004
:1027700001F810BD08B501214FF49A70FEF7ECFD89
:1027800003208DF8020004208DF80300C002ADF88C
:10279000000069461C48FEF7A9F90120ADF80000C9
:1027A00069461A48FEF7A2F94FF48070ADF80000B0
:1027B00069461748FEF79AF94FF40040ADF800005B
:1027C00069461348FEF792F90820ADF80000694603
:1027D0001048FEF78BF94FF48040ADF800006946D1
:1027E0000B48FEF783F94FF40050ADF8000069463E
:1027F0000748FEF77BF98020ADF8000069460448E1
:10280000FEF774F908BD0000001001400008014007
:1028100000200140001401400021284A9172D17229
:102820001173002018E06421254A02EB0012118187
:102830000221234A02EB001211710021204A02EB0F
:10284000001291721E4A02EB0012D1721C4A02EB76
:1028500000121173411CC8B20A28E4DB6422184933
:102860000A87052281F83B206422A1F8482005222E
:1028700081F84B206422A1F85820052281F85B20C2
:102880006422A1F86820052281F86B200D490C4ACA
:1028900011600D4911610D4911620D4911630D4916
:1028A00011640D4911650D4911660D4911670D49F6
:1028B000C2F880100C49C2F8901070477C230020A9
:1028C000DC220020E90F00085110000885100008E4
:1028D000B9100008D1100008E91000080111000823
:1028E00019110008311100081D10000808B5012158
:1028F0008020FEF731FD012000F038F8022000F0C2
:1029000035F8032000F032F8042000F02FF80320FF
:102910008DF8020010208DF80300C001ADF8000012
:1029200069460D48FEF7E2F88020ADF800006946E0
:102930000948FEF7DBF84FF48070ADF800006946F7
:102940000548FEF7D3F84FF40070ADF80000694673
:102950000148FEF7CBF808BD001C014010B5FFF799
:10296000FDF9FEF765FAFEF791F810BD411EC8B2F9
:1029700020B94FF400610B4A116011E0012803D126
:102980008021084A11600BE0022803D1C101054AE9
:10299000116005E0032803D14FF40071014A116072
:1029A00070470000101C0140012806D11049096839
:1029B00081F400610E4A116019E0022806D10C4929
:1029C000096881F080010A4A116010E0032806D1ED
:1029D0000749096881F48071054A116007E00428FD
:1029E00005D10349096881F40071014A11607047FB
:1029F0000C1C014008B501210420FEF7ADFC80202D
:102A0000ADF8000010208DF8030001208DF80200C1
:102A100069460848FEF76AF8002280210548FEF75B
:102A200051F9C82002F0CCF8012280210148FEF7BC
:102A300049F908BD0008014010B50648007838B9CA
:102A4000FFF7D8FF01200349087003A0FFF7E4F95E
:102A500010BD00009C0000205B42545F4452495668
:102A600045525D2062745F64726976657220696E9A
:102A700069740D0A0000000070B504460025454841
:102A80000088062807D2434801880088401C414A34
:102A90001080414844544148007830B101280CD09E
:102AA000022824D0032871D148E0022C01D0042C44
:102AB00002D101203949087069E03948006800787E
:102AC000022807D133480088052803D30220334960
:102AD00008700BE0324800680078042806D12D48C1
:102AE0000088032802D302202C4908704FE02D48AB
:102AF0000088401C2B49088029480068007802287B
:102B00000AD127480068B0F803000988884203DC2E
:102B100003202249087010E021480068007804284A
:102B20000AD11F48006880781E490988884203DC62
:102B300003201A49087000E029E000BF1848006827
:102B40000078022806D116480068B0F80300401D3E
:102B500085B208E0124800680078042803D11048C4
:102B600000688078C51C00222946012000F074FE10
:102B700006220021084800F085FC00200749087063
:102B8000044908800749088001E0FFE700BF00BF53
:102B900070BD0000A40000209E0000209D000020C9
:102BA000A8000020AC00002070B5044600250026D7
:102BB000211D012000F0DAFA051D05B103E06E21A8
:102BC0000BA0FFF7A3FD22462946012001F08EF855
:102BD0000646A64200D103E0712105A0FFF796FD4D
:102BE000291F02220E480068183000F05BFA70BD01
:102BF0002E2E5C2E2E5C4D6964646C657761726567
:102C00005C626C75655F616E67656C5C6472697649
:102C100065725C62745F6472697665722E6300002F
:102C20008C0000202DE9F84304460E463148009000
:102C30004FF00008012C00DA03E0C1212EA0FFF7BD
:102C400065FD04EB4400394951F82000B04207D833
:102C500004EB440001EB80004068B04200D303E085
:102C6000C22125A0FFF752FD351F286820F0404003
:102C70002844071D01212868B1EB907F01D100BFD6
:102C800003E0C5211CA0FFF741FD04226946384638
:102C900000F053FA00B903E0C62117A0FFF736FD94
:102CA000286820F04040286001F0B0FE04EB4401A9
:102CB0001E4A02EB810101F1080032461C4900F076
:102CC00025FA8046B8F1000F0BD104EB4401174AF6
:102CD00002EB810101F108000222314600F0E2F925
:102CE00003E0CE2104A0FFF711FD01F0B1FEBDE825
:102CF000F8830000CDABCDAB2E2E5C2E2E5C4D6943
:102D000064646C65776172655C626C75655F616E49
:102D100067656C5C7372635C636F6D6D6F6E5C6234
:102D2000745F6D656D6F72792E63000018810020ED
:102D3000253000082DE9F04704460D461646244884
:102D400030F814000830B6FBF0F90027B846BA4650
:102D50001DB116B1012C00DA03E098211DA0FFF788
:102D6000D5FC01F053FE04EB4400274941F8205004
:102D7000A81904EB4401244A02EB810148600027B2
:102D800020E0134830F81400083007FB00581048C2
:102D900030F81400C8F800000D4830F81400404422
:102DA00000F1040A1948CAF8000004EB4401164A6D
:102DB00002EB810101F10800022208F1040100F098
:102DC00071F97F1C4F45DCD301F042FEBDE8F0876E
:102DD0001E5C00082E2E5C2E2E5C4D6964646C65B2
:102DE000776172655C626C75655F616E67656C5C6E
:102DF0007372635C636F6D6D6F6E5C62745F6D6543
:102E00006D6F72792E63000018810020CDABCDABC1
:102E10000146002070472DE9F041044601266778FD
:102E20007507132F0ED004DC0E2F07D00F2F0CD1F7
:102E300007E03E2F07D0FF2F07D105E0A08805430C
:102E400006E005E004E000BF02E045F4803500BF85
:102E500000BF2146284600F0FBFD06463046BDE88F
:102E6000F08100002DE9F84F82460E4617464FF0DC
:102E7000000B0025A846002400200090BAF1000FA6
:102E800009D13078012801D1814612E0307802283A
:102E90000FD181460DE0BAF1010F0AD13078022836
:102EA00002D14FF0040904E03078042801D14FF03A
:102EB0000809761C781E87B2B81D1FFA80FB594698
:102EC000002000F053F9044604B103E0292123A0B7
:102ED000FFF71CFCF5222846691C8DB222545A22A9
:102EE0002846691C8DB222542846691C8DB204F80C
:102EF00000902846691C8DB227543A0A2846691C5E
:102F00008DB222544FF0000808E016F80800605512
:102F1000681C85B208F101001FFA80F8B845F4DB9F
:102F20004FF0000809E014F8081000980844C0B2F7
:102F3000009008F101001FFA80F8ABF10100404554
:102F4000F1DC009860555A462146022000F031FF1E
:102F50002146002000F0CAF9BDE8F88F2E2E5C2E25
:102F60002E5C4D6964646C65776172655C626C753A
:102F7000655F616E67656C5C706C6174666F726DC5
:102F80005C62745F6C6F672E6300000010B50024F4
:102F900025E0012115480068183000F04BF8041DA9
:102FA000207802280BD1B4F80300401D82B22146DC
:102FB0000120FFF757FF2046FFF72AFF0BE020789C
:102FC000042808D1A078C21C21460120FFF74AFF3F
:102FD0002046FFF720FF211F012000F087F903485A
:102FE000006880690028D4D110BD00008C0000204A
:102FF00010B54FF480520849002000F0D3F94FF487
:1030000080520649012000F0CDF94FF48C7204493A
:103010000020FFF78FFE10BDDC020020DC12002034
:10302000C401002002461068884201D10120704787
:103030000020FCE72DE9F04105460F462E46346896
:1030400005B103E01C2109A0FFF760FB5CB1022F72
:1030500005D101E02646246820680028FAD12068BE
:103060003060002020602046BDE8F0812E2E5C2ECE
:103070002E5C4D6964646C65776172655C626C7529
:10308000655F616E67656C5C7372635C636F6D6DC9
:103090006F6E5C62745F6C696E6B6E6F64652E63DD
:1030A000000000002DE9F04105460E4617462C466B
:1030B00005B103E00E2107A0FFF728FB022F04D182
:1030C00000E0246820680028FBD12068306026607A
:1030D000BDE8F0812E2E5C2E2E5C4D6964646C651B
:1030E000776172655C626C75655F616E67656C5C6B
:1030F0007372635C636F6D6D6F6E5C62745F6C693D
:103100006E6B6E6F64652E63000000002DE9F04168
:1031100005460F4616462C460BE031462046B8477A
:1031200010B12046BDE8F0812468AC4201D10020F6
:10313000F8E7002CF1D10020F4E770B504460D4605
:103140001646324629462046FDF791F808B101207F
:1031500070BD0020FCE770B504460D4616463246A9
:1031600029462046FDF758F870BD00002DE9F041D2
:1031700006460D464FF00008002400272946304639
:1031800000F064F968B9304600F06CF8264850F851
:10319000260030B9472125A0FFF7B8FA0020BDE886
:1031A000F0812D1DE81C20F0030501F02FFC1E48C6
:1031B00050F8264004B103E050211CA0FFF7A6FA06
:1031C000206820F04040401B08280FD3201D4119E3
:1031D000154840F826102068401B001F20F0404092
:1031E000114951F8261008602F4606E000210E48CC
:1031F00040F82610206820F0404701F029FC3A1FD3
:103200000021201D00F03EF927F0404040F08040B2
:103210002060211D3944081F04221149FFF79BFF3C
:1032200004F104084046BAE7FC8000202E2E5C2EF4
:103230002E5C4D6964646C65776172655C626C7567
:10324000655F616E67656C5C7372635C636F6D6D07
:103250006F6E5C62745F6D656D6F72792E630000D6
:10326000880000202DE9F04104461F4850F8245002
:10327000002601F0CBFB00BF2868870FFFB90EB90D
:103280002E4606E0306829680844001D20F04040C2
:1032900030601548083050F8240058B1306820F0EC
:1032A00040411148083050F82400006820F04040A8
:1032B000814205D90C48083040F8246000E000261F
:1032C000286820F040402844051D074850F8240095
:1032D000291A0548103050F824008142CCD301F05F
:1032E000B7FBBDE8F0810000F48000202DE9F0413B
:1032F00005460E4600240027341F206820F0404178
:10330000201D0844071F042217493846FFF715FF00
:1033100000B903E06C2115A0FFF7F8F9012120683E
:10332000B1EB907F00D103E06D2110A0FFF7EEF923
:103330001B4850F82510103050F82500084421682B
:1033400021F040413144884200D303E06E2107A0C0
:10335000FFF7DCF9206820F0404020602846FFF7A6
:1033600081FFBDE8F0810000880000202E2E5C2E39
:103370002E5C4D6964646C65776172655C626C7526
:10338000655F616E67656C5C7372635C636F6D6DC6
:103390006F6E5C62745F6D656D6F72792E63000095
:1033A000F480002070B504460E46154617480068A4
:1033B00000B103E0222116A0FFF7A8F905F00300F1
:1033C00010B9082D00D303E0232111A0FFF79EF9C7
:1033D00001F01CFB1B4840F82450103840F82460D2
:1033E00050F82410083040F8241001F031FB711916
:1033F000081F04221449FFF7AEFE281F20F04040AA
:103400001049103951F82410086070BD8C0000205C
:103410002E2E5C2E2E5C4D6964646C65776172653E
:103420005C626C75655F616E67656C5C7372635C32
:10343000636F6D6D6F6E5C62745F6D656D6F7279D9
:103440002E630000048100208800002070B504462F
:103450000E46361D01F0DAFA094850F8240048B14A
:10346000074850F82400006820F04040B04201D9DD
:10347000012500E0002501F0EBFA284670BD0000B0
:10348000FC80002070B506460C46154622462946AB
:103490003046FCF7D3FE70BD10B5042001F07EFD70
:1034A00010BD10B503220021012001F09BFD10BDCD
:1034B000012080F3108800BF7047002080F310883F
:1034C00000BF704710B502F059F910BD10B50446A1
:1034D00002F044F9012800D110BD204601F0DFFFC1
:1034E00000BFF9E710B5044602F038F9012800D111
:1034F00010BD00231A461946204601F08FFE00BF7A
:10350000F6E738B5044602F029F9012800D138BDA4
:103510006946204601F079FF00BFF8E708B50C487E
:10352000006898B90B4800231A464FF6FF710090C7
:1035300009A002F0D7FA064908600846006808B1F9
:1035400000BF03E0222107A0FFF7E0F808BD00005C
:1035500094000020D937000842545F54696D6572A9
:10356000000000002E2E5C2E2E5C4D6964646C659C
:10357000776172655C626C75655F616E67656C5CD6
:10358000706C6174666F726D5C72746F735C627480
:103590005F6F735F6C617965725F6170692E630044
:1035A00004480068C0F3090109B9002070470120F0
:1035B000FCE7000004ED00E010B50848006800B129
:1035C00003E0302106A0FFF7A1F80448006802F0EC
:1035D00011FB08B1012010BD0020FCE79400002081
:1035E0002E2E5C2E2E5C4D6964646C65776172656D
:1035F0005C626C75655F616E67656C5C706C617454
:10360000666F726D5C72746F735C62745F6F735F10
:103610006C617965725F6170692E630010B5044654
:1036200004B103E01A2103A0FFF770F8104804600A
:1036300010BD00002E2E5C2E2E5C4D6964646C65FE
:10364000776172655C626C75655F616E67656C5C05
:10365000706C6174666F726D5C72746F735C6274AF
:103660005F6F735F6C617965725F6170692E630073
:1036700098000020F8B5044625461748006800B1B8
:1036800003E03B2115A0FFF741F8FFF795FF08B1D4
:1036900000F042F8002003462A46042100900E481C
:1036A000006802F06DFA00B103E03F210BA0FFF7C4
:1036B0002DF802F063F80646002003463246022148
:1036C00000900548006802F05BFA00B103E0402179
:1036D00002A0FFF71BF8F8BD940000202E2E5C2EF0
:1036E0002E5C4D6964646C65776172655C626C75B3
:1036F000655F616E67656C5C706C6174666F726D3E
:103700005C72746F735C62745F6F735F6C61796518
:10371000725F6170692E630008B50948006800B1E6
:1037200003E0452107A0FEF7F1FF00200346024613
:10373000032100900248006802F022FA08BD000050
:10374000940000202E2E5C2E2E5C4D6964646C6506
:10375000776172655C626C75655F616E67656C5CF4
:10376000706C6174666F726D5C72746F735C62749E
:103770005F6F735F6C617965725F6170692E630062
:1037800010B5044601F0EAFF012800D110BD4FF04A
:10379000FF31204601F0E4FE00BFF7E770B50546B3
:1037A0000C4601F0DBFF012800D170BD002322464A
:1037B0001946284601F049FC00BFF6E738B5044633
:1037C00001F0CCFF012800D138BD6A460021204617
:1037D00001F082FE00BFF7E710B504460348006819
:1037E00010B102480068804710BD0000980000201A
:1037F0001CB50024002000900190FFF759FE1448EA
:1038000004680822011D6846FFF7A5FC0020104946
:103810000860082200210E48001DFFF733FEFFF765
:103820004CFE0C480068FFF7ABFF04F0010008B144
:1038300000F036F904F0020028B1BDF80200FFF7ED
:10384000B3F9FFF7A3FB03480068FFF73FFE1CBD79
:1038500024810020B000002070B504460D461646B5
:10386000042C00D203E048210BA0FEF74FFFFFF726
:103870001FFE164800680121A14008431349086053
:10388000081D20F81450083040F82460FFF715FE9A
:1038900000F066F870BD00002E2E5C2E2E5C4D6987
:1038A00064646C65776172655C626C75655F616E9E
:1038B00067656C5C706C6174666F726D5C62745F7E
:1038C000706C6174666F726D2E630000248100203D
:1038D00010B5FFF7B1F8FFF721FE1148FFF79EFE84
:1038E0001048006858B9FFF7D7FD0E490860084630
:1038F000006800B103E05D210BA0FEF707FF174849
:10390000006858B9FFF7CDFD144908600846006803
:1039100000B103E0612104A0FEF7F8FE10BD000035
:10392000013C0008B00000202E2E5C2E2E5C4D695C
:1039300064646C65776172655C626C75655F616E0D
:1039400067656C5C706C6174666F726D5C62745FED
:10395000706C6174666F726D2E630000B40000209D
:1039600010B50A48006800B103E0222108A0FEF764
:10397000CDFEFFF715FE20B104480068FFF7C1FD3A
:1039800003E002480068FFF7ADFD10BDB400002061
:103990002E2E5C2E2E5C4D6964646C6577617265B9
:1039A0005C626C75655F616E67656C5C706C6174A0
:1039B000666F726D5C62745F706C6174666F726D5D
:1039C0002E63000010B5FFF7EBFD20B1054800683D
:1039D000FFF7F4FE05E04FF0FF3102480068FFF703
:1039E000DDFE10BDB4000020F1B500260027002543
:1039F0006A4614491448FFF789FB04460CB913487A
:103A0000F8BD01212046FFF715FB06460E4884420B
:103A100011D100F0F1F80C48006860B100F0E2F854
:103A2000074609480068C068C51B002D00DA00255C
:103A3000284600F0DBF831460020FFF7F3F80120BC
:103A4000DEE70000593B0008900000200100001054
:103A5000F0B585B004460D46012714216846FCF7F1
:103A6000F4FB0026204600F0ABF8064616B90B48DA
:103A700005B0F0BD142231466846FFF76CFB2046C6
:103A8000FFF7B2FF049838B12B4621460020DDF83D
:103A900010C0029AE04707463846E9E701000010E7
:103AA0002DE9F04186B0002500F09CF8064600277D
:103AB00000200590002414216846FCF7C6FB254C25
:103AC00011E0256875B1E868B0420BD801212046A5
:103AD000FFF7B0FA80460222414605A8FFF7E2FA56
:103AE0001C4C00E02468002CEBD1059810B906B0FE
:103AF000BDE8F08116E0059D142229466846FFF7CF
:103B00002AFB049830B100230120DDF810C0DDE964
:103B10000112E047012105A8FFF78CFA2946002091
:103B2000FFF780F805980028E5D10A48006870B1D1
:103B300000F062F800F056F8064606480068C068D3
:103B4000871B002F00DA0027384600F04FF800BF2F
:103B5000CDE70000900000202DE9F04104460D461D
:103B6000002600270CB105B103E0172107A0FEF7DE
:103B7000CDFD266816B90120BDE8F0812F68706878
:103B8000B84201D10120F7E70020F5E72E2E5C2E88
:103B90002E5C4D6964646C65776172655C626C75FE
:103BA000655F616E67656C5C7372635C636F6D6D9E
:103BB0006F6E5C62745F74696D65722E63000000E5
:103BC00031B500246A4605490548FFF79FFA0446C7
:103BD0000CB1206838BD0020FCE70000593B00080C
:103BE0009000002010B5FFF76DFC10BD10B5044625
:103BF0002046FFF73FFD10BD10B5FFF78DFD10BD4E
:103C000010B5002211461046FFF726FE10BD70B514
:103C10000546002400262C680EE0E06810B1E0683C
:103C200000F066F9A06810B1A06800F061F9A6691B
:103C3000204600F05DF93446002CEED100202860CB
:103C400070BD70B5044600250026A56807E02E6902
:103C5000284600F010F8284600F04AF93546002DB5
:103C6000F5D1206810B1206800F042F900202060F2
:103C7000A060E06170BD10B50446206810B12068F6
:103C800000F036F90020206010BD70B50446002514
:103C90000026A56807E02E6A2846FFF7D2FF2846CF
:103CA00000F026F93546002DF5D10020A0602060F7
:103CB000606070BD70B504460D4600206063A0636F
:103CC000E06320646064A064E064206560650021B6
:103CD000A165E165286810B12846FFF798FF00202C
:103CE0000149086070BD00008C0100202DE9F047FB
:103CF0008246884616465046FCF7ACFE044614B988
:103D00000020BDE8F087678B0FB90020F9E7B742C4
:103D100025DA208BE18A884214DDE089218B401A64
:103D200085B2781B1FFA80F9228BA06881182A4679
:103D30004046FCF771FA08EB05004A46A168FCF71B
:103D40006BFA06E0228BA06881183A464046FCF7E1
:103D500063FAE08A2083002060833846D1E7208B15
:103D6000E18A884216DDE089218B401A85B2701BFA
:103D70001FFA80F9228BA06881182A464046FCF77A
:103D80004BFA08EB05004A46A168FCF745FAA4F88F
:103D9000189009E0228BA068811832464046FCF753
:103DA0003BFA208B30442083608B801B608330463D
:103DB000A7E72DE9F04105460E4617462846FCF7D1
:103DC00049FE04460CB9BDE8F081E06908B1E0693C
:103DD00080473A4631462046FDF793FF00BFF2E7A1
:103DE00013B50446012201A92046FFF7E2FF1CBDDE
:103DF0002DE9F04705460E4617469846DDF8209017
:103E0000302000F0D7F8044604B32846FCF728FA1F
:103E100000F1010A504600F0CDF82060206888B11A
:103E200029462068FCF730FA01206060E6602761CF
:103E3000C4F81480C4F818900020A060206260626A
:103E4000E06103E0204600F053F800242046BDE87E
:103E5000F087000010B50024FCF7B0FD20B10EA0E3
:103E6000FDF7DAFF012010BD1648006858B900229E
:103E7000114615A0FCF710FD1249086008460068BD
:103E800008B90120EFE70220FCF74CFD2046FCF7C3
:103E9000DBFD0020E7E700000A496E697469616C88
:103EA000697A6174696F6E206F662054657374203F
:103EB0005265676973747279206661696C65642EF6
:103EC0000D0A0000B401002073756974655F666FA8
:103ED000725F74657374000000BF704770B504466C
:103EE0000D46E1B20020FFF77BFF204670BD0000C9
:103EF00010B5002821D0114B0022001F196803E0E3
:103F0000814203D80A4649680029F9D152B11368A1
:103F1000841A9C4204D1006818441060104602E0E4
:103F2000506000E0186039B102680B1A934203D167
:103F30000B681A4402604968416010BDBC01002052
:103F400001462C22002902DA064800687047914297
:103F500003DD044850F82200F8E7024850F8210039
:103F6000F4E70000C40000200022826800230B62F6
:103F700003685B1C03601AB9816000234B6207E091
:103F800001E0126A00BF136A002BFAD111624A6283
:103F90007047012080F3108800BFFEF7D9FBFFF7C0
:103FA00027F8FFF757FFFCF743FC00F023FF00BFA3
:103FB000FEE70000F0B50B30154D20F0070100249E
:103FC000144A0FE003688B420BD38B4205D95E1A6B
:103FD00043184768C3E9006700E04368136002C004
:103FE00004E0021D10680028ECD12046002802D110
:103FF000286808B10020F0BD064A07481060074A4B
:10400000121A22F00702C0E9002401202860D7E735
:10401000C0010020BC010020A4810020A089002054
:1040200010B504460E48006844600E48006884429B
:1040300007D20B480168091D0B48006800F0C0FC5E
:104040000CE007480168091D0848006800F0B8FC4A
:1040500007480068844201D20548046010BD000092
:104060001C00002030000020240000202000002040
:104070004C0000202DE9F04106460F461FB9B00064
:1040800000F0B4FB00E03846054655B1542000F07E
:10409000ADFB04460CB1256304E0284600F0EEFCBD
:1040A00000E000242046BDE8F081000010B500F0DB
:1040B000ADFC10480068C8B90F4800F071FC0F480B
:1040C00000F06EFC0C480E4908600C480D49086071
:1040D00000220C210A2000F085FF064908600846EE
:1040E000006818B9FCF772F800BFFEE700F0B0FCFA
:1040F00010BD00005C000020CC3C0020E03C002013
:10410000540000205800002070B523E000F0A6FE07
:104110001348006808B9012000E00020054601F0BE
:104120006DFCBDB900F072FC0D48C068C468201D6C
:1041300000F01AFC0B480068401E0A4908600A4853
:104140000068401E0849086000F082FC204600F02C
:1041500062F800BF044800680028D7D170BD000095
:10416000A43C00202C0000202800002070B504464C
:104170000D46206C70B1216CE0680844E060616815
:10418000E068884201D32068E0602846226CE1683C
:10419000FCF742F870BD2DE9F04104460E46154685
:1041A0000027206C40B9206878BB606801F08AFB6A
:1041B00007460020606028E07DB93146226CA06887
:1041C000FCF72AF8216CA0680844A060D4E901102B
:1041D00088421AD32068A06017E03146226CE0685C
:1041E000FCF71AF8216CE068401AE0602168E0688A
:1041F000884203D2216C6068401AE060022D04D12D
:10420000A06B10B1A06B401EA063A06B401CA0630C
:104210003846BDE8F08110B50446206B00F02EFC56
:10422000204600F02BFC10BD0146084A12681268B7
:104230000AB9012200E000220A600A6822B9034A92
:104240001268D268106800E0002070475400002017
:1042500030B54FF48843174800F007042CB1C01D57
:1042600020F00700134C041B1B1B0246124C22605B
:104270000024114D6C60D018083820F007000F4C56
:10428000206000240D4D2D686C600C4D2D682C6055
:104290001146441A4C60094C24680C60084D4C6867
:1042A0002C60084D4C682C604FF00044064D2C608B
:1042B00030BD0000F43C0020700000207800002099
:1042C000800000207C0000208400002000BFFFF759
:1042D0001BFF034800680128F9D900F043FCF6E70A
:1042E000043C00202DE9F04704460F461546994648
:1042F000DDF82080002607E0B95D04F13400815527
:10430000B85D00B902E0761C102EF5D300BF002185
:1043100043200155052D00D30425E5626564002086
:10432000A064201D00F049FB04F1180000F045FBDB
:104330002461C5F10500A06164620020E06484F896
:104340005000BDE8F087000010B5002407E004EB42
:1043500084010F4A02EB810000F022FB641C052C53
:10436000F5D30C4800F01CFB0B4800F019FB0B4880
:1043700000F016FB0A4800F013FB0A4800F010FB9F
:1043800004480949086004480849086010BD000055
:10439000043C0020683C00207C3C0020903C002035
:1043A000A43C0020B83C0020200000202400002075
:1043B00010B50146164800E0006803688B42FBD345
:1043C0000246436813448B4204D143684C6823443B
:1043D000436001460A464B6813440468A34211D166
:1043E0000C4C03682468A34208D04B6804686468D6
:1043F00023444B6003681B680B6005E0054B1B689A
:104400000B6001E003680B60884200D0016010BDC2
:1044100070000020780000202DE9F04104460D4690
:1044200016461F464FF0000865602461B5420CD85F
:10443000F01BA169884202D34FF0010811E0211D51
:104440000948006800F0BCFA0BE0BE4204D2BD424D
:1044500002D34FF0010804E0211D0448006800F079
:10446000AFFA4046BDE8F08158000020540000201B
:1044700070B5054600F0CAFAA86B08B9012400E03F
:10448000002400F0E5FA204670BD70B5054600F046
:10449000BDFAA86BE96B884201D1012400E0002439
:1044A00000F0D6FA204670BDF8B505460F46134811
:1044B0000068C068C468201D00F056FAE069012851
:1044C00017D1A06941192B463A462046FFF7A4FFB1
:1044D00001280ED1002003462A46014600902046BE
:1044E00001F04EFB06461EB9FBF770FE00BFFEE76B
:1044F00000BF2046616A8847F8BD000054000020D4
:1045000070B586B05DE0039800285ADB059C6069B1
:1045100008B9012000E0002010B9201D00F024FAA5
:1045200002A800F0A7F8054603980A2847D2DFE85A
:1045300000F00905072B2D4206082C2E00BF00BFF6
:1045400000BF00BF0498A269811803462A4620468E
:10455000FFF762FF012816D12046616A8847E069AB
:10456000012810D1002000900498A169421800236E
:104570001946204601F004FB06461EB9FBF726FE4D
:1045800000BFFEE700BF1BE000BF19E000BF0498BA
:10459000A061A06908B1012000E0002018B9FBF774
:1045A00015FE00BFFEE7A06941192B462A462046AA
:1045B000FFF732FF04E0204600F060FA00E000BFA1
:1045C00000BF00231A4603A90348006800F03DFD20
:1045D000002898D106B070BD5C000020F8B50546F3
:1045E0000C4600F03BFC684600F044F80646009894
:1045F000F0B944B9B54206D801F000FA3146284670
:10460000FFF752FF16E03CB10B480068006808B99C
:10461000012000E000200446A91B2246074800684C
:1046200000F0ACFA01F0EAF920B900F09BFA01E0E1
:1046300001F0E4F9F8BD0000580000205C00002003
:104640000A490968096809B9012100E0002121B17E
:104650004FF0FF31064A116006E004490968C96855
:10466000C868034A416811607047000020000020BC
:104670004C00002070B5044601F080F8054607485C
:104680000068854204D200F00BF80120206001E0B0
:104690000020206001480560284670BD60000020B1
:1046A0002DE9F8432BE020480068C06805681E48E3
:1046B0000068C068C468201D00F056F92046616A91
:1046C0008847E06901281AD1A0694619AE4207D986
:1046D00066602461211D1448006800F071F90EE045
:1046E000002003462A4601460090204601F048FA81
:1046F00007461FB9FBF76AFD00BFFEE700BF0A4887
:104700000068006808B9012000E000200028CAD035
:104710000548D0F800800548006803490860034850
:10472000C0F80080BDE8F883540000205800002045
:1047300007480068401C08B9012000E0002018B9B3
:10474000FBF744FD00BFFEE7FBF740FD00BFFEE7BF
:104750006400002008B500BF6846FFF765FD044609
:1047600020460099FFF73AFFFFF7CAFEF4E710B5BD
:10477000044600F04BF911E0606A08B9012000E03E
:10478000002038B904F1240001F0F2F818B100F06B
:104790004FFA00E005E0A06C401EA064A06C002869
:1047A000EADC00BF4FF0FF30A06400F051F900F0E8
:1047B0002DF911E0206908B9012000E0002050B96E
:1047C00004F1100001F0D4F808B100F031FA606C87
:1047D000401E606400E002E0606C0028EADC00BF7C
:1047E0004FF0FF30606400F033F910BD2DE9F04167
:1047F00004464FF0000800F031FB3C48006808B95F
:10480000FFF726FD3A480068204000285DD19CB1A2
:10481000083404F0070078B104F00700C0F1080084
:10482000044404F0070008B9012000E0002018B992
:10483000FBF7CCFC00BFFEE7002C46D02D480068FB
:10484000844242D82C4E3046056801E02E462D6841
:104850006868A04202D228680028F7D1234800687F
:10486000854232D0306800F10808286830606868F6
:10487000001B102812D92F1907F0070008B90120D2
:1048800000E0002018B9FBF7A1FC00BFFEE7686854
:10489000001B78606C603846FFF78AFD1549686830
:1048A0000968081A1349086008460068134909682E
:1048B000884203D20F480068104908600C496868B4
:1048C0000968084368600020286001F097F808F044
:1048D000070008B9012000E0002018B9FBF776FCBA
:1048E00000BFFEE74046BDE8F081000078000020F0
:1048F000840000207C000020700000208000002048
:104900000648006830B10549096801F14800896C22
:10491000491C016001480068704700001C0000202D
:10492000001F4FF080730360001F0160001F034BE6
:1049300003601438026020387047000031470008D7
:1049400070B505460E460024AC6809E0206830B119
:1049500030462168FCF702F808B9012070BD246ACE
:10496000002CF3D10020F9E701460A69D1E90130B2
:104970009860D1E9010358605068884201D1886885
:104980005060002008611068401E10601068704779
:10499000FEF79EFF03E0FFF715F8FEF729FFFAE7A1
:1049A00000F1080141604FF0FF31816000F1080122
:1049B000C160016100210160704700210161704701
:1049C00010B502460B685C1C0CB9106907E002F1D7
:1049D000080000E04068446824689C42FAD94468B2
:1049E0004C604C68A160886041600A611468641C76
:1049F000146010BD42684A6093688B609368596088
:104A00009160086103685B1C0360704710B5FBF799
:104A1000DDFB0D480068401C0B490860BFF34F8F59
:104A2000BFF36F8F0846006801280BD10748006864
:104A3000C0B208B9012000E0002018B9FBF7C6FB9E
:104A400000BFFEE710BD00006400002004ED00E0A0
:104A500010B50948006818B9FBF7B8FB00BFFEE7BE
:104A600005480068401E044908600846006810B9FF
:104A70000020FBF7B2FB10BD6400002070B50646B5
:104A80003546002E31D0083D2C461849606809682B
:104A9000084008B1012000E0002018B9FBF796FBA0
:104AA00000BFFEE7206808B9012000E0002018B927
:104AB000FBF78CFB00BFFEE70C4960680968084003
:104AC00098B1206888B909496068096888436060BE
:104AD00000F0C4F9064960680968084404490860A0
:104AE0002046FFF765FC00F089FF70BD84000020C0
:104AF0007C00002003484FF0E02148610720086156
:104B0000704700003F19010070B5FBF769FB0546CF
:104B1000102D0FD305F1E02090F8F0430E480078F7
:104B2000844201DB012000E0002018B9FBF74EFBB6
:104B300000BFFEE70948006800F4E0600849096822
:104B4000884201D8012000E0002018B9FBF73EFBA5
:104B500000BFFEE770BD0000680000200CED00E023
:104B60006C0000204FF0805003490860BFF34F8F66
:104B7000BFF36F8F7047000004ED00E02DE9F041B6
:104B800005460E4617462C46FFF740FF606C401C5A
:104B900008B900206064A06C401C08B90020A06423
:104BA000FFF756FFA06B28B93A46314604F12400BE
:104BB00000F07CF82046FFF7DAFDBDE8F081000048
:104BC00070B50446002634B31548006808B90120C2
:104BD00000E0002018B9FBF7F9FA00BFFEE700F08B
:104BE0003DF91048006805190F480068001DFFF7DF
:104BF000BBFE50B90C48006890F82C10012088408A
:104C00000A4909688143094801602846FFF708FA04
:104C100000F0F4FE06460EB9FFF7A4FF70BD0000D9
:104C200050000020300000201C0000203400002034
:104C300001200149086070474000002070B505461A
:104C40000C461DB9FBF7C2FA00BFFEE71348016826
:104C500018312846FFF7B4FE10480068001DFFF722
:104C600083FE50B90D48006890F82C100120884050
:104C70000B49096881430A480160601C30B9074844
:104C80000168091D0748FFF7B5FE05E00648006802
:104C900006193046FFF7C4F970BD00001C00002063
:104CA00034000020B83C0020300000202DE9F04105
:104CB00004460D4616461CB9FBF788FA00BFFEE70E
:104CC0001348016818312046FFF794FE1048006829
:104CD000001DFFF749FE50B90D48006890F82C10F0
:104CE000012088400B49096881430A480160012E70
:104CF00006D107480168091D0748FFF77BFE05E05C
:104D00000648006847193846FFF78AF9BDE8F08180
:104D10001C00002034000020B83C0020300000209F
:104D200070B505462C46002D4BD02649E06A09682F
:104D3000C96A884245D2A06900F0004028B92148DC
:104D40000068C06AC0F10500A061E16A01EB810161
:104D50001D4A02EB81016069884201D1012000E017
:104D6000002050B3201DFFF7FFFD78B9E06A00EB8B
:104D70008000154951F8200040B994F82C1001200A
:104D80008840124909688143104801600D48006855
:104D9000C06AE06294F82C10012088400B49096831
:104DA00008430A490860E16A01EB8101064A02EB07
:104DB0008100211DFFF71EFE03E002480068C06A63
:104DC000E06270BD1C000020043C00203400002084
:104DD00010B504461CB9FBF7F9F900BFFEE703481C
:104DE0000068206002480068606010BD4400002038
:104DF000300000201FB50020009001900290034673
:104E0000802210A10390114800F008FC0446012CF8
:104E100002D100F08FFE0446012C0DD1FBF7D6F92C
:104E2000A01E0B49086001200A49086000200A49B9
:104E3000086000F063F804E01CB9FBF7C7F900BF95
:104E4000FEE71FBD49444C4500000000CD4200086C
:104E50004C0000203800002030000020024800688C
:104E6000401C0149086070475000002010B51A48E6
:104E7000006818B10120194908602BE0002017498B
:104E8000086017480068B0FA80F0C0F11F0404EB16
:104E90008400144951F8200008B1012000E00020EE
:104EA00018B9FBF793F900BFFEE704EB84010D4A44
:104EB00002EB810041684968416000F108014268E5
:104EC0008A4202D14168496841604168C968064A1E
:104ED000116000BF10BD0000500000204000002005
:104EE00034000020043C00201C00002005E00120CC
:104EF000FDF75AFD6420FFF763FEF8E71CB5224872
:104F0000014609780191FF21024611700146097896
:104F100000919DF8001001F010011C4A117007214A
:104F20001B4A116009E01A490968491E184A1160B4
:104F30009DF800104906090E00919DF8001001F03F
:104F400080018029EFD0124909680902104A1160D6
:104F50001146098801F4E06111600B4A0199117052
:104F60000C48006840F470000A4908600846006870
:104F700040F070400860FFF7BDFD00200649086062
:104F8000FBF7F2F800201CBD00E400E06800002000
:104F90006C00002020ED00E06400002070B50546A4
:104FA0004C20FFF723FC0446D4B100206060206051
:104FB000A060E060A0630120E06300202064401E48
:104FC0006064A06404F11000FFF7EAFC04F124001F
:104FD000FFF7E6FC00231A461946204600F01EF9AA
:104FE000204670BD2DE9F04706460D4691464FF02C
:104FF00000080EB1012000E0002018B9FBF7E6F828
:1050000000BFFEE70DB9002702E006FB05F0471CD4
:1050100007F14C00FFF7EAFB044664B10DB92460C8
:1050200002E004F14C002060E66325640121204683
:1050300000F0B8F8A046B8F1000F03D1FBF7C6F8AE
:1050400000BFFEE74046BDE8F0872DE9FF4383B08F
:1050500005460E461F464FF000092C461CB9FBF7CB
:10506000B5F800BFFEE70EB9206C08B9012000E0DA
:10507000002018B9FBF7AAF800BFFEE700F06EFBAE
:1050800008B9059808B9012000E0002018B9FBF71D
:105090009DF800BFFEE700BFFFF7B8FCA06B90B320
:1050A000D4F80C8031462046FFF760F8B7B9A06B02
:1050B000401EA063206810B9FFF722FC60602069E1
:1050C00008B9012000E00020B8B904F1100000F098
:1050D0004FFC012811D1FFF745FD0EE0C4F80C800C
:1050E000606A08B9012000E0002030B904F1240012
:1050F00000F03EFC08B1FFF735FDFFF7A9FC0120E9
:1051000007B0BDE8F083FFE7059818B9FFF7A0FCEA
:105110000020F5E7B9F1000F04D101A8FFF758FE10
:105120004FF00109FFF794FCFFF798FEFFF76EFCC4
:10513000606C401C08B900206064A06C401C08B979
:105140000020A064FFF784FC05A901A800F02CFA58
:1051500008BB2046FFF78CF9B8B1206830B9FFF7DB
:1051600055FC6068FFF7DCFDFFF772FC04F12400DA
:105170000599FFF763FD2046FFF7F9FA00F03EFCC2
:10518000002889D1FFF7EEFC86E72046FFF7EFFA0B
:1051900000F034FC80E72046FFF7E9FA00F02EFC2F
:1051A0000020ADE770B505460E462C461CB9FBF74E
:1051B0000DF800BFFEE7FFF729FCD4E90F122068C5
:1051C00001FB020060600020A0632068A060E06B2B
:1051D000401E226C216800FB0210E0604FF0FF309F
:1051E0006064A06476B9206908B9012000E000205D
:1051F00080B904F1100000F0BBFB01280AD1FFF7D1
:10520000B1FC07E004F11000FFF7CAFB04F1240031
:10521000FFF7C6FBFFF71CFC012070BD2DE9FF4323
:1052200083B0064688461D464FF0000934461CB937
:10523000FAF7CCFF00BFFEE7B8F1000F01D1206CF8
:1052400008B9012000E0002018B9FAF7BFFF00BF3D
:10525000FEE7022D02D1E06B012801D1012000E020
:10526000002018B9FAF7B2FF00BFFEE700F076FAA7
:1052700008B9059808B9012000E0002018B9FAF72C
:10528000A5FF00BFFEE700BFFFF7C0FBA06BE16B0F
:10529000884201D3022D1DD12A4641462046FEF701
:1052A0007AFF0746606A08B9012000E0002040B993
:1052B00004F1240000F05CFB012805D1FFF752FC4B
:1052C00002E00FB1FFF74EFCFFF7C2FB012007B071
:1052D000BDE8F083059818B9FFF7BAFB0020F6E7A0
:1052E000B9F1000F04D101A8FFF772FD4FF00109D9
:1052F000FFF7AEFBFFF7B2FDFFF788FB606C401CC9
:1053000008B900206064A06C401C08B90020A064AB
:10531000FFF79EFB05A901A800F046F9C0B9204699
:10532000FFF7B3F870B104F110000599FFF786FCA0
:105330002046FFF71CFA00F061FB0028A4D1FFF71C
:1053400011FCA1E72046FFF712FA00F057FB9BE79C
:105350002046FFF70CFA00F051FB0020B7E72DE9DB
:10536000F0470646894617461D4634461CB9FAF7EB
:105370002DFF00BFFEE7B9F1000F01D1206C08B985
:10538000012000E0002018B9FAF720FF00BFFEE777
:10539000022D02D1E06B012801D1012000E00020A4
:1053A00018B9FAF713FF00BFFEE7FFF7ADFBFAF7F6
:1053B0000DFF8246A06BE16B884201D3022D1CD108
:1053C0002A4649462046FEF7E6FEA06C401C70B90E
:1053D000606A08B9012000E0002058B904F12400F7
:1053E00000F0C6FA30B12FB10120386002E0A06CA5
:1053F000401CA0644FF0010801E04FF00008504647
:10540000FAF7EBFE4046BDE8F0872DE9F04105468E
:105410000E462C461CB9FAF7D9FE00BFFEE7206CF9
:1054200008B9012000E0002018B9FAF7CFFE00BF4C
:10543000FEE7206808B9606808B9012000E0002094
:1054400018B9FAF7C3FE00BFFEE7FFF75DFBFAF7F6
:10545000BDFE8046A06BE16B884219D2A06B401C58
:10546000A063A06C401C70B9606A08B9012000E01C
:10547000002058B904F1240000F07AFA30B12EB1BE
:105480000120306002E0A06C401CA064012700E015
:1054900000274046FAF7A1FE3846BDE8F08170B516
:1054A000064634461CB9FAF791FE00BFFEE700F04D
:1054B0004FF9616888420CD1E068401EE060E06806
:1054C00028B900231A4619462046FFF7A7FE0125F2
:1054D00000E00025284670BD2DE9F04705468846C6
:1054E00016462C461CB9FAF771FE00BFFEE7B8F16C
:1054F000000F01D1206C08B9012000E0002018B98C
:10550000FAF764FE00BFFEE7FFF7FEFAFAF75EFE69
:105510008146A06BE8B141462046FEF727FEA06B0E
:10552000401EA063606C401C70B9206908B901205E
:1055300000E0002058B904F1100000F019FA30B171
:105540002EB10120306002E0606C401C60640127D5
:1055500000E000274846FAF740FE3846BDE8F087ED
:105560002DE9F04106460F4634461CB9FAF72EFEE7
:1055700000BFFEE700F0ECF86168884204D1E06803
:10558000401CE06001250BE000233A461946204606
:10559000FFF75BFD0546012D02D1E068401CE0608D
:1055A0002846BDE8F08100002DE9F04104460D4693
:1055B0001CB9FAF70BFE00BFFEE71DB9FAF706FEAD
:1055C00000BFFEE7FFF722FA124807682868401C70
:1055D00008B9002619E0104920680968884204D0FB
:1055E0006068B84201D801260FE06068381A29685F
:1055F000884209D228686168791A401A28602046D2
:10560000FFF7E6FB002600E00126FFF721FA30460F
:10561000BDE8F08130000020440000202DE9FF4F5C
:1056200081B0804616469A46DDE90E5BB8F1000F60
:1056300003D1FAF7CBFD00BFFEE7052D01D2012013
:1056400000E0002018B9FAF7C1FD00BFFEE73046C0
:105650001099FEF70FFD0446002C5AD0701E216BE6
:1056600001EB800929F0070909F0070008B90120BA
:1056700000E0002018B9FAF7A9FD00BFFEE7009688
:105680002A462046119B0299FEF72CFE52464146BF
:105690004846FFF745F92060BBF1000F01D0CBF879
:1056A0000040FFF7B3F924480068401C2249086015
:1056B0002248006840B92148046008460068012873
:1056C0000CD1FEF741FE09E01D48006830B91B48C7
:1056D0000068C06AA84201D81848046019480068E8
:1056E000401C1849086094F82C1001208840164985
:1056F0000968084314490860E16A01EB8101134A13
:1057000002EB8100211DFFF775F90127FFF7A0F9D2
:1057100001E04FF0FF37012F09D10948006830B18F
:1057200006480068C06AA84201D2FFF71BFA384653
:1057300005B0BDE8F08F00002C0000201C00002008
:10574000380000204800002034000020043C0020E5
:1057500001490868704700001C00002005490968DD
:1057600009B9012005E00449096809B9022000E0EF
:1057700000207047380000205000002001490868D0
:1057800070470000300000202DE9F0414FF0000884
:1057900041480068002872D140480068401C3F49D9
:1057A000086008460668DEB93D480068006808B928
:1057B000012000E0002018B9FAF708FD00BFFEE75D
:1057C000374807683748006835490860354807603A
:1057D00035480068401C34490860FEF731FF00BFBF
:1057E0003248006886423CD300BF2D4800680068FC
:1057F00008B9012000E0002020B14FF0FF302B4914
:1058000008602DE026480068C068C4686568AE423C
:1058100002D22648056023E0201DFFF7A5F8A06A04
:1058200018B104F11800FFF79FF894F82C1001202C
:1058300088401F49096808431D490860E16A01EB77
:1058400081011C4A02EB8100211DFFF7D3F81A49A0
:10585000E06A0968C96A8842C7D34FF00108C4E703
:1058600000BF15480068C06A00EB8000114951F87C
:105870002000012808D94FF0010805E0FFE70F4894
:105880000068401C0D4908600D48006808B14FF0E1
:1058900001084046BDE8F0815000002030000020A3
:1058A0002000002024000020440000204C000020A4
:1058B00034000020043C00201C0000203C0000209C
:1058C0004000002070B505462C460026002D47D02C
:1058D00024480068844201D1012000E0002018B96A
:1058E000FAF774FC00BFFEE7A06C18B9FAF76EFC7B
:1058F00000BFFEE7A06C401EA064616CE06A8842B5
:105900002ED0A06C60BB201DFFF72EF878B9E06A9E
:1059100000EB8000144951F8200040B994F82C1095
:105920000120884011490968814310480160606C7A
:10593000E062E06AC0F10500A06194F82C1001203B
:1059400088400A490968084308490860E16A01EB90
:105950008101054A02EB8100211DFFF74BF801266A
:10596000304670BD1C000020043C002034000020A4
:1059700070B50646F068C4681CB9FAF727FC00BF8A
:10598000FEE704F11800FEF7EFFF16480068A8B91B
:10599000201DFEF7E9FF94F82C10012088401249E1
:1059A0000968084310490860E16A01EB81010F4A68
:1059B00002EB8100211DFFF71DF804E004F118013E
:1059C0000B48FFF717F80B49E06A0968C96A884273
:1059D00004D9012501200849086000E00025284677
:1059E00070BD00005000002034000020043C002066
:1059F000903C00201C0000204000002070B50025D5
:105A00003048006818B9FAF7E1FB00BFFEE7FEF77F
:105A1000FDFF2C480068401E2A49086008460068BF
:105A200000284BD128480068002847D024E02748A8
:105A3000C068C46804F11800FEF796FF201DFEF749
:105A400093FF94F82C1001208840214909680843ED
:105A50001F490860E16A01EB81011E4A02EB8100E7
:105A6000211DFEF7C7FF1C49E06A0968C96A884220
:105A700002D30120194908601448006808B90120C0
:105A800000E000200028D2D01548006878B10AE074
:105A9000FFF77AFE10B10120104908601048006835
:105AA000401E0F4908600E4800680028F0D10B48DE
:105AB0000068012802D10125FFF754F8FEF7C8FF5E
:105AC000284670BD500000202C000020903C002093
:105AD00034000020043C00201C0000204000002076
