:020000040800F2
:1000000098800020E9010008291F0008BD1C000895
:10001000251F0008ED080008E52A00080000000080
:100020000000000000000000000000004501000882
:10003000E31A0008000000008901000801230008FD
:10004000030200080302000803020008030200087C
:10005000030200080302000803020008030200086C
:10006000030200080302000803020008030200085C
:10007000030200080302000803020008030200084C
:10008000030200080302000803020008030200083C
:10009000030200080302000803020008030200082C
:1000A000030200080302000803020008030200081C
:1000B000030200080302000803020008030200080C
:1000C00003020008030200080302000803020008FC
:1000D000030200088123000803020008030200084D
:1000E00003020008030200080302000803020008DC
:1000F00003020008030200080302000803020008CC
:1001000003020008030200080302000803020008BB
:1001100003020008030200080302000803020008AB
:10012000030200080302000803020008030200089B
:10013000DFF80CD000F05AFB00480047854F00085C
:1001400098800020204B19680868B0E8F00F80F311
:100150000988BFF36F8F4FF0000080F311884EF0D5
:100160000D0E70470000000006480068006880F32C
:10017000088862B661B6BFF34F8FBFF36F8F00DFA1
:1001800000BF00BF08ED00E0EFF30980BFF36F8F01
:100190000D4B1A6820E9F00F106008B54FF0100001
:1001A00080F3118806F0CCF94FF0000080F311883D
:1001B000BDE8084019680868B0E8F00F80F30988C6
:1001C000BFF36F8F704700BF1C000020EFF311805A
:1001D0004FF0100181F31188704780F31188704748
:1001E000EFF3058070470000064880470648004747
:1001F000FEE7FEE7FEE7FEE7FEE7FEE7FEE7FEE7D7
:10020000FEE7FEE72123000831010008A0F16101AB
:10021000192900D82038704740EA01039B0703D012
:1002200009E008C9121F08C0042AFAD203E011F835
:10023000013B00F8013B521EF9D27047D2B201E0F7
:1002400000F8012B491EFBD270470022F6E710B5DB
:1002500013460A4604461946FFF7F0FF204610BD34
:10026000421C10F8011B0029FBD1801A704730B5E1
:1002700004460020034600E05B1C934203D2E05C8E
:10028000CD5C401BF8D030BD034611F8012B00F8BF
:10029000012B002AF9D1184670472DE9FE4F804600
:1002A00081EA0300C00F0C46009021F0004123F0CA
:1002B0000045B8EB0200A94105D2404621469046D0
:1002C0001C460B46024623F00040104347D0270D42
:1002D000C7F30A00C3F30A510290401A0190402864
:1002E0006BDAC3F3130040F4801B0098924620B1F0
:1002F0000023D2EB030A63EB0B0B01985946C0F1C4
:100300004002504600F052F906460D465046594606
:10031000019A00F05AF910EB08006141002487EAC5
:10032000115284EAE7731A4340D0009A62B3019AEB
:10033000012A4FEA075215DC001B61EB02014FF066
:10034000004202EA0752CDE90042001C41F580114B
:1003500032462B4600F05AF903B0BDE8F08F404614
:100360002146F9E7001B61EB0201001C41F58013F7
:1003700000185B412018A2F5001747EB030140EA83
:10038000D570B6196D4111E06D084FEA360645EAA1
:10039000C0754FEA0752001B61EB0201001C41F5DA
:1003A000801149084FEA30000019514132462B466E
:1003B00003B0BDE8F04F00F01AB9009801224000E8
:1003C0000023D0EB020263EBE073009821464FEA72
:1003D000E074B8EB000061EB0401E9E783F000434F
:1003E0005BE781F0004158E72DE9F04D81EA030415
:1003F00004F0004B21F0004514464FF0000A23F0B2
:10040000004150EA050220D054EA01021DD0C5F394
:100410000A570246C5F31303C1F31300C1F30A568A
:1004200040F4801543F48013A7EB0608101BD64652
:1004300008F2FD3873EB050002D308F1010801E072
:1004400092185B41B8F1000F03DA00200146BDE8C5
:10045000F08D00204FF48011064684460EE0171BF5
:1004600073EB050705D3121B63EB050306434CEA48
:10047000010C49084FEA300092185B4150EA01072D
:10048000EDD152EA030012D082EA040083EA0501AA
:10049000084305D0101BAB4106D20122002306E021
:1004A00000224FF0004302E06FF0010253101AEBFC
:1004B00006004CEB085110EB0A0041EB0B01BDE8C4
:1004C000F04D00F094B80EB540F233410291002196
:1004D000CDE900110A460B4600F098F803B000BDC4
:1004E000A0E8004FF0C040F804DB01B5AFF3008096
:1004F000BDE8024001C10020704700F12C080C4605
:1005000058F8040DAFF3008058F8040D854620001C
:1005100008BF012038E9F00018E9004F704730B5F6
:100520000B46014600202022012409E021FA02F5B1
:100530009D4205D303FA02F5491B04FA02F528444B
:10054000151EA2F10102F1DC30BD2DE9F05F054678
:10055000002092469B4688460646814640241BE082
:10056000284641464746224600F052F953465A462D
:10057000C01A914110D311461846224600F016F8D1
:100580002D1A67EB01084F4622460120002100F09A
:100590000DF817EB00094E41201EA4F10104DFDC29
:1005A000484631462A464346BDE8F09F202A04DBF0
:1005B000203A00FA02F1002070479140C2F1200376
:1005C00020FA03F3194390407047202A06DBCB172B
:1005D000203A41FA02F043EAE07306E041FA02F3FE
:1005E000D040C2F12002914008431946704710B52F
:1005F000141E73F1000408DA401C41F10001921846
:100600005B411A4301D120F0010010BD2DE9F04DEE
:1006100092469B4611B1B1FA81F202E0B0FA80F243
:1006200020329046FFF7C2FF04460F4640EA0A0018
:1006300041EA0B0153465A46084313D0114653EA88
:10064000010019D0C8F14002504600F0E1F805461B
:100650000E46504659464246FFF7A8FF084305D0CC
:10066000012004E020463946BDE8F08D0020054316
:1006700046EAE0762C4337430A986305E40AA0EB88
:1006800008000022FD0A44EA47540A3002D500203F
:100690000146E9E7010510196941DDE9084500193E
:1006A0006941BDE8F04DA2E72DE9FE4F81EA030460
:1006B00004F0004421F0004100944FF0000B23F0BF
:1006C000004350EA01045ED052EA03045BD0C3F356
:1006D0000A54C1F30A552C44A4F2F3340194A0FB4C
:1006E0000254C1F3130141F48011C3F3130343F423
:1006F000801301FB024400FB034E840A970A44EA7C
:10070000815447EA8357A4FB076802958D0A05FBCD
:1007100007854FEA932C04FB0C542705029D4FEAF2
:10072000065847EA1637B5EB08056EEB070C870E3F
:10073000920E47EA811742EA8312A7FB0201B6EB49
:100740000B0164EB00042B0D43EA0C335E1844EB01
:100750001C50DA465146E7FB0201C5F313044FEA89
:100760000B3343EA14534FEA0432019C43EA060375
:10077000A4F10C040294009CCDE900B4FFF746FFFD
:1007800003B0BDE8F08F00200146F9E7C1F30A523B
:10079000C1F3130140F2FF3341F480119A4202DAAF
:1007A00000200146704740F233439A42A2F233429E
:1007B00002DC524200F02CB8FFF7F8BE30B5041E40
:1007C00071F1000404DB4FF00044404264EB01018E
:1007D000141E73F1000405DB1C464FF00043524227
:1007E00063EB0403994208BF904230BD064C074DAD
:1007F00006E0E06840F0010394E8070098471034F1
:10080000AC42F6D3FFF798FC6876000888760008BB
:10081000202A04DB203A21FA02F00021704721FA55
:1008200002F3D040C2F120029140084319467047BC
:1008300070B58C1810F8015B15F0070301D110F8A2
:10084000013B2A1106D110F8012B03E010F8016BCF
:1008500001F8016B5B1EF9D12B0705D40023521E52
:100860000DD401F8013BFAE710F8013BCB1A921CBA
:1008700003E013F8015B01F8015B521EF9D5A142B8
:10088000D8D3002070BD00001FB500200D4A012301
:10089000CDE901200093039003464FF400720AA1B2
:1008A0000C4806F025FA00200B4A0123CDE901206F
:1008B0000093039003464FF4007208A10A4806F023
:1008C00017FA1FBD00000020765461736B557365E5
:1008D00072494600C1650008040000207642545F5A
:1008E0005461736B00000000CD5F000800BFFEE79D
:1008F000F8B504460D461646002003463246294602
:100900000090204600F002F8F8BD00002DE9F84FF5
:1009100004460E4617469846DDF828900025AA465C
:100920001548006810B94FF00A0A1EE014B94FF0DC
:10093000150A1AE043463A4631462046CDF8009063
:1009400004F0DCF9054615B94FF0010A0DE0214627
:100950000948006805F098F9012801D14FF0180AFC
:1009600029460548006804F0E5FA504601F03AF8D7
:100970002846BDE8F88F0000700100202DE9F04105
:1009800007460C4615460026B0461A48006810B9BE
:100990004FF00A0827E017B94FF0140823E014B904
:1009A0004FF01F081FE015B94FF01E081BE0294645
:1009B000204604F0D4F9064616B94FF0010812E0BB
:1009C0000C4800684068401C0A4909684860214694
:1009D000384605F06DF9012801D14FF02008314665
:1009E000384604F0BCFA404600F0FCFF3046BDE853
:1009F000F0810000700100202DE9FF4704460D46FC
:100A000016461F46DDE90C981448C06C401C13497B
:100A1000C864F4B90846006D401C086510480068B9
:100A2000104909682B460522CDE90067CDE902107F
:100A30000A490D4802F0F4FCB8F1010F09D1084849
:100A40000068C06828B106490968C8680121FFF735
:100A500054FD204604B0BDE8F08700003870002047
:100A60007C010020780100208001002010B500F0FA
:100A7000B5F848B909480078012803D008A114A0A6
:100A800002F032F80A2406E002F062FD041E02D1F0
:100A900002F0DAFD0446204610BD0000B40000203C
:100AA000464154414C204552524F52202D2054650E
:100AB0007374207265676973747279206973206E2C
:100AC0006F7420696E697469616C697A65642E005F
:100AD0000A0A25730A0000000149087070470000E7
:100AE000B400002010B5002000F07CFF024800F0A8
:100AF00032F800F003F810BD7001002010B5024973
:100B0000024804F0B7F810BD8001002038700020C2
:100B100070B504460D4601E0641C6D1C207850B190
:100B2000287840B12078FFF771FB06462878FFF758
:100B30006DFB8642F0D020782978401A70BD10B540
:100B40000C2004F02FFA04461CB10020A0602060A5
:100B50006060204610BD10B50446206810B12068C2
:100B600004F072F8206804F0A9F90020206010BD9C
:100B70002DE9F0470F480068012816D10E4800689B
:100B8000FFF7A1FC04460D4604F090F88246FFF7FB
:100B90009AFC064622462B46FFF720FC80460022A0
:100BA000064BFFF721FCBDE8F0870549D1E91601A6
:100BB000F9E70000740100208C01002000408F4004
:100BC000387000200148007870470000B80000200D
:100BD0000148007870470000B90000200148006813
:100BE000704700007001002030B5CFB0F7484E903C
:100BF000FFF7F4FF4D900C2044900520072800D308
:100C000000E00720062801D8062004E00520072878
:100C100000D300E00720042801D804200DE00520BF
:100C2000072800D300E00720062801D8062004E0AA
:100C30000520072800D300E00720062801D8062059
:100C40001FE00520072800D300E00720062801D870
:100C5000062004E00520072800D300E00720042830
:100C600001D804200DE00520072800D300E007206C
:100C7000062801D8062004E00520072800D300E05C
:100C80000720401C45904D980068419000F0FEFD03
:100C900004464D984068419000F0F8FD05464E9896
:100CA000C06C419000F0F2FD854205D34D9840683C
:100CB000419000F0EBFD04E04E98C06C419000F0D4
:100CC000E5FD844205D34D980068419000F0DEFDBB
:100CD00017E04D984068419000F0D8FD04464E98CA
:100CE000C06C419000F0D2FD844205D34D9840681D
:100CF000419000F0CBFD04E04E98C06C419000F0B4
:100D0000C5FD052801D805203DE04D9800684190BB
:100D100000F0BCFD04464D984068419000F0B6FDDF
:100D200005464E98C06C419000F0B0FD854205D359
:100D30004D984068419000F0A9FD04E04E98C06CC9
:100D4000419000F0A3FD844205D34D980068419086
:100D500000F09CFD17E04D984068419000F096FD32
:100D600004464E98C06C419000F090FD844205D33B
:100D70004D984068419000F089FD04E04E98C06CA9
:100D8000419000F083FD062801D806207FE04D98B1
:100D90000068419000F07AFD04464D98406841900B
:100DA00000F074FD05464E98C06C419000F06EFD59
:100DB000854205D34D984068419000F067FD04E0FE
:100DC0004E98C06C419000F061FD844205D34D986F
:100DD0000068419000F05AFD17E04D98406841903E
:100DE00000F054FD04464E98C06C419000F04EFD5A
:100DF000844205D34D984068419000F047FD04E0DF
:100E00004E98C06C419000F041FD052801D80520A6
:100E10003DE04D980068419000F038FD04464D9843
:100E20004068419000F032FD05464E98C06C4190FC
:100E300000F02CFD854205D34D984068419000F0AC
:100E400025FD04E04E98C06C419000F01FFD8442E7
:100E500005D34D980068419000F018FD17E04D98BB
:100E60004068419000F012FD04464E98C06C4190DD
:100E700000F00CFD844205D34D984068419000F08D
:100E800005FD04E04E98C06C419000F0FFFC401C52
:100E900046904E98406B419000F0F8FC04464E9806
:100EA000006C419000F0F2FC05464E98C06C4190F9
:100EB00000F0ECFC854205D34E98006C419000F0A8
:100EC000E5FC04E04E98C06C419000F0DFFC8442E9
:100ED00005D34E98406B419000F0D8FC17E04E9837
:100EE000006C419000F0D2FC04464E98C06C4190DA
:100EF00000F0CCFC844205D34E98006C419000F089
:100F0000C5FC04E04E98C06C419000F0BFFC032883
:100F100001D803203DE04E98406B419000F0B6FCB4
:100F200004464E98006C419000F0B0FC05464E9887
:100F3000C06C419000F0AAFC854205D34E98006C2D
:100F4000419000F0A3FC04E04E98C06C419000F08A
:100F50009DFC844205D34E98406B419000F096FC76
:100F600017E04E98006C419000F090FC04464E98BB
:100F7000C06C419000F08AFC844205D34E98006C0E
:100F8000419000F083FC04E04E98C06C419000F06A
:100F90007DFC062801D8062081E04E98406B4190E8
:100FA00000F074FC04464E98006C419000F06EFC1A
:100FB00005464E98C06C419000F068FC854207D30E
:100FC0004E98006C419000F061FC06E03870002003
:100FD0004E98C06C419000F059FC844205D34E9865
:100FE000406B419000F052FC17E04E98006C41902D
:100FF00000F04CFC04464E98C06C419000F046FC5A
:10100000844205D34E98006C419000F03FFC04E010
:101010004E98C06C419000F039FC032801D80320A1
:101020003DE04E98406B419000F030FC04464E98F5
:10103000006C419000F02AFC05464E98C06C41902F
:1010400000F024FC854205D34E98006C419000F0DE
:101050001DFC04E04E98C06C419000F017FC8442E7
:1010600005D34E98406B419000F010FC17E04E986D
:10107000006C419000F00AFC04464E98C06C419010
:1010800000F004FC844205D34E98006C419000F0BF
:10109000FDFB04E04E98C06C419000F0F7FB401C53
:1010A00047904E98D0E91010081A419000F0EEFBDE
:1010B00004464E98D0E91310081A419000F0E6FB60
:1010C000844207D34E98D0E91010081A419000F0DE
:1010D000DDFB06E04E98D0E91310081A419000F0AD
:1010E000D5FB032801D803201FE04E98D0E910104B
:1010F000081A419000F0CAFB04464E98D0E913103C
:10110000081A419000F0C2FB844207D34E98D0E900
:101110001010081A419000F0B9FB06E04E98D0E993
:101120001310081A419000F0B1FB062801D80620E0
:1011300043E04E98D0E91010081A419000F0A6FB49
:1011400004464E98D0E91310081A419000F09EFB17
:10115000844207D34E98D0E91010081A419000F04D
:1011600095FB06E04E98D0E91310081A419000F064
:101170008DFB032801D803201FE04E98D0E9101002
:10118000081A419000F082FB04464E98D0E91310F3
:10119000081A419000F07AFB844207D34E98D0E9B8
:1011A0001010081A419000F071FB06E04E98D0E94B
:1011B0001310081A419000F069FB062801D8062098
:1011C0008BE04E98D0E91010081A419000F05EFBB9
:1011D00004464E98D0E91310081A419000F056FBCF
:1011E000844207D34E98D0E91010081A419000F0BD
:1011F0004DFB06E04E98D0E91310081A419000F01C
:1012000045FB032801D803201FE04E98D0E91010B9
:10121000081A419000F03AFB04464E98D0E91310AA
:10122000081A419000F032FB844207D34E98D0E96F
:101230001010081A419000F029FB06E04E98D0E902
:101240001310081A419000F021FB062801D806204F
:1012500043E04E98D0E91010081A419000F016FBB8
:1012600004464E98D0E91310081A419000F00EFB86
:10127000844207D34E98D0E91010081A419000F02C
:1012800005FB06E04E98D0E91310081A419000F0D3
:10129000FDFA032801D803201FE04E98D0E9101072
:1012A000081A419000F0F2FA04464E98D0E9131063
:1012B000081A419000F0EAFA844207D34E98D0E928
:1012C0001010081A419000F0E1FA06E04E98D0E9BB
:1012D0001310081A419000F0D9FA401C48904E981B
:1012E000806B419000F0D2FA04464E98406C4190D9
:1012F00000F0CCFA05464E98006D419000F0C6FA19
:10130000854205D34E98406C419000F0BFFA04E04E
:101310004E98006D419000F0B9FA844205D34E9882
:10132000806B419000F0B2FA17E04E98406C41900B
:1013300000F0ACFA04464E98006D419000F0A6FA19
:10134000844205D34E98406C419000F09FFA04E02F
:101350004E98006D419000F099FA062801D80620B9
:101360003DE04E98806B419000F090FA04464E9814
:10137000406C419000F08AFA05464E98006D41900D
:1013800000F084FA854205D34E98406C419000F0FD
:101390007DFA04E04E98006D419000F077FA8442A7
:1013A00005D34E98806B419000F070FA17E04E988C
:1013B000406C419000F06AFA04464E98006D4190EE
:1013C00000F064FA844205D34E98406C419000F0DE
:1013D0005DFA04E04E98006D419000F057FA06283F
:1013E00001D806207FE04E98806B419000F04EFAC5
:1013F00004464E98406C419000F048FA05464E98DD
:10140000006D419000F042FA854205D34E98406C41
:10141000419000F03BFA04E04E98006D419000F0DE
:1014200035FA844205D34E98806B419000F02EFA35
:1014300017E04E98406C419000F028FA04464E9810
:10144000006D419000F022FA844205D34E98406C22
:10145000419000F01BFA04E04E98006D419000F0BE
:1014600015FA062801D806203DE04E98806B419081
:1014700000F00CFA04464E98406C419000F006FAD9
:1014800005464E98006D419000F000FA854205D364
:101490004E98406C419000F0F9F904E04E98006DD0
:1014A000419000F0F3F9844205D34E98806B41904F
:1014B00000F0ECF917E04E98406C419000F0E6F92E
:1014C00004464E98006D419000F0E0F9844205D347
:1014D0004E98406C419000F0D9F904E04E98006DB0
:1014E000419000F0D3F9401C49904E98C06B419058
:1014F00000F0CCF904464E98806C419000F0C6F99B
:10150000032805D34E98806C419000F0BFF900E0AD
:101510000320844205D34E98C06B419000F0B6F989
:101520000DE04E98806C419000F0B0F9032805D38F
:101530004E98806C419000F0A9F900E00320082843
:1015400001D8082029E04E98C06B419000F09EF928
:1015500004464E98806C419000F098F9032805D31A
:101560004E98806C419000F091F900E00320844295
:1015700005D34E98C06B419000F088F90DE04E986D
:10158000806C419000F082F9032805D34E98806C5E
:10159000419000F07BF900E00320062801D80620E6
:1015A00057E04E98C06B419000F070F904464E9899
:1015B000806C419000F06AF9032805D34E98806C46
:1015C000419000F063F900E00320844205D34E9877
:1015D000C06B419000F05AF90DE04E98806C41903C
:1015E00000F054F9032805D34E98806C419000F028
:1015F0004DF900E00320082801D8082029E04E9882
:10160000C06B419000F042F904464E98806C4190C6
:1016100000F03CF9032805D34E98806C419000F00F
:1016200035F900E00320844205D34E98C06B419009
:1016300000F02CF90DE04E98806C419000F026F9F6
:10164000032805D34E98806C419000F01FF900E00C
:101650000320401C4A900F204B9008204C90459945
:1016600044980844469908444799084448990844CE
:10167000499908444A99084480000D304B99084420
:101680004C990844401C4390439803F08BFC4290D3
:101690004298E8B3FFF76CFA419140904DA14C9805
:1016A000CDE93C01419940984DA2CDE93A0150A3C2
:1016B0004A994B98CDE93513CDE937024E98006D24
:1016C0004E9A4999D2E913329A1A489BCDE93132A0
:1016D000CDE933104E98C06C4E9A4799D26C469B18
:1016E000CDE92D32CDE92F1042A244A3449945986B
:1016F000CDE92913CDE92B024E98806C4E9A4A9978
:10170000526C499BCDE92532CDE927104E9800E077
:101710005DE0D0E91010091A4E9A4898126C479B68
:10172000CDE92132CDE923014D98406834A3459A93
:101730004699CDE91D23CDE91F1030A344994E9859
:10174000C06B4A9A1AAC0BC419924E98806B28A3AE
:10175000489A4999CDE91523CDE917104E98426B67
:101760004D9947980968469BCDE91131CDE913029F
:1017700025A222A344994598CDE90D13CDE90F0286
:1017800023A226A349994A98CDE90913CDE90B0272
:1017900024A226A348994798CDE9063108920590DE
:1017A00023A225A345994698CDE90113CDE903026B
:1017B00023A0009044980346254A3F9043994298BD
:1017C00001F0A2F900224398411E429842544298E7
:1017D0004FB030BD207365636F6E6473000000000E
:1017E000456C61707365642074696D65203D2000EF
:1017F0006E2F6100617373657274730020000000C6
:101800007465737473000000737569746573000008
:10181000496E616374697665000000004661696C19
:1018200065640000506173736564000052616E006E
:10183000546F74616C000000547970650000000002
:1018400052756E2053756D6D6172793A000000001B
:101850000076000810B500210C46084600F0C2F8DA
:101860000948006808B1FFF73DF9FFF768F9064934
:1018700008600846006820B901210C46084600F0BF
:10188000B1F8204610BD00007001002010B58AB0EC
:101890000446234606A2212101A801F035F90020C3
:1018A0008DF8240001A8FEF7DBFC0AB010BD000093
:1018B0002564000070B50546FFF796F904463CB173
:1018C000214605A001F010F9204603F0F7FA02E0E6
:1018D00002A001F009F970BD25730000416E20657A
:1018E00072726F72206F63637572726564207072BA
:1018F000696E74696E67207468652072756E2072F7
:101900006573756C74732E002DE9FF5FFFF766F940
:1019100082460024A1462A492A4803F0ABF9BAF1CD
:10192000000F02D14FF00A0942E001202649086069
:1019300003F0BCF925490860DAF808400CE02149B9
:10194000204603F0F5FF8346B9F1000F01D1584658
:1019500000E048468146246A34B1B9F1000FEED068
:10196000FFF736F90028EAD0002017490860174829
:101970000068FEF7A8FD0746884603F097F9019036
:10198000FEF7A1FD3A464346CDE90201FEF726FDEA
:10199000054600220E4BFEF727FD0A4AC2E9160152
:1019A0000C48006820B1064800680A490968884761
:1019B000484600F017F8484604B0BDE8F09F000024
:1019C0008001002038700020740100208C0100206C
:1019D00000408F40A00100200149086070470000CE
:1019E000A001002070B504467CB1094800780228A7
:1019F0000BD1204603F08AFA05462A46214605A067
:101A000001F072F8204603F04DFA0A48047070BDE8
:101A1000B90000200A41626F7274696E67206475B4
:101A20006520746F206572726F72202325643A20DE
:101A300025730A00B80000200149087070470000B3
:101A4000B900002070B50446044805680020FFF77F
:101A5000C9FF02480460284670BD000070010020E4
:101A60000149086070470000A80100200149086092
:101A700070470000A4010020014908607047000081
:101A8000980100200149086070470000940100207F
:101A9000014609B909487047012901D10020FAE738
:101AA000022901D10020F6E7032901D10020F2E745
:101AB000042901D10020EEE70020ECE770020020AD
:101AC00008B525208DF8000001208DF801000020C8
:101AD0008DF8020001208DF80300684600F026FA18
:101AE00008BD70472DE9F05F05460C464FF0000930
:101AF000CA4600260027B046B3465948854211D051
:101B0000584885420ED0584885420BD057488542E8
:101B100008D05748854205D05648854202D05648DD
:101B2000854200D103E0B82154A001F0DDFCE0784B
:101B3000A0B1E078042811D0E07828280ED0E07811
:101B400048280BD0E078142808D0E078102805D079
:101B5000E0781C2802D0E078182800D103E0B921F1
:101B600046A001F0C1FC002010B9208800B103E0BC
:101B7000BA2142A001F0B8FCE07800F00F09E0784B
:101B800000F0100080B1A078012805D0A0780228CC
:101B900002D0A078032800D103E0C12137A001F0D2
:101BA000A3FCA07840EA0909207838B3D5F8008072
:101BB00000261FE0012000FA06F7208800EA070A45
:101BC000BA4516D1B7000F2000FA07FB28EA0B0828
:101BD00009FA07F040EA0808E078282803D1012034
:101BE000B040686105E0E078482802D10120B040AB
:101BF0002861761C082EDDD3C5F800802088FF28D8
:101C00002BDDD5F80480002623E006F10800012131
:101C100001FA00F7208800EA070ABA4518D1B70090
:101C20000F2000FA07FB28EA0B0809FA07F040EA40
:101C30000808E078282803D106F10800814069618E
:101C4000E078482804D106F108000121814029618B
:101C5000761C082ED9D3C5F80480BDE8F09F00009B
:101C600000080140000C0140001001400014014038
:101C700000180140001C0140002001402E2E5C2E67
:101C80002E5C4C69627261726965735C53544D33AA
:101C900032463130785F5374645065726970685FA2
:101CA0004472697665725C7372635C73746D33320F
:101CB000663130785F6770696F2E630009A100207C
:101CC0000CE00A5C124B1A8000BF114A121F1288E6
:101CD00002F04002002AF8D0421CD0B22A28F0D3E9
:101CE00000BFFEE70D0A456E74657220486172649C
:101CF0004661756C745F48616E646C65722C20532C
:101D0000797374656D2048616C742E0D0A000000B3
:101D10000438014000B585B00121052000F0B4F978
:101D20000121880300F0B0F94FF40070ADF8100005
:101D300018208DF8130003208DF8120004A918480C
:101D4000FFF7D0FE4FF48060ADF8100004208DF84E
:101D5000130004A91248FFF7C5FE4FF4E1300090CC
:101D60000020ADF80400ADF80600ADF80800ADF8AD
:101D70000C000C20ADF80A0069460A4800F0A2FCED
:101D8000012240F22551074800F014FC01210548CA
:101D900000F044FB4021034800F0FAFA05B000BD12
:101DA00000080140003801400948806800F40050F4
:101DB00058B90848006800F0010030B9064880684A
:101DC00000F4807008B1012070470020FCE700009B
:101DD00000100140080801400020014009488068C7
:101DE00000F4005058B10848006800F0010030B11C
:101DF0000648806800F4807008B901207047002010
:101E0000FCE70000001001400808014000200140EC
:101E10000948806800F4005058B10848006800F094
:101E2000010030B10648806800F4807008B10120DC
:101E300070470020FCE70000001001400808014046
:101E4000002001400948806800F4005058B108485B
:101E5000006800F0010030B90648806800F4807026
:101E600008B9012070470020FCE700000010014085
:101E700008080140002001400448806800F4004048
:101E800008B9012070470020FCE700000020014055
:101E90000448006800F0080008B9012070470020DD
:101EA000FCE70000081401400448806800F480400A
:101EB00008B9012070470020FCE700000020014025
:101EC0000448806800F4005008B9012070470020E1
:101ED000FCE70000002001400448806800F080001A
:101EE00008B9012070470020FCE7000000200140F5
:101EF0000948806800F4005058B90848006800F0AC
:101F0000010030B10648806800F4807008B10120FB
:101F100070470020FCE70000001001400808014065
:101F20000020014000BFFEE7704700002DE9F041AE
:101F30000446002500270F26E07810B1E07801283C
:101F400000D103E07B2121A001F0CEFA60781028B7
:101F500000DA03E07C211DA001F0C6FAA078102869
:101F600000DA03E07D2119A001F0BEFAE07800B3A9
:101F70002448006800F4E060C0F5E060050AC5F19F
:101F80000407EE40607800FA07F5A078304005437A
:101F90002D011D4822788554207800F01F01012072
:101FA000884021784911890001F1E021C1F8000140
:101FB00009E0207800F01F010120884013492278B1
:101FC000521141F82200BDE8F08100002E2E5C2E57
:101FD0002E5C4C69627261726965735C53544D3357
:101FE00032463130785F5374645065726970685F4F
:101FF0004472697665725C7372635C6D6973632E9B
:10200000630000000CED00E000E400E080E100E08F
:1020100010B50446B4F5E06F0BD0B4F5C06F08D02E
:10202000B4F5A06F05D0B4F5806F02D0B4F5407F51
:1020300000D103E0692104A001F056FA10482043C2
:102040001049086010BD00002E2E5C2E2E5C4C69DD
:10205000627261726965735C53544D33324631303C
:10206000785F5374645065726970685F4472697612
:1020700065725C7372635C6D6973632E630000004C
:102080000000FA050CED00E070B504460D4610485E
:10209000204008B904B104E04FF48A610DA001F0BA
:1020A00023FA0DB1012D00D104E040F2514109A005
:1020B00001F01AFA2DB1174880692043154988614B
:1020C00004E014488069A0431249886170BD000093
:1020D0000200C0FF2E2E5C2E2E5C4C696272617273
:1020E0006965735C53544D3332463130785F5374B5
:1020F000645065726970685F4472697665725C737A
:1021000072635C73746D3332663130785F7263630F
:102110002E6300000010024030B500210022002490
:1021200000232D4D6D6805F00C0121B1042905D067
:10213000082923D105E0294D056022E0274D0560DF
:102140001FE0254D6D6805F47012234D6D6805F490
:102150008034022505EB92421CB9214D55430560A0
:102160000BE01D4D6D6805F400351DB11C4D554348
:10217000056002E0194D5543056002E0174D05600A
:1021800000BF00BF144D6D6805F0F0010909154D41
:102190006B5C0568DD4045600F4D6D6805F4E061DE
:1021A000090A104D6B5C4568DD4085600A4D6D681D
:1021B00005F46051C90A0B4D6B5C4568DD40C56094
:1021C000054D6D6805F44041890B074D6B5CC56892
:1021D000B5FBF3F5056130BD0010024000127A0036
:1021E00000093D00080000201800002008B501216A
:1021F0000820FFF749FF03208DF8020010208DF81A
:1022000003000420ADF8000069460248FFF76AFCAD
:1022100008BD0000000C014010B500F001F810BD31
:102220000CB50020019000903348006840F48030E5
:102230003149086000BF3048006800F40030009069
:102240000198401C0190009818B90198B0F5A06F52
:10225000F1D12948006800F4003010B1012000904D
:1022600001E0002000900098012843D12348006835
:1022700040F01000214908600846006820F0030083
:1022800008600846006840F0020008601A4840688C
:10229000194948600846406848600846406840F46C
:1022A000806048600846406820F47C10486008461A
:1022B000406840F4E81048600846006840F08070CC
:1022C000086000BF0C48006800F000700028F9D0DA
:1022D0000948406820F00300074948600846406804
:1022E00040F00200486000BF0348406800F00C0066
:1022F0000828F9D10CBD0000001002400020024067
:1023000010B5FDF763FF04F0A9FD18B14FF0805040
:10231000024908600020FDF760FF10BD04ED00E0F9
:1023200010B51348006840F00100114908600846E4
:102330004068104908400E494860084600680E4948
:1023400008400B4908600846006820F480200860B7
:102350000846406820F4FE0048604FF41F00886083
:10236000FFF75AFF4FF000600449086010BD0000FD
:10237000001002400000FFF8FFFFF6FE08ED00E04D
:1023800010B5024800F0E8FA10BD0000700200200D
:1023900070B504460D461B4884420BD01A4884424F
:1023A00008D01A48844205D01948844202D01948FE
:1023B000844200D104E04FF46971174801F094F8A9
:1023C0004FF69F40284008B905B104E040F2A5311E
:1023D000114801F089F805F40070B0F5007F0ED1C6
:1023E0000848844205D00848844202D00748844205
:1023F00000D104E040F2A931074801F075F8E84344
:10240000208070BD0038014000440040004800407A
:10241000004C004000500040F472000870B50446C3
:102420000D46154884420BD01448844208D0144805
:10243000844205D01348844202D01348844200D11C
:1024400004E04FF4B471114801F04EF80DB1012DC4
:1024500000D104E040F269110C4801F045F825B1C3
:10246000A08940F40050A08104E0A0894DF6FF71DE
:102470000840A08170BD00000038014000440040C9
:1024800000480040004C004000500040F47200083A
:102490002DE9F04705460C4600270026B046B14618
:1024A0003E4885420BD03E48854208D03D48854293
:1024B00005D03D48854202D03C48854200D104E029
:1024C0004FF472713A4801F00FF8282C27D040F2EF
:1024D0002770844223D040F2266084421FD040F20D
:1024E000255084421BD040F22440844217D040F64D
:1024F0004600844213D040F66A1084420FD0B4F5EF
:10250000587F0CD040F22530844208D0B4F5587F73
:1025100005D0B4F5187F02D0B4F5B07F00D104E047
:1025200040F2C931224800F0DFFF40F66A108442D1
:102530000ED11A48854205D01948854202D0194863
:10254000854200D104E040F2CD31194800F0CCFFC3
:10255000C4F3421804F01F06012000FA06F6B8F191
:10256000010F02D1A889064007E0B8F1020F02D19D
:10257000288A064001E0A88A06402712012000FAB6
:1025800007F7288807401EB117B14FF0010901E095
:102590004FF000094846BDE8F087000000380140D0
:1025A0000044004000480040004C00400050004003
:1025B000F47200082DE9F04705460C4617464FF027
:1025C0000008C246C1460026384885420BD038482C
:1025D000854208D03748854205D03748854202D029
:1025E0003648854200D104E040F28F11344800F0B3
:1025F0007BFF282C19D040F22770844215D040F27E
:102600002660844211D040F2255084420DD040F221
:102610002440844209D040F64600844205D040F66A
:102620006A10844201D0602C00D104E04FF4C871DC
:10263000234800F059FF0FB1012F00D104E040F210
:1026400091111F4800F050FF40F66A1084420ED1ED
:102650001648854205D01648854202D01548854265
:1026600000D104E040F29511154800F03DFF2E46E0
:10267000C4F3421804F01F0A012000FA0AF9B8F165
:10268000010F01D10C3605E0B8F1020F01D110366F
:1026900000E0143627B1306840EA0900306003E0FA
:1026A000306820EA09003060BDE8F087003801405A
:1026B0000044004000480040004C004000500040F2
:1026C000F47200082DE9F04786B005460C46002656
:1026D000B24600BFB14600276B4885420BD06B481D
:1026E000854208D06A48854205D06A48854202D0B2
:1026F0006948854200D103E0BE21684800F0F4FE3D
:10270000206820B166492068884200D203E0BF21DA
:10271000624800F0E9FEA08818B1A088B0F5805F9B
:1027200000D103E0C0215D4800F0DEFEE08858B132
:10273000E088B0F5805F07D0E088B0F5005F03D097
:10274000E088B0F5405F00D103E0C121534800F0BC
:10275000CBFE208938B12089B0F5806F03D0208965
:10276000B0F5C06F00D103E0C2214C4800F0BCFEC0
:1027700060894FF6F371084010B9608900B103E039
:10278000C321464800F0B0FEA08958B1A089B0F539
:10279000807F07D0A089B0F5007F03D0A089B0F575
:1027A000407F00D103E0C4213C4800F09DFEA08999
:1027B00068B13548854205D03448854202D0344856
:1027C000854200D103E0C821344800F08DFE2F4639
:1027D0002E8A4CF6FF700640E08806432E82AE89B2
:1027E0004EF6F3100640A08821890843618908430A
:1027F0000643AE81AE8A4FF6FF400640A0890643ED
:10280000AE8201A8FFF788FC1F48874202D1DDF89D
:1028100010A001E0DDF80CA0A88900F4004040B150
:102820000AEBCA0000EB0A1021684900B0FBF1F87E
:1028300007E00AEBCA0000EB0A1021688900B0FB30
:10284000F1F86420B8FBF0F006013009642101FBC7
:102850001089A88900F4004040B1322000EBC90083
:10286000B0FBF1F000F00700064308E0322000EB77
:1028700009106421B0FBF1F000F00F0006432E8137
:1028800006B0BDE8F0870000003801400044004079
:1028900000480040004C004000500040F472000826
:1028A00021AA440010B504460C4884420BD00C48C1
:1028B000844208D00B48844205D00B48844202D0A1
:1028C0000A48844200D104E040F26A21084800F03E
:1028D0000BFEA088C0F3080010BD000000380140C6
:1028E0000044004000480040004C004000500040C0
:1028F000F472000870B504460D46114884420BD0AE
:102900001048844208D01048844205D00F488442C1
:1029100002D00F48844200D104E040F259210D4812
:1029200000F0E2FDB5F5007F00DA04E040F25A2144
:10293000084800F0D9FDC5F30800A08070BD000074
:10294000003801400044004000480040004C004076
:1029500000500040F472000870B5044640F2255162
:102960002068FFF795FDE0B12068FFF79BFFC5B237
:10297000E18AA0684554E08A401C80B2E082E18987
:10298000884201DB0020E082608BE189884202DA24
:10299000608B401C6083606A10B12846616A88477A
:1029A00000BF40F227712068FFF772FD08B3A08ACC
:1029B00060B9002240F227712068FFF7FBFD012279
:1029C00040F226612068FFF7F5FD37E0638A626810
:1029D000D15C2068FFF78EFF608A401C80B2608265
:1029E000A189884201DB00206082A08A401EA0826B
:1029F00024E040F226612068FFF74AFDF0B1A08A8A
:102A000050B9002240F226612068FFF7D3FD206A0A
:102A1000A0B1206A804711E0638A6268D15C2068B7
:102A2000FFF768FF608A401C80B26082A1898842FB
:102A300001DB00206082A08A401EA08270BDF8B534
:102A400004460E461746002525E00CE003F048FB3F
:102A5000A08A009003F066FBA089BDF800108842B0
:102A600000DD01E000BFF1E700BF705D228A616810
:102A7000885403F035FB208A401C80B22082A18953
:102A8000884201DB00202082A08A401CA08203F043
:102A900049FB681C85B2BD42D7DB012240F2277199
:102AA0002068FFF787FDF8BD0A480B4908600B480E
:102AB00048600B4888604FF480608881C88100209E
:102AC00008824882C882088348838882C861086275
:102AD00048627047003801407002002098020020D0
:102AE0009806002000BFFEE70FB4054B10B503A900
:102AF000044A029800F0F2F810BC5DF814FB0000E4
:102B0000A94E0008B00100200FB41CB502460020F9
:102B100007AC00290BD0491ECDE90021054B6A46C0
:102B20002146069800F0DAF8009A002111701CBCCA
:102B30005DF814FB0B34000802E008C8121F08C13E
:102B4000002AFAD170477047002001E001C1121F2E
:102B5000002AFBD1704700002DE9FF5F82B0002101
:102B6000DDE90430020DDDF840B0034318D044F62F
:102B70001050A2F2FF3242431514119801281FD0C1
:102B8000A5EB0B00401C5FEA000A4FF000064E4F19
:102B9000DFF83891B046504615D5CAF1000413E06D
:102BA000119801244AA3012801D16FEA0B01029870
:102BB000119AC0E90031C0E9024206B0BDE8F09FB9
:102BC000CBF10000DFE704460021404A491842EB00
:102BD0000450CDE9001012E0E00707D032463B4632
:102BE00040464946FDF760FD8046894632463B46F1
:102BF00010461946FDF758FD06460F466410002C96
:102C0000EAD1DDE90401DDE90023BAF1000F06DABB
:102C1000FDF74AFD42464B46FDF746FD05E0FDF750
:102C2000E3FB42464B46FDF7DFFB04460E4600221F
:102C3000284BFDF7C3FD03D84FF0FF30014607E0F6
:102C40000022254B20463146FDF727FBFDF79EFD70
:102C5000102409E0002C0ADB0A220023FDF775FC92
:102C6000039B30321A55641E50EA0102F2D1641CF3
:102C7000039AC4F111031444119A012A03D00122CA
:102C800008430DD10AE0084304D000204FF0110B97
:102C9000119072E7A3EB0B056D1E0DE05B4504DDA3
:102CA0004FF0000205F1010504E003DA4FF00002E5
:102CB000A5F10105002AECD002981199C0E9023172
:102CC000C0E9004579E70000000014400000F03F33
:102CD000300000000000F0430000E03F2DE9FF4F0E
:102CE00095B09B468946064600250FE2252877D1F8
:102CF00000242746F84A0121059400E0044316F811
:102D0000013F203B01FA03F01042F7D130782A2826
:102D100011D06FF02F033078A0F13002092A16D8B5
:102D2000059A44F0020402EB820203EB42021044D3
:102D3000761C0590EFE759F8042B0592002A03DA78
:102D4000504244F40054059044F00204761C30785C
:102D50002E2816D116F8010F44F004042A280DD0AD
:102D60006FF02F023078A0F13003092B09D807EB60
:102D7000870302EB4303C718761CF3E759F8047B7B
:102D8000761C30786C280FD006DC4C2817D06828C9
:102D90000DD06A2814D104E0742810D07A280FD1FD
:102DA0000DE044F400140AE044F4801401E044F41B
:102DB00040147278824202D104F58014761C761C8D
:102DC000307866280BD013DC582877D009DC00282F
:102DD00075D04528F6D04628F4D047281AD19DE171
:102DE00018E0632835D0642879D0652812D195E1A0
:102DF000702873D008DC6728F1D069286FD06E285E
:102E00000DD06F2806D1B5E073282CD0752875D069
:102E1000782874D05A46179990476D1C75E1C4F311
:102E20000250022809D003280DD0D9F80010042838
:102E30000DD00D6009F1040967E1D9F80010EA1717
:102E4000C1E90052F6E7D9F800100D80F2E70D70E5
:102E5000F0E719F8041B8DF8001000208DF8010030
:102E6000EA46012003E059F804AB4FF0FF30610758
:102E70004FF0000102D40DE008F101018846B9428B
:102E80000FDA8045F8DB1AF808100029F4D108E0C1
:102E900008F1010188468142FADB1AF8081000297E
:102EA000F6D105985B46A0EB080721463846179AED
:102EB00000F094FA284400EB080507E04DE029E112
:102EC0000DE01AF8010B5A4617999047B8F101081E
:102ED000F7D25B4621463846179A13E142E00A22B0
:102EE0000092C4F302524FF0000A022A08D059F8A7
:102EF00004CB032A4FEAEC710AD00DE029E02AE066
:102F000009F1070121F00702F2E802C1914609E048
:102F10000FFA8CFC4FEAEC71042A03D14FFA8CFCB7
:102F20004FEAEC71002907DA0A460021DCF1000CB7
:102F300061EB02012D2202E0220504D52B228DF83F
:102F40000420012203E0E20701D02022F7E79046A7
:102F500059E00A2102E010220DE010214FF0000A92
:102F600000910BE010224FF0000A44F004040827FF
:102F7000009203E008224FF0000A0092C4F30252CC
:102F8000022A05D059F804CB0021032A08D009E011
:102F900009F1070121F00702F2E802C1914605E0BC
:102FA0001FFA8CFC042A01D10CF0FF0C4FF0000832
:102FB000220728D5702806D0009B83F0100353EA1F
:102FC0000A0305D00EE040228DF80420012208E01B
:102FD0005CEA010206D030228DF804208DF805004D
:102FE00002229046009B83F0080353EA0A030AD1A9
:102FF0005CEA010201D1620705D530228DF8042078
:103000004FF001087F1E582804D034A003900EA86A
:1030100002900DE036A0F9E753466046009AFDF7AE
:1030200094FA84460398825C0298401E02900270D3
:103030005CEA0100F0D1029806A9081A00F1200A02
:10304000600702D524F4803400E00127574502DDF3
:10305000A7EB0A0000E0002000EB0A0100900598B1
:103060004144401A0590E00306D45B462146179A76
:10307000059800F0B3F90544002706E001A85A4678
:10308000C05D179990476D1C7F1C4745F6DBE00338
:103090000CD55B462146179A059800F09FF9054428
:1030A00004E030205A46179990476D1C0099481E3D
:1030B00000900029F5DC08E0029802995A46007851
:1030C000491C0291179990476D1CBAF10001AAF1B1
:1030D000010AF1DC65E100000928010030313233DA
:1030E0003435363738396162636465660000000044
:1030F000303132333435363738394142434445462E
:103100000000000000F058F90544761C30780028D3
:103110007FF4ECAD19B02846BDE8F08F620700D40B
:10312000062709F1070222F0070CFCE80223E1461A
:1031300003F000485FEA080C02D00FF2702C0DE09B
:103140005FEA045C02D50FF2682C07E05FEAC47CFA
:1031500002D00FF2602C01E0AFF2700C4FF0FF389C
:1031600023F00043CDF850C065280CD006DC45287C
:1031700009D046281DD047283DD13DE0662818D00B
:1031800067287ED138E00021112F01DB112000E0FB
:10319000781CCDE9000106A90EA8FFF7DDFCDDE9EA
:1031A0000F010E9A03910021009207F1010A049188
:1031B0004DE04FF000400097CDE9011006A90EA8A0
:1031C000FFF7CAFCDDE90F0203920E9B1199002262
:1031D000DDF80CA00093049211B9791C00EB010AF0
:1031E000B7EB0A0004D4C0F1FF3007F1010A0490E4
:1031F000AAEB0700019044E0012F00DA012700212B
:10320000112F01DD112000E03846CDE9000106A9AB
:103210000EA8FFF7A1FCDDE90F010E9A0391002132
:1032200004910092BA4621070CD40399514500DA63
:103230008A46BAF1010F05DD009AAAF10101515C3D
:10324000302908D0B84202DA10F1040F06DA012161
:10325000CDE9011015E0AAF10101E9E7002805DC3C
:10326000049901440491AAEB000102E0411C51457C
:1032700000DD8A460499401A401C01904FF000403E
:103280000290200704D40198504501DBCDF804805A
:1032900000208DF84F0002980DF14F07B0F1004F5C
:1032A00025D02B200E9002984FF0020800280CDA4F
:1032B000404202902D200E9007E00A210298FDF76F
:1032C0002EF93031029007F8011DB8F10001A8F184
:1032D0000108F2DC02980028EFD1791E0E980870E0
:1032E000307800F0200040F0450007F8020D12A8E9
:1032F000C01B00F107081498007800B1012000EB12
:103300000A01019801EBE07105984144401A401E02
:103310000590E00306D45B462146179A059800F015
:103320005DF805441498007818B15A4617999047EB
:103330006D1CE00324D55B462146179A059800F0E2
:103340004DF805441CE00498002807DBDDE9030183
:10335000884203DD0098405C179901E017993020FE
:103360005A469047049805F10105401C04900198C5
:10337000401E019004D12E205A46179990476D1C8B
:10338000BAF10001AAF1010ADDDC05E017F8010B32
:103390005A46179990476D1CB8F10001A8F1010831
:1033A000F4DC5B462146179A0598ABE62D00000039
:1033B0002B000000200000002DE9F041044600250C
:1033C0001E461746880404D405E039462020B0473D
:1033D0006D1C641EF9D52846BDE8F0812DE9F04149
:1033E000044600251E469046C80301D5302700E05C
:1033F0002027880404D505E041463846B0476D1CB7
:10340000641EF9D52846BDE8F0814A68002A06D036
:103410000A68531C0B6010704868401E4860704773
:103420002DE9F84F07460E4692469B46DDE90A898C
:1034300000240025202001F0B5FD04460CB9BDE8AC
:10344000F88F0020A060E060B9F1000F11D048466D
:10345000FCF706FF401C009001F0A4FDA060A068EE
:1034600018B9204601F02AFDE9E74946A068FCF7B3
:103470000BFFB8F1000F16D04046FCF7F1FE401CE0
:10348000009001F08FFDE060E06840B9A06810B1E5
:10349000A06801F013FD204601F010FDCFE7414682
:1034A000E068FCF7F1FE84F800A0C4F804B00D98C1
:1034B00020610C9860610020A061E0613D683DB131
:1034C00000E0AD69A8690028FBD1AC61E56100E0CE
:1034D0003C6016B1706D401C70650248046000BF0E
:1034E000ADE700008401002004460D4604E02A46B2
:1034F000214602A0FFF7F8FAF9E7000057726F6E55
:103500006720706172616D65746572732076616C9D
:1035100075653A2066696C65202573206F6E206C96
:10352000696E652025640D0A0000000010B5044690
:1035300004A0FFF7D9FA0448FEF7BCF903A0FFF78F
:10354000D3FA10BD0A0A0000B00100200A000000F2
:1035500010B500234FF48062194614484FF0FF3035
:1035600000234FF48062194611484FF0FF300020CD
:10357000FEF738FA0F480078012804D00EA216A1F1
:1035800022A0FFF7B1FA2B48FEF77CFA2A48FEF793
:1035900073FA2A48FEF720FA2948FEF767FA294805
:1035A000FEF75EFAFDF70EFB10BD0000B001002033
:1035B000B4010020B4000020687474703A2F2F63A7
:1035C000756E69742E736F75726365666F72676569
:1035D0002E6E65742F00000043556E6974202D20F7
:1035E0004120756E69742074657374696E67206616
:1035F00072616D65776F726B20666F722043202D4C
:103600002056657273696F6E200000000A0A202040
:1036100020202025734056455253494F4E402D409F
:1036200052454C45415345400A2020202020257317
:103630000A0A0000D93700080D3700082D350008A8
:10364000BD3600087536000870B504460025002018
:10365000074908601CB12046FEF7F4F90546FEF75D
:1036600053F9064614B12846FEF7ECF9304670BD12
:10367000B000002010B5044604480078012803D0AB
:1036800003A02168FFF730FA10BD0000B40000204D
:103690000A5741524E494E47202D20537569746593
:1036A00020636C65616E7570206661696C6564206D
:1036B000666F7220272573272E00000010B5044680
:1036C00004480078012803D003A02168FFF70CFA12
:1036D00010BD0000B40000200A5741524E494E4729
:1036E000202D20537569746520696E697469616C59
:1036F000697A6174696F6E206661696C65642066C1
:103700006F7220272573272E000000002DE9F84353
:103710000746884615462C463CB91B4800780228C7
:1037200030D11AA0FFF7E0F92CE01748007828B153
:1037300002280AD117A0FFF7D7F907E03A6817A0C7
:10374000D8F80010FFF7D0F900E000BF00BF0E4826
:103750000078012816D0012612E0E06808B1E06880
:1037600000E016A00090D4E9013008B1A06800E0A4
:1037700012A00246314612A0FFF7B6F9A469761CE2
:10378000002CEAD1BDE8F883B400002070617373A7
:10379000656400004641494C454400000A53756980
:1037A00074652025732C205465737420257320685C
:1037B0006164206661696C757265733A000000008F
:1037C0000A2020202025642E2025733A25752020EC
:1037D0002D2025730000000070B505460C460F48EB
:1037E0000078022818D10E48006818B10C4800680B
:1037F000A0420CD00BA10DA02268FFF775F90DA116
:103800000EA02A68FFF770F90548046004E009A1DA
:103810000AA02A68FFF768F970BD0000B400002014
:10382000B000002053756974650000000A25733AE2
:103830002025730054657374000000000A202025C1
:10384000733A202573202E2E2E00000010B54FF461
:103850004070FEF7DDFB00F0FFF800F0C5F800F067
:1038600001F810BD10B500F055F800F001F810BDDA
:1038700008B501214FF49A70FEF706FC03208DF87D
:10388000020004208DF80300C002ADF80000694674
:103890001C48FEF727F90120ADF8000069461A48D8
:1038A000FEF720F94FF48070ADF800006946174824
:1038B000FEF718F94FF40040ADF8000069461348D0
:1038C000FEF710F90820ADF8000069461048FEF731
:1038D00009F94FF48040ADF8000069460B48FEF747
:1038E00001F94FF40050ADF8000069460748FEF7B3
:1038F000F9F88020ADF8000069460448FEF7F2F8B8
:1039000008BD0000001001400008014000200140F7
:10391000001401400021284A9172D17211730020D5
:1039200018E06421254A02EB001211810221234A8A
:1039300002EB001211710021204A02EB0012917279
:103940001E4A02EB0012D1721C4A02EB00121173E4
:10395000411CC8B20A28E4DB642218490A87052200
:1039600081F83B206422A1F84820052281F84B20F1
:103970006422A1F85820052281F85B206422A1F876
:103980006820052281F86B200D490C4A11600D4911
:1039900011610D4911620D4911630D4911640D4901
:1039A00011650D4911660D4911670D49C2F8801066
:1039B0000C49C2F89010704760020020C00100203E
:1039C000A91D0008111E0008451E0008791E0008E8
:1039D000911E0008A91E0008C11E0008D91E00087B
:1039E000F11E0008DD1D000808B501218020FEF74A
:1039F0004BFB012000F03AF8022000F037F80320DA
:103A000000F034F8042000F031F803208DF80200B3
:103A100010208DF80300C001ADF8000069460D4884
:103A2000FEF760F88020ADF8000069460948FEF70F
:103A300059F84FF48070ADF8000069460548FEF76C
:103A400051F84FF40070ADF8000069460148FEF7E8
:103A500049F808BD001C014010B5FFF725F8FEF736
:103A600059F9FEF7C3FBFEF72BF810BD411EC8B293
:103A700020B94FF400610B4A116011E0012803D115
:103A80008021084A11600BE0022803D1C101054AD8
:103A9000116005E0032803D14FF40071014A116061
:103AA00070470000101C0140012806D11049096828
:103AB00081F400610E4A116019E0022806D10C4918
:103AC000096881F080010A4A116010E0032806D1DC
:103AD0000749096881F48071054A116007E00428EC
:103AE00005D10349096881F40071014A11607047EA
:103AF0000C1C014070B5044600250026012C00DA9C
:103B000003E09D2113A0FFF7EFFC04EB44001E49E6
:103B100001EB8000806808B9002070BD04EB44010F
:103B2000194A02EB810101F10800012100F06EF950
:103B300005462E1F306820F0404040F08040306045
:103B4000124830F814200021284600F041FC284695
:103B5000E3E700002E2E5C2E2E5C4D6964646C65DC
:103B6000776172655C626C75655F616E67656C5CE0
:103B70007372635C636F6D6D6F6E5C62745F6D65B5
:103B80006D6F72792E630000A04F0020F272000862
:103B90002DE9F84304460E462F4800904FF00008E8
:103BA000012C00DA03E0AF212CA0FFF79DFC04EB11
:103BB0004400374951F82000B04207D804EB4400D4
:103BC00001EB80004068B04200D303E0B02123A0A5
:103BD000FFF78AFC351F286820F040402844071D65
:103BE00001212868B1EB907F01D100BF03E0B32130
:103BF0001AA0FFF779FC04226946384600F089F9DB
:103C000000B903E0B42115A0FFF76EFC286820F08E
:103C10004040286004EB44011D4A02EB810101F1A0
:103C2000080032461B4900F05DF98046B8F1000FEC
:103C30000BD104EB4401164A02EB810101F10800AB
:103C40000222314600F01AF903E0BB2103A0FFF77E
:103C50004BFCBDE8F8830000CDABCDAB2E2E5C2E27
:103C60002E5C4D6964646C65776172655C626C752D
:103C7000655F616E67656C5C7372635C636F6D6DCD
:103C80006F6E5C62745F6D656D6F72792E6300009C
:103C9000A04F0020FD3D00082DE9F04704460D46E9
:103CA0001646224830F814000830B6FBF0F9002719
:103CB000B846BA461DB116B1012C00DA03E08C21DA
:103CC0001BA0FFF711FC04EB4400264941F82050EB
:103CD000A81904EB4401234A02EB81014860002744
:103CE00020E0124830F81400083007FB00580F4855
:103CF00030F81400C8F800000C4830F814004044B4
:103D000000F1040A1848CAF8000004EB4401154AFF
:103D100002EB810101F10800022208F1040100F028
:103D2000ADF87F1C4F45DCD3BDE8F087F272000888
:103D30002E2E5C2E2E5C4D6964646C657761726515
:103D40005C626C75655F616E67656C5C7372635C09
:103D5000636F6D6D6F6E5C62745F6D656D6F7279B0
:103D60002E630000A04F0020CDABCDAB10B500F00E
:103D70007BFB114800F002FC1048006858B900F0C5
:103D800031FB0E4908600846006800B103E0442199
:103D90000BA0FFF7A9FB1848006858B900F027FBF3
:103DA000154908600846006800B103E0482104A0F6
:103DB000FFF79AFB10BD0000AD4B00089C000020EF
:103DC0002E2E5C2E2E5C4D6964646C657761726585
:103DD0005C626C75655F616E67656C5C706C61746C
:103DE000666F726D5C72746F735C62745F706C612D
:103DF00074666F726D2E6300A40000200246106886
:103E0000884201D1012070470020FCE72DE9F041F4
:103E100005460F462E46346805B103E01C2109A073
:103E2000FFF762FB5CB1022F05D101E02646246852
:103E300020680028FAD120683060002020602046E9
:103E4000BDE8F0812E2E5C2E2E5C4D6964646C659D
:103E5000776172655C626C75655F616E67656C5CED
:103E60007372635C636F6D6D6F6E5C62745F6C69BF
:103E70006E6B6E6F64652E63000000002DE9F041EB
:103E800005460E4617462C4605B103E00E2107A055
:103E9000FFF72AFB022F04D100E0246820680028E5
:103EA000FBD1206830602660BDE8F0812E2E5C2EAC
:103EB0002E5C4D6964646C65776172655C626C75DB
:103EC000655F616E67656C5C7372635C636F6D6D7B
:103ED0006F6E5C62745F6C696E6B6E6F64652E638F
:103EE000000000002DE9F04105460F4616462C461D
:103EF0000BE031462046B84710B12046BDE8F081BE
:103F00002468AC4201D10020F8E7002CF1D1002058
:103F1000F4E770B504460D4616463246294620465B
:103F2000FCF7A5F908B1012070BD0020FCE770B5D1
:103F300004460D461646324629462046FCF76CF9E3
:103F400070BD00002DE9F04106460D464FF0000817
:103F5000002400272946304600F052F968B930465F
:103F600000F066F8234850F8260030B9402122A01E
:103F7000FFF7BAFA0020BDE8F0812D1DE81C20F003
:103F800003051C4850F8264004B103E048211AA05C
:103F9000FFF7AAFA206820F04040401B08280FD302
:103FA000201D4119134840F826102068401B001FAF
:103FB00020F040400F4951F8261008602F4606E0D7
:103FC00000210C4840F82610206820F04047391F97
:103FD000201DFCF73AF927F0404040F08040206077
:103FE000201D38441149096840F8041C04F10408F4
:103FF0004046C0E7904F00202E2E5C2E2E5C4D696F
:1040000064646C65776172655C626C75655F616E36
:1040100067656C5C7372635C636F6D6D6F6E5C6221
:10402000745F6D656D6F72792E63000088000020EB
:1040300030B51C4C54F82010002200BF0C68A30FB0
:10404000FBB90AB90A4606E014680D682C44241D21
:1040500024F040441460134C083454F820405CB100
:10406000146824F040450F4C083454F8204024686C
:1040700024F04044A54205D90A4C083444F82020D5
:1040800000E000220C6824F040440C44211D054C43
:1040900054F820400D1B034C103454F82040A54226
:1040A000CCD330BD884F00202DE9F04105460E46A7
:1040B00000240027341F206820F04041201D0844C0
:1040C000071F042217493846FCF7D1F800B903E06E
:1040D000642115A0FFF708FA01212068B1EB907F59
:1040E00000D103E0652110A0FFF7FEF91B4850F84E
:1040F0002510103050F825000844216821F0404177
:104100003144884200D303E0662107A0FFF7ECF9B1
:10411000206820F0404020602846FFF789FFBDE876
:10412000F0810000880000202E2E5C2E2E5C4D6950
:1041300064646C65776172655C626C75655F616E05
:1041400067656C5C7372635C636F6D6D6F6E5C62F0
:10415000745F6D656D6F72792E630000884F00206B
:1041600070B504460E4615461548006800B103E0D8
:10417000212114A0FFF7B8F905F0030010B9082DAC
:1041800000D303E022210FA0FFF7AEF91A4840F850
:104190002450103840F8246050F82410083040F8BB
:1041A000241070191549096840F8041C281F20F0D4
:1041B00040401149103951F82410086070BD0000CA
:1041C0008C0000202E2E5C2E2E5C4D6964646C6584
:1041D000776172655C626C75655F616E67656C5C6A
:1041E0007372635C636F6D6D6F6E5C62745F6D653F
:1041F0006D6F72792E630000984F002088000020B8
:104200000246091D074850F8220048B1054850F8F9
:104210002200006820F04040884201D90120704708
:104220000020FCE7904F00207CB58C2253490020F1
:10423000FFF732FD0020FFF75DFC0446002050A18F
:10424000CDE900100CB1012100E0002108464DA38A
:1042500059A24B21FCF7D0FB21460020FFF798FC28
:104260000020FFF747FC0446002045A1CDE90010DF
:104270000CB1012100E00021084642A34EA24F21CB
:10428000FCF7BAFB21460020FFF782FC0020FFF775
:1042900031FC044600203AA1CDE900100CB1012107
:1042A00000E00021084637A343A25321FCF7A4FBFA
:1042B00021460020FFF76CFC0020FFF71BFC0446A2
:1042C00000202FA1CDE900100CB1012100E0002158
:1042D00008462CA338A25721FCF78EFB214600206C
:1042E000FFF756FC0020FFF705FC0446002024A140
:1042F000CDE900100CB1012100E00021084621A306
:104300002DA25B21FCF778FB21460020FFF740FC43
:104310000020FFF7EFFB0446002019A1CDE90010B3
:104320000CB1012100E00021084616A322A25F2162
:10433000FCF762FB21460020FFF72AFC4FF4805275
:1043400021490020FFF70CFF4FF480521F49012044
:10435000FFF706FF08210020FFF7F4FD05461021B6
:104360000120FFF7EFFD064629460020FFF79CFEDF
:1043700031460120FFF798FE7CBD0000AC4F0020C5
:10438000000000002E2E5C2E2E5C4D6964646C656E
:10439000776172655C626C75655F616E67656C5CA8
:1043A000706C6174666F726D5C746573745C62745A
:1043B0005F746573742E630074696D657220213DAE
:1043C000204E554C4C000000385000203860002032
:1043D00070B506460C461546224629463046FBF780
:1043E0002DFF70BD10B5042002F042F910BD10B5CC
:1043F00003220021012002F05FF910BD012080F3AB
:10440000108800BF7047002080F3108800BF7047FD
:1044100010B502F01DFD10BD10B5044602F008FDF8
:10442000012800D110BD204602F0A3FB00BFF9E730
:1044300010B5044602F0FCFC012800D110BD002399
:104440001A461946204602F053FA00BFF6E738B57F
:10445000044602F0EDFC012800D138BD6946204633
:1044600002F03DFB00BFF8E708B50C48006898B9BA
:104470000B4800231A464FF6FF71009009A002F086
:104480009BFE064908600846006808B100BF03E0CB
:10449000222107A0FFF728F808BD000094000020A3
:1044A0003947000842545F54696D6572000000008E
:1044B0002E2E5C2E2E5C4D6964646C65776172658E
:1044C0005C626C75655F616E67656C5C706C617475
:1044D000666F726D5C72746F735C62745F6F735F32
:1044E0006C617965725F6170692E630004480068D1
:1044F000C0F3090109B9002070470120FCE7000062
:1045000004ED00E010B502F093FC022801D1012077
:1045100010BD0020FCE7000010B50848006800B19D
:1045200003E0302106A0FEF7DFFF0448006802F038
:10453000CBFE08B1012010BD0020FCE79400002054
:104540002E2E5C2E2E5C4D6964646C6577617265FD
:104550005C626C75655F616E67656C5C706C6174E4
:10456000666F726D5C72746F735C62745F6F735FA1
:104570006C617965725F6170692E630010B50446E5
:1045800004B103E01A2103A0FEF7AEFF1048046057
:1045900010BD00002E2E5C2E2E5C4D6964646C658F
:1045A000776172655C626C75655F616E67656C5C96
:1045B000706C6174666F726D5C72746F735C627440
:1045C0005F6F735F6C617965725F6170692E630004
:1045D00098000020F8B5044625461748006800B149
:1045E00003E03B2115A0FEF77FFFFFF795FF08B121
:1045F00000F042F8002003462A46042100900E48AD
:10460000006802F027FE00B103E03F210BA0FEF797
:104610006BFF02F01DFC06460020034632460221D5
:1046200000900548006802F015FE00B103E040214B
:1046300002A0FEF759FFF8BD940000202E2E5C2E3C
:104640002E5C4D6964646C65776172655C626C7543
:10465000655F616E67656C5C706C6174666F726DCE
:104660005C72746F735C62745F6F735F6C617965A9
:10467000725F6170692E630008B50948006800B177
:1046800003E0452107A0FEF72FFF00200346024666
:10469000032100900248006802F0DCFD08BD000024
:1046A000940000202E2E5C2E2E5C4D6964646C6597
:1046B000776172655C626C75655F616E67656C5C85
:1046C000706C6174666F726D5C72746F735C62742F
:1046D0005F6F735F6C617965725F6170692E6300F3
:1046E00010B5044602F0A4FB012800D110BD4FF024
:1046F000FF31204602F09EFA00BFF7E770B505468D
:104700000C4602F095FB012800D170BD0023224623
:104710001946284602F003F800BFF6E738B504460C
:1047200002F086FB012800D138BD6A4600212046F0
:1047300002F03CFA00BFF7E710B5044603480068F2
:1047400010B102480068804710BD000098000020AA
:1047500010B50024FFF752FE0C480468FFF753FE23
:104760000B480068FFF7BCFF04F0010010B100F037
:1047700057F806E004F0020018B904F0040000B98C
:1047800000BF03480068FFF747FE10BDA0000020EF
:104790009C00002010B50A48006800B103E01A210F
:1047A00008A0FEF7A1FEFFF7A1FE20B104480068B3
:1047B000FFF74DFE03E002480068FFF739FE10BD29
:1047C000A40000202E2E5C2E2E5C4D6964646C6566
:1047D000776172655C626C75655F616E67656C5C64
:1047E000706C6174666F726D5C72746F735C62740E
:1047F0005F706C6174666F726D2E630010B5FFF7A9
:1048000075FE20B105480068FFF788FF05E04FF00E
:10481000FF3102480068FFF771FF10BDA4000020BF
:104820002DE9F04186B0002500F0E0F806460027AB
:1048300000200590002414216846FBF706FD254C56
:1048400011E0256875B1E868B0420BD80121204617
:10485000FFF7DCFA80460222414605A8FFF70EFB6F
:104860001C4C00E02468002CEBD1059810B906B070
:10487000BDE8F08116E0059D142229466846FFF741
:1048800056FB049830B100230120DDF810C0DDE9AB
:104890000112E047012105A8FFF7B8FA29460020D8
:1048A000FFF776F905980028E5D10A48006870B14D
:1048B00000F0E8F800F09AF8064606480068C0687C
:1048C000871B002F00DA0027384600F0D5F800BF1C
:1048D000CDE70000900000202DE9F04704460D468A
:1048E00000260027B046B1460CB105B103E02721F0
:1048F0000EA0FEF7F9FD2E46276817B90120BDE886
:10490000F087F8683168A0EB0108F8683168401A50
:104910007168A0EB0109B8F1000F04DDB9F1000FD7
:1049200001DD0120EBE70020E9E700002E2E5C2EE0
:104930002E5C4D6964646C65776172655C626C7550
:10494000655F616E67656C5C7372635C636F6D6DF0
:104950006F6E5C62745F74696D65722E6300000037
:104960002DE9F04104460D46002600270CB105B1A3
:1049700003E0172107A0FEF7B7FD266816B901204E
:10498000BDE8F0812F687068B84201D10120F7E7D7
:104990000020F5E72E2E5C2E2E5C4D6964646C655C
:1049A000776172655C626C75655F616E67656C5C92
:1049B0007372635C636F6D6D6F6E5C62745F74695C
:1049C0006D65722E6300000031B500246A4605490A
:1049D0000548FFF787FA04460CB1206838BD00206F
:1049E000FCE70000614900089000002010B5FFF7C7
:1049F0000FFD10BD2DE9FC4707460D469046994630
:104A0000002400200090019000263846FFF7DCFFCC
:104A100010B10220BDE8FC870020FFF76BF80446C8
:104A20000CB92020F6E7FFF7F3FC009001956760D2
:104A3000C4F80880C4F81090DDE900010844E06083
:104A40006A460B490B48FFF74DFA064676B101223C
:104A500021463046FFF712FA0648864204D100F09C
:104A600011F8284600F008F80120D3E70220D1E72A
:104A7000D94800089000002010B504462046FFF7F2
:104A8000A9FD10BD10B5FFF7F7FD10BD7CB5224C98
:104A9000FFF7BEFC21490860214B0022642120461B
:104AA000FFF7A8FF012800D100E000200546002004
:104AB0001CA11DA329A2CDE900108F212846FBF7D8
:104AC0009BFF364B00226421601CFFF793FF0128F7
:104AD00000D100E000200546002012A112A3304AB8
:104AE000CDE9001090212846FBF786FF2D4B0022D0
:104AF0006321A01CFFF77EFF012800D100E0002009
:104B00000546002007A108A3274ACDE900109121FE
:104B10002846FBF771FF7CBD030C0020A800002095
:104B2000D95C0008000000002E2E5C2E2E5C4D6922
:104B300064646C65776172655C626C75655F616EFB
:104B400067656C5C706C6174666F726D5C746573C4
:104B5000745C62745F746573742E630042545F53B7
:104B600054415455535F53554343455353203D3DA2
:104B70002062745F74696D65725F7374617274280A
:104B800074696D65725F69642C203130302C20307F
:104B90002C2074696D656F7574290000C55D00086F
:104BA00038730008B55E00087C73000810B5FFF785
:104BB00025FC0548006840F0010003490860FFF744
:104BC00022FCFFF7E7FD10BDA000002070B50546F0
:104BD000002400262C680EE0E06810B1E06800F0C8
:104BE0006DF9A06810B1A06800F068F9A6692046C8
:104BF00000F064F93446002CEED10020286070BD2E
:104C000070B5044600250026A56807E02E692846F1
:104C100000F010F8284600F051F93546002DF5D186
:104C2000206810B1206800F049F900202060A060E1
:104C3000E06170BD10B50446206810B1206800F036
:104C40003DF90020206010BD70B504460025002607
:104C5000A56807E02E6A2846FFF7D2FF284600F035
:104C60002DF93546002DF5D10020A0602060606050
:104C700070BD000070B504460D4600206063A0635F
:104C8000E06320646064A064E064206560650021E6
:104C9000A165E165286810B12846FFF797FF00205D
:104CA0000149086070BD00008401002010B5FFF7C5
:104CB00029FC10B1FFF7ACFB10BD0020FCE72DE98B
:104CC000F04105460E4617462846FCF7E1FE04462D
:104CD0000CB9BDE8F081E06908B1E06980473A4667
:104CE00031462046FDF7ABFE00BFF2E713B50446A0
:104CF000012201A92046FFF7E2FF1CBD2DE9F04784
:104D000005460E4617469846DDF82090302000F004
:104D100049F9044604B32846FBF7A2FA00F1010A58
:104D2000504600F03FF92060206888B1294620688D
:104D3000FBF7AAFA01206060E6602761C4F81480DE
:104D4000C4F818900020A06020626062E06103E077
:104D5000204600F0B3F800242046BDE8F0872DE996
:104D6000F04105460E46182000F01CF90446CCB16F
:104D70002846FBF775FA471C384600F013F9206007
:104D8000206858B129462068FBF77EFA0120606050
:104D9000A6600020E0602061606103E0204600F032
:104DA0008DF800242046BDE8F081000070B504466F
:104DB0000D4600260848006808B9012070BD2A4643
:104DC000214605480068FBF7D9FD06460EB90120CB
:104DD000F4E70020F2E70000AC01002010B5002449
:104DE000FCF738FD20B10EA0FDF77EFE012010BDBE
:104DF0001648006858B90022114615A0FBF778FD47
:104E0000124908600846006808B90120EFE702204F
:104E1000FBF762FE2046FCF70FFE0020E7E70000EC
:104E20000A496E697469616C697A6174696F6E2090
:104E30006F66205465737420526567697374727964
:104E4000206661696C65642E0D0A0000AC010020CB
:104E500073756974655F666F725F74657374000063
:104E600010B50024FBF702FE0446214603A0FDF71F
:104E70003BFE0CB1012010BD0020FCE70A54657315
:104E8000747320636F6D706C6574656420776974EA
:104E9000682072657475726E2076616C7565202568
:104EA000642E0A0000BF704770B504460D46E1B29B
:104EB0000020FFF71BFF204670BD000010B5002842
:104EC00021D0114B0022001F196803E0814203D852
:104ED0000A4649680029F9D152B11368841A9C42E4
:104EE00004D1006818441060104602E0506000E0F1
:104EF000186039B102680B1A934203D10B681A4447
:104F000002604968416010BDB801002001462C22B2
:104F1000002902DA064800687047914203DD044820
:104F200050F82200F8E7024850F82100F4E70000AA
:104F3000BC0000200022826800230B6203685B1C17
:104F400003601AB9816000234B6207E001E0126A36
:104F500000BF136A002BFAD111624A627047002227
:104F60008268C3695B1CC3611AB9816000234B610D
:104F700007E001E0126900BF1369002BFAD111614B
:104F80004A617047012080F3108800BFFEF75EFC85
:104F9000FEF7ECFEFFF722FFFBF776FC01F094FA38
:104FA00000BFFEE7F0B50B30154D20F007010024DF
:104FB000144A0FE003688B420BD38B4205D95E1A6B
:104FC00043184768C3E9006700E04368136002C004
:104FD00004E0021D10680028ECD12046002802D110
:104FE000286808B10020F0BD064A07481060074A4B
:104FF000121A22F00702C0E9002401202860D7E736
:10500000BC010020B80100209C700020987800208E
:1050100010B504460E48006844600E48006884429B
:1050200007D20B480168091D0B48006801F032F8EF
:105030000CE007480168091D0848006801F02AF8DB
:1050400007480068844201D20548046010BD000092
:105050001C00002030000020240000202000002040
:105060004C0000202DE9F04106460F461FB9B00064
:1050700000F0B4FB00E03846054655B1542000F07E
:10508000ADFB04460CB1256304E0284601F060F84E
:1050900000E000242046BDE8F081000010B501F0DA
:1050A0001FF810480068C8B90F4800F0E3FF0F4828
:1050B00000F0E0FF0C480E4908600C480D490860FC
:1050C00000220C210A2001F0F7FA06490860084680
:1050D000006818B9FBF77AF800BFFEE701F022F884
:1050E00010BD00005C000020600B0020740B00204D
:1050F000540000205800002070B523E001F018FA99
:105100001348006808B9012000E00020054601F0BE
:10511000DFFFBDB900F0E4FF0D48C068C468201D82
:1051200000F040FF0B480068401E0A4908600A482A
:105130000068401E0849086000F0F4FF204600F0B7
:1051400062F800BF044800680028D7D170BD000095
:10515000380B00202C0000202800002070B50446E9
:105160000D46206C70B1216CE0680844E060616815
:10517000E068884201D32068E0602846226CE1683C
:10518000FBF74AF870BD2DE9F04104460E4615467E
:105190000027206C40B9206878BB606801F0FCFEF5
:1051A00007460020606028E07DB93146226CA06887
:1051B000FBF732F8216CA0680844A060D4E9011024
:1051C00088421AD32068A06017E03146226CE0685C
:1051D000FBF722F8216CE068401AE0602168E06883
:1051E000884203D2216C6068401AE060022D04D12D
:1051F000A06B10B1A06B401EA063A06B401CA0630D
:105200003846BDE8F08110B50446206B00F0A0FFE1
:10521000204600F09DFF10BD0146084A1268126842
:105220000AB9012200E000220A600A6822B9034A92
:105230001268D268106800E0002070475400002017
:1052400030B54FF48843174800F007042CB1C01D57
:1052500020F00700134C041B1B1B0246124C22605B
:105260000024114D6C60D018083820F007000F4C56
:10527000206000240D4D2D686C600C4D2D682C6055
:105280001146441A4C60094C24680C60084D4C6867
:105290002C60084D4C682C604FF00044064D2C608B
:1052A00030BD0000880B0020700000207800002036
:1052B000800000207C0000208400002000BFFFF759
:1052C0001BFF034800680128F9D900F0B5FFF6E795
:1052D000980A00202DE9F04704460F4615469946E6
:1052E000DDF82080002607E0B95D04F13400815527
:1052F000B85D00B902E0761C102EF5D300BF002186
:1053000043200155052D00D30425E5626564002086
:10531000A064201D00F0BBFE04F1180000F0B7FEF1
:105320002461C5F10500A06164620020E06484F896
:105330005000BDE8F087000010B5002407E004EB42
:1053400084010F4A02EB810000F094FE641C052CDE
:10535000F5D30C4800F08EFE0B4800F08BFE0B4896
:1053600000F088FE0A4800F085FE0A4800F082FE40
:1053700004480949086004480849086010BD000055
:10538000980A0020FC0A0020100B0020240B0020AB
:10539000380B00204C0B00202000002024000020AF
:1053A00010B50146164800E0006803688B42FBD345
:1053B0000246436813448B4204D143684C6823443B
:1053C000436001460A464B6813440468A34211D166
:1053D0000C4C03682468A34208D04B6804686468D6
:1053E00023444B6003681B680B6005E0054B1B689A
:1053F0000B6001E003680B60884200D0016010BDC3
:1054000070000020780000202DE9F04104460D4690
:1054100016461F464FF0000865602461B5420CD85F
:10542000F01BA169884202D34FF0010811E0211D51
:105430000948006800F02EFE0BE0BE4204D2BD42D7
:1054400002D34FF0010804E0211D0448006800F079
:1054500021FE4046BDE8F0815800002054000020A5
:1054600070B5054600F03CFEA86B08B9012400E0C9
:10547000002400F057FE204670BD70B5054600F0D0
:105480002FFEA86BE96B884201D1012400E00024C3
:1054900000F048FE204670BDF8B505460F4613489B
:1054A0000068C068C468201D00F07CFDE069012828
:1054B00017D1A06941192B463A462046FFF7A4FFB1
:1054C00001280ED1002003462A46014600902046BE
:1054D00001F0C0FE06461EB9FAF778FE00BFFEE7EF
:1054E00000BF2046616A8847F8BD000054000020D4
:1054F00070B586B05DE0039800285ADB059C6069B2
:1055000008B9012000E0002010B9201D00F04AFD7C
:1055100002A800F0A7F8054603980A2847D2DFE85A
:1055200000F00905072B2D4206082C2E00BF00BFF6
:1055300000BF00BF0498A269811803462A4620468E
:10554000FFF762FF012816D12046616A8847E069AB
:10555000012810D1002000900498A169421800236E
:105560001946204601F076FE06461EB9FAF72EFED1
:1055700000BFFEE700BF1BE000BF19E000BF0498BA
:10558000A061A06908B1012000E0002018B9FAF775
:105590001DFE00BFFEE7A06941192B462A462046A2
:1055A000FFF732FF04E0204600F0D2FD00E000BF2C
:1055B00000BF00231A4603A90348006801F0AFF8B2
:1055C000002898D106B070BD5C000020F8B50546F3
:1055D0000C4600F0ADFF684600F044F8064600981F
:1055E000F0B944B9B54206D801F072FD31462846FB
:1055F000FFF752FF16E03CB10B480068006808B99D
:10560000012000E000200446A91B2246074800684C
:1056100000F01EFE01F05CFD20B900F00DFE01E07F
:1056200001F056FDF8BD0000580000205C0000208D
:105630000A490968096809B9012100E0002121B17E
:105640004FF0FF31064A116006E004490968C96855
:10565000C868034A416811607047000020000020BC
:105660004C00002070B5044601F0F2FB05460748E7
:105670000068854204D200F00BF80120206001E0B0
:105680000020206001480560284670BD60000020B1
:105690002DE9F8432BE020480068C06805681E48E3
:1056A0000068C068C468201D00F07CFC2046616A68
:1056B0008847E06901281AD1A0694619AE4207D986
:1056C00066602461211D1448006800F0E3FC0EE0D0
:1056D000002003462A4601460090204601F0BAFD0C
:1056E00007461FB9FAF772FD00BFFEE700BF0A4880
:1056F0000068006808B9012000E000200028CAD036
:105700000548D0F800800548006803490860034850
:10571000C0F80080BDE8F883540000205800002045
:1057200007480068401C08B9012000E0002018B9B3
:10573000FAF74CFD00BFFEE7FAF748FD00BFFEE7B1
:105740006400002008B500BF6846FFF765FD044609
:1057500020460099FFF73AFFFFF7CAFEF4E710B5BD
:10576000044600F0BDFC11E0606A08B9012000E0C9
:10577000002038B904F1240001F064FC18B100F0F5
:10578000C1FD00E005E0A06C401EA064A06C0028F4
:10579000EADC00BF4FF0FF30A06400F0C3FC00F073
:1057A0009FFC11E0206908B9012000E0002050B9F9
:1057B00004F1100001F046FC08B100F0A3FD606C9C
:1057C000401E606400E002E0606C0028EADC00BF7C
:1057D0004FF0FF30606400F0A5FC10BD2DE9F041F2
:1057E00004464FF0000800F0A3FE3C48006808B9EA
:1057F000FFF726FD3A480068204000285DD19CB1A3
:10580000083404F0070078B104F00700C0F1080084
:10581000044404F0070008B9012000E0002018B992
:10582000FAF7D4FC00BFFEE7002C46D02D480068F4
:10583000844242D82C4E3046056801E02E462D6841
:105840006868A04202D228680028F7D1234800687F
:10585000854232D0306800F10808286830606868F6
:10586000001B102812D92F1907F0070008B90120D2
:1058700000E0002018B9FAF7A9FC00BFFEE768684D
:10588000001B78606C603846FFF78AFD1549686830
:105890000968081A1349086008460068134909682E
:1058A000884203D20F480068104908600C496868B4
:1058B0000968084368600020286001F009FC08F0CE
:1058C000070008B9012000E0002018B9FAF77EFCB3
:1058D00000BFFEE74046BDE8F081000078000020F0
:1058E000840000207C000020700000208000002048
:1058F0000648006830B10549096801F14800896C23
:10590000491C016001480068704700001C0000202D
:10591000001F4FF080730360001F0160001F034BE6
:1059200003601438026020387047000021570008D7
:105930002DE9FF4704460D4600266248D0F8008056
:105940000027D5F854A000205F4908605F48046034
:105950005F48006818B120465D490968884760685B
:1059600000287AD0E06800281BD0E0688047C0B1EA
:105970005848006818B12046564909688847A86BFE
:10598000401CA863002054A157A20346CDE901148E
:105990000092039002225F495F48FDF741FD162700
:1059A00071E0A6682AE0706850B12946304600F0E0
:1059B000D7F881460FB9484600E03846074614E05C
:1059C0005448806C401C534988645448006860B156
:1059D00041A053A100230422CDE90246CDE90010E5
:1059E0004C494D48FDF71CFD222736691FB9A06AB6
:1059F000401CA06202E0E06A401CE0622EB1002F71
:105A0000D1D0FBF7E5F80028CDD0686B401C686367
:105A10002069002837D020698047002833D04448C7
:105A2000006818B12046424909688847A86B401CA5
:105A3000A863002028A13FA20346CDE901140092EB
:105A40000390032233493448FDF7EAFC17B91720C5
:105A500001E002E03846074615E02E48C06B401CC6
:105A60002C49C8632D48006868B100201AA137A2EC
:105A70000346CDE9011400920390012225492648EE
:105A8000FDF7CEFC1927686D504509D9B8F1000F14
:105A900002D0D8F8188005E01F48D0F8008001E057
:105AA0004FF000082D48006820B1414620462B4A9F
:105AB00012689047002005490860384604B0BDE8E8
:105AC000F0870000840100207C0100207801002084
:105AD00090010020A401002043556E697420537981
