:020000040800F2
:1000000018080020311C0008FD1A0008FF1A00081B
:100010002D1B00082F1B0008311B000800000000EA
:100020000000000000000000000000008F08000831
:10003000331B0008000000003D080008F909000813
:10004000891C00088D1C0008911C0008951C0008E4
:10005000991C00089D1C0008A11C0008A51C000894
:10006000A91C0008AD1C0008B11C0008B51C000844
:10007000B91C0008BD1C0008C11C0008C51C0008F4
:10008000C91C0008CD1C0008D11C0008D51C0008A4
:10009000D91C0008DD1C0008E11C0008E51C000854
:1000A000E91C0008ED1C0008F11C0008F51C000804
:1000B000F91C0008FD1C0008011D0008051D0008B2
:1000C000091D00080D1D0008111D0008151D000860
:1000D000191D00089F1400081D1D0008211D00089F
:1000E000251D0008291D00082D1D0008311D0008D0
:1000F000351D0008391D00083D1D0008411D000880
:10010000451D0008491D00084D1D0008511D00082F
:10011000551D0008591D00085D1D0008611D0008DF
:10012000651D0008691D00086D1D0008711D00088F
:100130002DE9FA4F83B0040015000E9E0F9FDDF8E5
:100140004080DDF844902000002802D100F095FBAB
:10015000FEE7052E02D300F090FBFEE741462800A3
:1001600080B200F00AFB8246BAF1000F70D0DAF8D4
:100170003000ADB210EB8500001F83465FEADB0B59
:100180005FEACB0B1BF00700002802D000F075FBE4
:10019000FEE7280080B200904B463200039950469B
:1001A00000F032FA049A2100584600F091FBCAF898
:1001B0000000002F01D0C7F800A000F0F0FBDFF82E
:1001C00018040068401CDFF810140860DFF82C04E5
:1001D000006800280BD1DFF82404C0F800A0DFF885
:1001E000F8030068012811D100F041FA0EE0DFF8B1
:1001F000EC030068002809D1DFF800040068C06A39
:10020000864203D3DFF8F403C0F800A0DFF8D00380
:100210000068401CDFF8C8130860DFF8E4030068DA
:100220000121DAF82C2091400843DFF8D41308604C
:100230001AF10401DFF8CC03DAF82C20142303FBB5
:10024000020000F010FC0120019000F0C0FB02E071
:100250005FF0FF300190019801280CD1DFF87C039A
:100260000068002807D0DFF894030068C06AB04235
:1002700001D200F08BFB019805B0BDE8F08F70B59E
:1002800004000026002C2BD0DFF868050068002849
:1002900002D000F0F2FAFEE700F053F8DFF88C0429
:1002A000006820180500DFF854030068001D00F006
:1002B00003FC00280ED1DFF844030068DFF8401388
:1002C00009680122C06A12FA00F031EA0000DFF882
:1002D00030130860280000F02BFA00F03AF806000E
:1002E000002E01D100F052FB70BD1FB5002003901D
:1002F0000020029000200190002000900023802226
:10030000DFF8F8140FF2DD20FFF712FF0400012CD4
:1003100011D100F0B2FA5FF0FF30DFF8E4140860AA
:100320000120DFF8B81208600020DFF8E014086050
:1003300000F0E8FA04E0002C02D100F09EFAFEE79B
:100340001FBDDFF8B0040068401CDFF8A814086087
:10035000704738B50025DFF89C040068002802D1FA
:1003600000F08BFAFEE700F01AFBDFF88804006863
:10037000401EDFF880140860DFF878040068002869
:1003800057D1DFF854020068002852D0DFF8740417
:10039000006800282AD0DFF86C04C068C068040038
:1003A00014F1180000F088FB201D00F085FBDFF839
:1003B000500200680121E26A91400843DFF84012D0
:1003C0000860211DDFF83C02E26A142303FB0200EF
:1003D00000F049FBE06ADFF824120968C96A884224
:1003E000D4D30120DFF828140860CFE7DFF8180421
:1003F0000068002814D0DFF81004006800280FD02F
:1004000000F01BF8002803D00120DFF80414086076
:10041000DFF8F4030068401EDFF8EC130860EAE739
:10042000DFF8EC030068012803D10120050000F08B
:10043000ADFA00F0CCFA280032BD2DE9F0410026DB
:10044000DFF8B0030068002840F08080DFF8DC02AD
:100450000068401CDFF8D4120860DFF8D00207689B
:10046000002F1FD1DFF8B00300680068002802D019
:1004700000F003FAFEE7DFF8A00300688046DFF82B
:100480009C030068DFF890130860DFF89003C0F861
:100490000080DFF88C030068401CDFF884130860DC
:1004A00000F092F9DFF858030068874240D3DFF884
:1004B000680300680068002805D15FF0FF30DFF8AE
:1004C0004013086034E0DFF850030068C068C0687B
:1004D000040060680500AF4203D2DFF82403056022
:1004E00026E0201D00F0E8FAA06A002803D014F1ED
:1004F000180000F0E1FADFF8080100680121E26A63
:1005000091400843DFF8F8100860211DDFF8F4007F
:10051000E26A142303FB020000F0A5FAE06ADFF8A8
:10052000DC100968C96A8842C1D301200600BEE711
:10053000DFF8D00031490968C96A142202FB0100C2
:100540000068022809D30120060006E0DFF8B8029F
:100550000068401CDFF8B0120860DFF8B4020068E1
:10056000002801D0012006003000BDE8F08110B560
:10057000DFF880020068002804D00120DFF8901224
:10058000086028E00020DFF8881208601C48006836
:10059000B0FA80F0D0F11F0004001A48142101FBCA
:1005A00004000068002802D100F067F9FEE7154951
:1005B000142202FB04110800416849684160416847
:1005C00010F10802914202D14168496841604068D7
:1005D000C0680A49086010BDF4550020005600208C
:1005E0001056002010B5040000F06DF8DFF834025A
:1005F00000680228F8D300F0C9F9F5E7E4550020B7
:10060000FC550020B85400202DE9F04104000D00F5
:1006100016001F0000208046B8F1100F0CD218F809
:10062000050018EB040181F8340018F805000028D3
:1006300002D018F10108EFE7002084F84300052EEE
:1006400001D304200600E662201D0021016114F19F
:100650001800002101612461D6F10500A0616462E7
:1006600000206064002084F84800BDE8F08110B5E7
:1006700000200400052C08D2DFF8A801142101FB9A
:10068000040000F0E1F9641CF4E7DFF89C0100F0DD
:10069000DBF9DFF8980100F0D7F9DFF8680100F026
:1006A000D3F9DFF88C0100F0CFF9534800F0CCF912
:1006B000DFF87401DFF860110860DFF87001DFF81F
:1006C0005C11086010BD38B5DFF8680100680028CB
:1006D0002BD0FFF736FEDFF858010068002801D163
:1006E000012400E00024FFF734FE002CECD100F0E0
:1006F00056F9DFF83C01C068C0680500281D00F00D
:10070000DBF9DFF810010068401EDFF8081108600F
:10071000DFF820010068401EDFF81811086000F0C3
:1007200056F9280000F047F8CEE731BDF855002013
:1007300010B50400DFF8000100684460DFF8CC0069
:100740000068844209D2DFF8F0000068011DDFF87C
:10075000CC00006800F093F90EE0DFF8DC000068E0
:10076000011DDFF8B400006800F089F92448006832
:10077000844201D22248046010BDF8B504000D0087
:10078000002D04D1A4B2A00000F0AAF900E02800D6
:100790000700002F0BD04C2000F0A2F90600002E1D
:1007A00001D0376305E0380000F017FA01E00020BF
:1007B00006003000F2BD10B50400206B00F00DFA09
:1007C000200000F00AFA10BDDFF84C100968096833
:1007D000002904D15FF0FF31094A116008E0DFF819
:1007E00038100968C968C96808004168044A11607E
:1007F0007047000018560020945500207C1C00080B
:10080000145600206C55002004560020F855002096
:1008100008560020F4550020E8550020EC55002033
:100820000C560020B8540020445500205855002094
:1008300080550020F0550020E4550020EFF309809A
:10084000BFF36F8F204B1A6820E9F00F106008B5D6
:100850004FF0100080F31188FFF789FE4FF0000081
:1008600080F31188BDE8084019680868B0E8F00F07
:1008700080F30988BFF36F8F7047EFF311804FF05B
:10088000100181F31188704780F3118870470E4B77
:1008900019680868B0E8F00F80F30988BFF36F8F1C
:1008A0004FF0000080F311884EF00D0E704707489E
:1008B0000068006880F3088862B661B6BFF34F8FA6
:1008C000BFF36F8F00DF0000E455002008ED00E06B
:1008D000001F5FF080730360001F0160001F0FF2B4
:1008E0000D030360143802602038704780B54D480E
:1008F000006810F1010F02D0FFF7BFFFFEE7FFF71E
:10090000BCFFFEE700B583B0474801780191FF21A5
:10091000017001788DF800109DF8001011F01001A1
:10092000424A11700721424A11609DF800100906E1
:100930000AD53F490968491E3D4A11609DF80010DB
:1009400049008DF80010F0E7394909680902384A72
:1009500011603749096811F4E061354A1160019965
:1009600001703448006850F4700032490860314822
:10097000006850F070402F49086000F04CF80020EB
:1009800028490860FFF793FF00200EBD5FF08050FC
:1009900029490860BFF34F8FBFF36F8F704780B551
:1009A000FFF76BFF1F480068401C1E490860BFF33B
:1009B0004F8FBFF36F8F1B480068012806D11E4878
:1009C0000068000602D0FFF758FFFEE701BD80B5C2
:1009D00014480068002802D1FFF74FFFFEE71148D6
:1009E0000068401E0F4908600E480068002802D1C8
:1009F000002080F3118801BD80B5FFF73EFFFFF7AF
:100A00001CFD002803D05FF080500B4908600020D7
:100A100080F3118801BD0948094908600720094988
:100A2000086070470000002000E400E01C56002031
:100A3000E055002020ED00E004ED00E03F1901004A
:100A400014E000E010E000E010F1080141605FF008
:100A5000FF31816010F10801C16010F108010161EE
:100A600000210160704742684A6093688B60936818
:100A700059609160086103685B1C0360704710B4A3
:100A80000B6813F1010F02D10469220008E010F194
:100A90000804220054682468A34201D35268F9E78D
:100AA00054684C604C68A1608A60516008610468B9
:100AB000641C046010BC7047010008698A684B68B8
:100AC0009A604A688B685A6042688A4201D18A6893
:100AD000426000220A610268521E0260006870478C
:100AE0002DE9F04104005FF00008FFF72AFC884878
:100AF0000068002801D100F0A2F88648006804428E
:100B00005FD1002C10D084480068041914F0070F3E
:100B10000AD014F1080014F00701441A14F0070F6A
:100B200002D0FFF7AAFEFEE7002C4AD07B480068FF
:100B3000A04246D37A4806007948006805006868F4
:100B4000A04205D22868002802D02E002D68F6E7C2
:100B50006F480068854234D030686F4909680818CA
:100B60008046286830606C48006840006968091B4E
:100B700088420FD26019070017F00700002802D042
:100B8000FFF77BFEFEE76868001B78606C6038004A
:100B900000F08CF8614800686968401A5F49086095
:100BA0005E4800685F490968884203D25B48006874
:100BB0005C49086068685749096808436860002014
:100BC0002860FFF7C6FB18F00700002802D0FFF7E7
:100BD00054FEFEE74046BDE8F08170B504002600F3
:100BE000002C2BD04C480068361A350068684949FB
:100BF0000968084202D1FFF740FEFEE72868002896
:100C000002D0FFF73AFEFEE76868424909680842E9
:100C100014D02868002811D168683E4909688843C3
:100C20006860FFF78EFB3D480068696808183B491B
:100C30000860280000F03AF8FFF78BFB70BD30B475
:100C40004FF48843384C220012F0070F05D0D21D14
:100C5000D208D2009B1A344CE3181100304C2160AA
:100C600000242F4D6C605C1822002B4C2468121B52
:100C7000D208D200264C22600024254D2D686C60DD
:100C80000024234D2D682C600800141A4460204C69
:100C9000246804604468234D2C6044681F4D2C6018
:100CA0005FF000441B4D2C6030BC704710B41C4BEF
:100CB0001A001368834201D21268FAE711005368E0
:100CC0005B18834204D153684468E31853601000F2
:100CD000010043685B181468A34211D113680C4CDF
:100CE0002468A34208D0436814686468E31843602A
:100CF00013681B68036005E0054B1B68036001E097
:100D000013680360824200D0106010BC704700007E
:100D1000C0550020CC550020841C0008C45500207C
:100D2000B8550020C855002018080020DFF89002B0
:100D3000006880040BD4DFF88C020068C00706D47A
:100D4000DFF884020068C00501D5012000E0002022
:100D50007047DFF86C02006880040BD5DFF864028E
:100D60000068C00706D5DFF860020068C00501D53D
:100D7000012000E000207047DFF844020068800492
:100D80000BD5DFF840020068C00706D4DFF8380250
:100D90000068C00501D4012000E000207047DFF8A2
:100DA0002002006880040BD4DFF818020068C00736
:100DB00006D5DFF814020068C00501D5012000E067
:100DC00000207047DFF8F801006880040BD5DFF8D9
:100DD000F4010068C00706D5DFF8EC010068C00523
:100DE00001D4012000E000207047DFF8DC0100683A
:100DF000000401D4012000E000207047DFF8CC019E
:100E00000068000701D4012000E000207047DFF8EF
:100E1000B8010068400401D4012000E000207047C0
:100E2000DFF8A4010068800401D4012000E0002064
:100E30007047DFF894010068000601D4012000E04B
:100E40000020704780B500F04DF800F001F801BDBA
:100E500080B501214FF49A7000F048F903208DF815
:100E6000020004208DF803004FF40050ADF800009C
:100E70006946594800F056F90120ADF8000069466E
:100E8000564800F04FF94FF48070ADF80000694605
:100E9000534800F047F94FF40040ADF800006946B0
:100EA0004F4800F03FF90820ADF8000069464D4872
:100EB00000F038F94FF48040ADF80000694648482A
:100EC00000F030F94FF40050ADF800006946444896
:100ED00000F028F98020ADF800006946404800F095
:100EE00021F901BD00213A4A91720021384AD1729C
:100EF0000021374A117300210800C0B20A281FDA06
:100F00006421344AC0B212EB001211810221314A2D
:100F1000C0B212EB0012117100212E4AC0B212EBC6
:100F20000012917200212B4AC0B212EB0012D17252
:100F30000021284AC0B212EB00121173401CDCE7FA
:100F40006421244A11870521224A82F83B1064213A
:100F5000204AA2F8481005211E4A82F84B1064214D
:100F60001C4AA2F8581005211A4A82F85B10642125
:100F7000184AA2F868100521164A82F86B101A491F
:100F8000144A11601949134A11611949114A116231
:100F90001849104A116318490E4A116417490D4A3D
:100FA000116517490B4A116616490A4A1167164915
:100FB000084AC2F880101549064AC2F890107047D6
:100FC00008100140080801400820014008140140B1
:100FD000A8550020185400200010014000080140CE
:100FE00000200140001401402D0D0008530D0008A1
:100FF000790D0008EB0D0008FD0D00080F0E00082C
:10100000210E0008330E00089F0D0008C50D0008D2
:1010100030B400210022002300243C4D2D6815F03F
:101020000C0529000D00002D04D0042D05D0082D3D
:1010300006D026E0364D056025E0354D056022E0FE
:10104000324D2D6815F470152A00304D2D6815F4B9
:1010500080352B00920C921C002B04D12D4D05FBEA
:1010600002F505600CE0294D2D68AD0304D5294D2E
:1010700005FB02F5056003E0254D05FB02F5056063
:1010800001E0234D0560214D2D6815F0F005290084
:101090000909214D4D5D2C000568E54045601B4D5B
:1010A0002D6815F4E0652900090A1B4D4D5D2C00E3
:1010B0004568E5408560154D2D6815F4605529009B
:1010C000C90A154D4D5D2C004568E540C5600F4DC2
:1010D0002D6815F440452900890B104D4D5D2C00FD
:1010E000C568B5FBF4F5056130BC7047C9B200298D
:1010F00005D00B4A12680243094B1A6004E0084A03
:1011000012688243064B1A607047000004100240C8
:1011100000127A0000093D000400002014000020A5
:1011200018100240F0B500270022002300240025FB
:10113000002691F803C01CF00F0C674691F803C01D
:101140005FEACC6C03D591F802C05CEA070791F81E
:1011500000C05FEA0C6C3AD0D0F800C065465FF082
:10116000000C6346082B31D25FF0010C1CFA03FC23
:101170006446B1F800C014EA0C0C6246A24223D1C6
:101180005FEA830C64465FF00F0C1CFA04FC6646B1
:10119000B54317FA04FC5CEA050591F803C0BCF1FD
:1011A000280F06D15FF0010C1CFA03FCC0F814C034
:1011B0000AE091F803C0BCF1480F05D15FF0010CC3
:1011C0001CFA03FCC0F810C05B1CCBE70560B1F84B
:1011D00000C0BCF1FF0F3FDDD0F804C065465FF0F2
:1011E000000C6346082B36D25FF0010C13F1080E99
:1011F0001CFA0EFC6446B1F800C014EA0C0C6246FE
:10120000A24226D15FEA830C64465FF00F0C1CFA01
:1012100004FC6646B54317FA04FC5CEA050591F840
:1012200003C0BCF1280F07D15FF0010C13F1080EC9
:101230001CFA0EFCC0F814C091F803C0BCF1480FB2
:1012400007D15FF0010C13F1080E1CFA0EFCC0F878
:1012500010C05B1CC6E74560F0BD000080B500F023
:101260001AF800F045F800F003F800F08BF801BD23
:1012700080B501210820FFF739FF03208DF8020017
:1012800010208DF803000420ADF80000694687485F
:10129000FFF748FF01BD86488349086085488249B9
:1012A00048608548804988604FF480607E49888125
:1012B0004FF480607C49C88100207B49088200206F
:1012C0007949488200207849C882002076490883FD
:1012D00000207549488300207349888200207249A4
:1012E000C86100207049086200206F494862704759
:1012F00000B585B001210520FFF7F8FE01214FF46C
:101300008040FFF7F3FE4FF40070ADF800001820A6
:101310008DF8030003208DF8020069466748FFF747
:1013200001FF4FF48060ADF8000004208DF8030049
:1013300069466248FFF7F6FE5FF4E1300190002055
:10134000ADF808000020ADF80A000020ADF80C0050
:101350000020ADF810000C20ADF80E0001A9544893
:1013600000F0AEF8012240F22551514800F028F972
:1013700001214F4800F016F940214D4800F053F983
:1013800005B000BD80B525208DF8000001208DF846
:10139000010000208DF8020001208DF8030068464E
:1013A00000F085F901BD38B5040040F225512068F0
:1013B00000F03FF900281DD0206800F030F905004A
:1013C000A068E18A0D54E08A401CE082E18980B285
:1013D000884201D30020E082608BE189884202D2FA
:1013E000608B401C6083606A002803D02800C0B274
:1013F000616A884740F22771206800F01AF90028D6
:1014000023D0A08A00280CD1002240F22771206846
:1014100000F0D6F8012240F22661206800F0D0F8F2
:101420003CE06068618A095C89B2206800F0F3F8EA
:10143000608A401C6082A18980B2884201D300206A
:101440006082A08A401EA08228E040F226612068C7
:1014500000F0EFF8002821D0A08A00280BD100224C
:1014600040F22661206800F0ABF8206A002815D011
:10147000206A804712E06068618A095C89B220684E
:1014800000F0C9F8608A401C6082A18980B288425D
:1014900001D300206082A08A401EA08231BD80B5A9
:1014A0000148FFF780FF01BD1C550020000C0140E2
:1014B00000380140184C002018500020000801405E
:1014C0002DE9F04786B004000D00002600275FF0EC
:1014D00000085FF000095FF0000AA8890028A24612
:1014E000208A06004CF6FF700640E88806432682F4
:1014F000A08906004EF6F3100640A8882989084303
:10150000698908430643A681A08A06004FF6FF407A
:101510000640A8890643A6826846FFF779FD204861
:10152000824502D10398070001E002980700A089D4
:10153000000408D5192000FB07F029684900B0FB1A
:10154000F1F0804607E0192000FB07F029688900C8
:10155000B0FBF1F080466420B8FBF0F0000106001B
:101560003009642101FB10808146A089000409D55F
:101570005FEAC90032306421B0FBF1F010F00700DF
:10158000064308E05FEA091032306421B0FBF1F055
:1015900010F00F000643268106B0BDE8F08700007A
:1015A00000380140C9B2002904D0828952F40052A7
:1015B000828104E082894DF6FF731A408281704770
:1015C000F0B4002300240025002689B240F66A17F3
:1015D000B94206000F00FFB27F09FFB23B0089B29B
:1015E00011F01F073C000127A7403D00012B01D14E
:1015F0000C3604E0022B01D1103600E01436D2B2D2
:10160000002A03D037682F43376002E03768AF43C2
:101610003760F0BC7047CA05D20D82807047808861
:10162000C005C00D704789B28A0589B2CA430280DD
:10163000704770B40300002400260025002089B202
:1016400040F66A1291420A00D2B25209D2B2150093
:1016500089B211F01F021600012212FA06F6012DBE
:1016600002D19A89164006E0022D02D11A8A16404C
:1016700001E09A8A16400A0092B2120A92B214004D
:10168000012212FA04F41A881440002E04D0002C0F
:1016900002D00122100001E000221000C0B270BC94
:1016A000704700001C4901431C4A1160704770B428
:1016B000002300210F22C478002C20D0174C24686E
:1016C00014F4E064D4F5E064240A2300D3F10404A4
:1016D0002100DA4044788C4023008478144023436E
:1016E0001B010F4C05782B550124057815F01F05BB
:1016F000AC400C4D0678761145F8264009E00124EF
:10170000057815F01F05AC40074D0678761145F8B1
:10171000264070BC704700000000FA050CED00E0A8
:1017200000E400E000E100E080E100E080B54E4828
:10173000006850F001004C4908604C4800684C4972
:1017400008404A490860484800684A4908404649F4
:1017500008604548006830F48020434908604348E9
:10176000006830F4FE00414908605FF41F00424900
:10177000086000F005F85FF000604049086001BDB6
:1017800080B500F001F801BD82B00020019000207A
:1017900000903548006850F4803033490860324882
:1017A000006810F4003000900198401C01900098EF
:1017B000002803D10198B0F5A06FF0D12A48006845
:1017C000800302D50120009001E0002000900098E5
:1017D000012847D12A48006850F0100028490860C5
:1017E0002748006880088000254908602448006870
:1017F00050F00200224908601C4800681B4908603C
:101800001A480068194908601848006850F4806058
:10181000164908601548006830F47C1013490860C8
:101820001248006850F4E810104908600E4800683B
:1018300050F080700C4908600B4800688001FBD5AF
:101840000A48006880088000084908600748006866
:1018500050F00200054908600448006810F00C00D0
:101860000828F9D102B0704700100240041002406D
:101870000000FFF8FFFFF6FE0810024008ED00E050
:101880000020024080B5012080F3108800F084F829
:1018900000F029F8FEF729FDFEE710B5040001204D
:1018A00000F0DDF86420FEF7EAFCF8E710B504006C
:1018B000022000F0D4F8C820FEF7E1FCF8E710B5EC
:1018C0000400032000F0CBF84FF49670FEF7D7FC2D
:1018D000F7E710B50400042000F0C1F84FF4C87019
:1018E000FEF7CDFCF7E700B585B00020039000209F
:1018F00002901D4801900120009000234FF40072D7
:101900001A491B48FEF714FC0020039000200290A7
:10191000184801900220009000234FF400721649ED
:101920001648FEF705FC00200390002002901448A2
:1019300001900320009000234FF4007211491248D7
:10194000FEF7F6FB00200390002002900F48019064
:101950000420009000234FF400720D490D48FEF75B
:10196000E7FB05B000BD0000D0550020401C00087A
:101970009B180008D45500204C1C0008AD18000826
:10198000D8550020581C0008BF180008DC5500205E
:10199000641C0008D318000880B54FF44070FFF7AE
:1019A00081FEFFF75BFC00F003F8FFF74BFA01BD87
:1019B00080B501218020FFF799FB012000F02FF86E
:1019C000022000F02CF8032000F029F8042000F099
:1019D00026F803208DF8020010208DF803004FF444
:1019E0000060ADF8000069463148FFF79BFB80209E
:1019F000ADF8000069462E48FFF794FB4FF4807065
:101A0000ADF8000069462A48FFF78CFB4FF40070E0
:101A1000ADF8000069462648FFF784FB01BD401E73
:101A2000C0B2002804D14FF40061224A116015E0D1
:101A3000C0B2012803D180211E4A11600EE0C0B25D
:101A4000022804D14FF480711A4A116006E0C0B236
:101A5000032803D14FF40071164A11607047C0B2D9
:101A6000012806D11449096891F40061124A1160F5
:101A70001CE0C0B2022806D10F49096891F080012C
:101A80000D4A116012E0C0B2032806D10A49096864
:101A900091F48071084A116008E0C0B2042805D1B1
:101AA0000549096891F40071034A1160704700000C
:101AB000001C0140101C01400C1C014019E050F8B2
:101AC000041BCB0744BFA9F101035918121F0023BF
:101AD000042A41F8043BF9D25FEA827C0B4604D524
:101AE0004FF0000CA1F800C09B1CD10744BF00219F
:101AF000197050F8042B002AE1D17047704708484C
:101B000000221100C9B22A2909D2C9B20A5C054BC8
:101B10001A80054A12885206FBD5491CF2E7FEE7F7
:101B2000341B00080438014000380140FEE7FEE79E
:101B3000FEE770470D0A456E746572204861726455
:101B40004661756C745F48616E646C65722C2053DD
:101B5000797374656D2048616C742E0D0A00000065
:101B600010B450F8041B79B10268436812180830A9
:101B7000DC0744BFA9F10104E31852F8044B43F811
:101B8000044B091FF9D1ECE710BC704710B50749A9
:101B900079441831064C7C44163404E00A68081D68
:101BA000511888470146A142F8D110BD0800000035
:101BB0002800000009FFFFFF084E00001808002061
:101BC000000000009DFFFFFF180000004C00000017
:101BD00000000020000000000120C046002801D0C5
:101BE000FFF7D4FF0020C046C046FFF74BFE00F0D1
:101BF00000F800F001B800000746384600F002F88F
:101C0000FBE7000080B5C046C046024A110018201C
:101C1000ABBEFBE726000200AAAAAAAA00000000A9
:101C2000010203040102030406070809020406086E
:101C300001488047014800472D170008711C000823
:101C4000765461736B5573657249460076546173BF
:101C50006B4C454400000000765461736B4D736714
:101C600050726F00765461736B537461727400002C
:101C7000C046C046C046C046FFF7AEFF49444C458B
:101C80000000000008000000FFF7FEBFFFF7FEBFE6
:101C9000FFF7FEBFFFF7FEBFFFF7FEBFFFF7FEBF78
:101CA000FFF7FEBFFFF7FEBFFFF7FEBFFFF7FEBF68
:101CB000FFF7FEBFFFF7FEBFFFF7FEBFFFF7FEBF58
:101CC000FFF7FEBFFFF7FEBFFFF7FEBFFFF7FEBF48
:101CD000FFF7FEBFFFF7FEBFFFF7FEBFFFF7FEBF38
:101CE000FFF7FEBFFFF7FEBFFFF7FEBFFFF7FEBF28
:101CF000FFF7FEBFFFF7FEBFFFF7FEBFFFF7FEBF18
:101D0000FFF7FEBFFFF7FEBFFFF7FEBFFFF7FEBF07
:101D1000FFF7FEBFFFF7FEBFFFF7FEBFFFF7FEBFF7
:101D2000FFF7FEBFFFF7FEBFFFF7FEBFFFF7FEBFE7
:101D3000FFF7FEBFFFF7FEBFFFF7FEBFFFF7FEBFD7
:101D4000FFF7FEBFFFF7FEBFFFF7FEBFFFF7FEBFC7
:101D5000FFF7FEBFFFF7FEBFFFF7FEBFFFF7FEBFB7
:101D6000FFF7FEBFFFF7FEBFFFF7FEBFFFF7FEBFA7
:041D7000FFF7FEBFBC
:0400000508001C7162
:00000001FF
