:020000040800F2
:1000000078980020E90100088D110008FD0D000816
:1000100089110008B90800083D1E00080000000012
:100020000000000000000000000000004501000882
:100030000F0B00080000000089010008C915000826
:10004000030200080302000803020008030200087C
:10005000030200080302000803020008030200086C
:10006000030200080302000803020008030200085C
:10007000030200080302000803020008030200084C
:10008000030200080302000803020008030200083C
:10009000030200080302000803020008030200082C
:1000A000030200080302000803020008030200081C
:1000B000030200080302000803020008030200080C
:1000C00003020008030200080302000803020008FC
:1000D00003020008491600085916000869160008AE
:1000E00003020008030200080302000803020008DC
:1000F00003020008030200080302000803020008CC
:1001000003020008030200080302000803020008BB
:1001100003020008030200080302000803020008AB
:10012000030200080302000803020008030200089B
:10013000DFF80CD000F03EFB00480047CF49000834
:1001400078980020204B19680868B0E8F00F80F319
:100150000988BFF36F8F4FF0000080F311884EF0D5
:100160000D0E70470000000006480068006880F32C
:10017000088862B661B6BFF34F8FBFF36F8F00DFA1
:1001800000BF00BF08ED00E0EFF30980BFF36F8F01
:100190000D4B1A6820E9F00F106008B54FF0100001
:1001A00080F3118805F008FC4FF0000080F31188FF
:1001B000BDE8084019680868B0E8F00F80F30988C6
:1001C000BFF36F8F704700BF1C000020EFF311805A
:1001D0004FF0100181F31188704780F31188704748
:1001E000EFF3058070470000064880470648004747
:1001F000FEE7FEE7FEE7FEE7FEE7FEE7FEE7FEE7D7
:10020000FEE7FEE7E915000831010008A0F16101F1
:10021000192900D82038704740EA01039B0703D012
:1002200009E008C9121F08C0042AFAD203E011F835
:10023000013B00F8013B521EF9D27047D2B201E0F7
:1002400000F8012B491EFBD270470022F6E710B5DB
:1002500013460A4604461946FFF7F0FF204610BD34
:10026000421C10F8011B0029FBD1801A704730B5E1
:1002700004460020034600E05B1C934203D2E05C8E
:10028000CD5C401BF8D030BD034611F8012B00F8BF
:10029000012B002AF9D11846704730B505460020D9
:1002A000034600E05B1C934205D2EC5CC85C201A5C
:1002B00001D1002CF6D130BD2DE9FE4F804681EAF8
:1002C0000300C00F0C46009021F0004123F00045D0
:1002D000B8EB0200A94105D24046214690461C4693
:1002E0000B46024623F00040104347D0270DC7F3CA
:1002F0000A00C3F30A510290401A019040286BDAB9
:10030000C3F3130040F4801B0098924620B10023F1
:10031000D2EB030A63EB0B0B01985946C0F1400284
:10032000504600F026F906460D4650465946019AB9
:1003300000F02EF910EB08006141002487EA115209
:1003400084EAE7731A4340D0009A62B3019A012A03
:100350004FEA075215DC001B61EB02014FF000422F
:1003600002EA0752CDE90042001C41F580113246F5
:100370002B4600F02EF903B0BDE8F08F4046214631
:10038000F9E7001B61EB0201001C41F58013001826
:100390005B412018A2F5001747EB030140EAD57036
:1003A000B6196D4111E06D084FEA360645EAC07591
:1003B0004FEA0752001B61EB0201001C41F580115E
:1003C00049084FEA30000019514132462B4603B02C
:1003D000BDE8F04F00F0EEB8009801224000002385
:1003E000D0EB020263EBE073009821464FEAE07421
:1003F000B8EB000061EB0401E9E783F000435BE741
:1004000081F0004158E72DE9F04D81EA030404F042
:10041000004B21F0004514464FF0000A23F0004144
:1004200050EA050220D054EA01021DD0C5F30A5754
:100430000246C5F31303C1F31300C1F30A5640F497
:10044000801543F48013A7EB0608101BD64608F26C
:10045000FD3873EB050002D308F1010801E09218A2
:100460005B41B8F1000F03DA00200146BDE8F08DD2
:1004700000204FF48011064684460EE0171B73EBF4
:10048000050705D3121B63EB050306434CEA010C79
:1004900049084FEA300092185B4150EA0107EDD15C
:1004A00052EA030012D082EA040083EA05010843FD
:1004B00005D0101BAB4106D20122002306E000222A
:1004C0004FF0004302E06FF0010253101AEB0600F8
:1004D0004CEB085110EB0A0041EB0B01BDE8F04D6D
:1004E00000F068B830B50B460146002020220124F8
:1004F00009E021FA02F59D4205D303FA02F5491BF2
:1005000004FA02F52844151EA2F10102F1DC30BD07
:100510002DE9F05F0546002092469B468846064638
:10052000814640241BE0284641464746224600F0CB
:1005300053F953465A46C01A914110D311461846F2
:10054000224600F016F82D1A67EB01084F462246A6
:100550000120002100F00DF817EB00094E41201E8C
:10056000A4F10104DFDC484631462A464346BDE893
:10057000F09F202A04DB203A00FA02F100207047A5
:100580009140C2F1200320FA03F3194390407047D1
:10059000202A06DBCB17203A41FA02F043EAE07347
:1005A00006E041FA02F3D040C2F120029140084334
:1005B0001946704710B5141E73F1000408DA401C88
:1005C00041F1000192185B411A4301D120F0010072
:1005D00010BD2DE9F04D92469B4611B1B1FA81F262
:1005E00002E0B0FA80F220329046FFF7C2FF0446E4
:1005F0000F4640EA0A0041EA0B0153465A460843B7
:1006000013D0114653EA010019D0C8F140025046F8
:1006100000F0E2F805460E46504659464246FFF7BE
:10062000A8FF084305D0012004E020463946BDE874
:10063000F08D0020054346EAE0762C4337430A98C4
:100640006305E40AA0EB08000022FD0A44EA4754CF
:100650000A3002D500200146E9E701051019694179
:10066000DDE9084500196941BDE8F04DA2E72DE933
:10067000FE4F81EA030404F0004421F0004100949D
:100680004FF0000B23F0004350EA01045ED052EA21
:1006900003045BD0C3F30A54C1F30A552C44A4F2FB
:1006A000F3340194A0FB0254C1F3130141F480110F
:1006B000C3F3130343F4801301FB024400FB034E16
:1006C000840A970A44EA815447EA8357A4FB0768DF
:1006D00002958D0A05FB07854FEA932C04FB0C5409
:1006E0002705029D4FEA065847EA1637B5EB08057D
:1006F0006EEB070C870E920E47EA811742EA8312CF
:10070000A7FB0201B6EB0B0164EB00042B0D43EADF
:100710000C335E1844EB1C50DA465146E7FB0201ED
:10072000C5F313044FEA0B3343EA14534FEA043280
:10073000019C43EA0603A4F10C040294009CCDE959
:1007400000B4FFF746FF03B0BDE8F08F002001467C
:10075000F9E7C1F30A52C1F3130140F2FF3341F448
:1007600080119A4202DA00200146704740F233437A
:100770009A42A2F2334202DC524200F02DB8FFF757
:10078000F8BE000030B5041E71F1000404DB4FF028
:100790000044404264EB0101141E73F1000405DBC8
:1007A0001C464FF00043524263EB0403994208BFDA
:1007B000904230BD064C074D06E0E06840F0010372
:1007C00094E8070098471034AC42F6D3FFF7B4FC26
:1007D0004C6A00086C6A0008202A04DB203A21FADF
:1007E00002F00021704721FA02F3D040C2F120024A
:1007F000914008431946704770B58C1810F8015B9A
:1008000015F0070301D110F8013B2A1106D110F8A9
:10081000012B03E010F8016B01F8016B5B1EF9D1AD
:100820002B0705D40023521E0DD401F8013BFAE733
:1008300010F8013BCB1A921C03E013F8015B01F89E
:10084000015B521EF9D5A142D8D3002070BD000033
:100850001FB500200D4A0123CDE90120009303902C
:1008600003464FF400720AA10D4805F075FC002004
:100870000C4A0123CDE901200093039003464FF475
:10088000007209A10B4805F067FC1FBD00000020A5
:10089000765461736B4154436F6D6D616E640000FB
:1008A00001560008040000207642545F5461736BC7
:1008B00000000000D153000800BFFEE7F8B5044671
:1008C0000D46164600200346324629460090204633
:1008D00000F002F8F8BD00002DE9F84F04460E467E
:1008E00017469846DDF828900025AA461548006866
:1008F00010B94FF00A0A1EE014B94FF0150A1AE0B9
:1009000043463A4631462046CDF8009003F08EFF2C
:10091000054615B94FF0010A0DE021460948006867
:1009200004F02EFD012801D14FF0180A2946054890
:10093000006804F037F8504600F06EF82846BDE82D
:10094000F88F0000D80300200149087070470000AC
:100950001C03002010B5002000F05EF8024800F0F3
:1009600032F800F003F810BDD803002010B502499A
:10097000024803F0AFFE10BDE8030020A08600206F
:1009800070B504460D4601E0641C6D1C207850B122
:10099000287840B12078FFF739FC06462878FFF721
:1009A00035FC8642F0D020782978401A70BD10B509
:1009B0000C2004F01FF804461CB10020A060206049
:1009C0006060204610BD10B50446206810B1206854
:1009D00003F06BFE206803F0A9FF0020206010BD2B
:1009E00010B500210C46084600F016F809480068CA
:1009F00008B1FFF7AFFFFFF7DAFF064908600846C6
:100A0000006820B901210C46084600F005F8204690
:100A100010BD0000D803002070B504467CB1094821
:100A2000007802280BD1204603F0A8FF05462A468D
:100A3000214605A001F004FA204603F06BFF0A48A6
:100A4000047070BD210300200A41626F7274696EE8
:100A5000672064756520746F206572726F72202341
:100A600025643A2025730A002003002001490870FC
:100A70007047000021030020014609B9094870476A
:100A8000012901D10848FAE7022901D10748F6E710
:100A9000032901D10020F2E7042901D10020EEE76B
:100AA0000020ECE7E027002008300020303800204C
:100AB00008B525208DF8000001208DF801000020E8
:100AC0008DF8020001208DF80300684600F060FBFD
:100AD00026208DF8000001208DF8010000208DF8FF
:100AE000020001208DF80300684600F051FB27202A
:100AF0008DF8000001208DF8010000208DF8020023
:100B000001208DF80300684600F042FB08BD7047E5
:100B10002DE9F05F05460C464FF00009CA46002655
:100B20000027B046B3465948854211D058488542FF
:100B30000ED0584885420BD05748854208D05748B8
:100B4000854205D05648854202D05648854200D19C
:100B500003E0B82154A001F0EDFDE078A0B1E07809
:100B6000042811D0E07828280ED0E07848280BD04F
:100B7000E078142808D0E078102805D0E0781C2808
:100B800002D0E078182800D103E0B92146A001F096
:100B9000D1FD002010B9208800B103E0BA2142A0A5
:100BA00001F0C8FDE07800F00F09E07800F01000D7
:100BB00080B1A078012805D0A078022802D0A078C2
:100BC000032800D103E0C12137A001F0B3FDA078D4
:100BD00040EA0909207838B3D5F8008000261FE0E4
:100BE000012000FA06F7208800EA070ABA4516D164
:100BF000B7000F2000FA07FB28EA0B0809FA07F0F4
:100C000040EA0808E078282803D10120B040686154
:100C100005E0E078482802D10120B0402861761C28
:100C2000082EDDD3C5F800802088FF282BDDD5F8FD
:100C30000480002623E006F10800012101FA00F7F4
:100C4000208800EA070ABA4518D1B7000F2000FA39
:100C500007FB28EA0B0809FA07F040EA0808E078E1
:100C6000282803D106F1080081406961E07848280E
:100C700004D106F10800012181402961761C082E6B
:100C8000D9D3C5F80480BDE8F09F000000080140FA
:100C9000000C014000100140001401400018014008
:100CA000001C0140002001402E2E5C2E2E5C4C6961
:100CB000627261726965735C53544D3332463130F0
:100CC000785F5374645065726970685F44726976C6
:100CD00065725C7372635C73746D33326631307845
:100CE0005F6770696F2E630070B505460C46164647
:100CF0002B48854211D02B4885420ED02A48854288
:100D00000BD02A48854208D02948854205D0294879
:100D1000854202D02848854200D104E040F2931178
:100D200026A001F007FD012C25D0022C23D0042C95
:100D300021D0082C1FD0102C1DD0202C1BD0402CD3
:100D400019D0802C17D0B4F5807F14D0B4F5007F73
:100D500011D0B4F5806F0ED0B4F5006F0BD0B4F5A0
:100D6000805F08D0B4F5005F05D0B4F5804F02D0A5
:100D7000B4F5004F00D104E04FF4CA710FA001F0A8
:100D8000D9FC0EB1012E00D104E040F295110BA068
:100D900001F0D0FC0EB12C6100E06C6170BD000070
:100DA00000080140000C0140001001400014014007
:100DB00000180140001C0140002001402E2E5C2E36
:100DC0002E5C4C69627261726965735C53544D3379
:100DD00032463130785F5374645065726970685F71
:100DE0004472697665725C7372635C73746D3332DE
:100DF000663130785F6770696F2E630009A100204B
:100E00000CE00A5C124B1A8000BF114A121F1288B4
:100E100002F04002002AF8D0421CD0B22A28F0D3B7
:100E200000BFFEE70D0A456E74657220486172646A
:100E30004661756C745F48616E646C65722C2053FA
:100E4000797374656D2048616C742E0D0A00000082
:100E50000438014000B585B00121052000F08EFA6C
:100E60000121880300F08AFA4FF40070ADF81000F9
:100E700018208DF8130003208DF8120004A95E4895
:100E8000FFF746FE4FF48060ADF8100004208DF8A7
:100E9000130004A95848FFF73BFE4FF4612000906F
:100EA0000020ADF80400ADF80600ADF80800ADF87C
:100EB0000C000C20ADF80A006946504800F076FDA1
:100EC000012240F225514D4800F0E8FC01214B4839
:100ED00000F018FC4021494800F0CEFB012105201C
:100EE00000F04CFA0121480400F000FA0620ADF8A9
:100EF000100018208DF8130003208DF8120004A9AB
:100F00003D48FFF705FE0920ADF8100004208DF8DC
:100F1000130004A93848FFF7FBFD04A93648FFF782
:100F2000F7FD4FF4612000900020ADF80400ADF80B
:100F30000600ADF808004FF44070ADF80C000C202E
:100F4000ADF80A0069462E4800F030FD012240F25B
:100F500025512B4800F0A2FC0121294800F0D2FBCA
:100F60004021274800F088FB0121092000F006FA03
:100F70000121880400F0BAF94FF48060ADF8100048
:100F800018208DF8130003208DF8120004A91D48C5
:100F9000FFF7BEFD4FF40060ADF8100004208DF89F
:100FA000130004A91748FFF7B3FD04A91548FFF77C
:100FB000AFFD4FF4612000900020ADF80400ADF8C3
:100FC0000600ADF80800ADF80C000C20ADF80A00E2
:100FD00069460D4800F0EAFC012240F225510A481A
:100FE00000F05CFC0121084800F08CFB4021064821
:100FF00000F042FB05B000BD000801400038014090
:1010000000440040000C014000480040094880684E
:1010100000F4005058B90848006800F0010030B9E9
:101020000648806800F4807008B1012070470020F5
:10103000FCE70000001001400808014000200140CA
:101040000948806800F4005058B10848006800F072
:10105000010030B10648806800F4807008B90120B2
:1010600070470020FCE70000001001400808014024
:10107000002001400948806800F4005058B1084839
:10108000006800F0010030B10648806800F480700C
:1010900008B1012070470020FCE70000001001406B
:1010A00008080140002001400948806800F4005011
:1010B00058B10848006800F0010030B9064880685F
:1010C00000F4807008B9012070470020FCE70000A0
:1010D00000100140080801400020014004488068D9
:1010E00000F4004008B9012070470020FCE7000030
:1010F000002001400448006800F0080008B9012001
:1011000070470020FCE70000081401400448806894
:1011100000F4804008B9012070470020FCE700007F
:10112000002001400448806800F4005008B9012004
:1011300070470020FCE70000002001400448806860
:1011400000F0800008B9012070470020FCE7000093
:10115000002001400948806800F4005058B9084850
:10116000006800F0010030B10648806800F480702B
:1011700008B1012070470020FCE70000001001408A
:10118000080801400020014000BFFEE77047000052
:101190002DE9F0410446002500270F26E07810B124
:1011A000E078012800D103E07B2121A001F0C2FA00
:1011B0006078102800DA03E07C211DA001F0BAFA63
:1011C000A078102800DA03E07D2119A001F0B2FA1E
:1011D000E07800B32448006800F4E060C0F5E06007
:1011E000050AC5F10407EE40607800FA07F5A0781B
:1011F000304005432D011D4822788554207800F0A9
:101200001F010120884021784911890001F1E02166
:10121000C1F8000109E0207800F01F01012088409A
:1012200013492278521141F82200BDE8F0810000F4
:101230002E2E5C2E2E5C4C69627261726965735C45
:1012400053544D3332463130785F53746450657275
:101250006970685F4472697665725C7372635C6D15
:101260006973632E630000000CED00E000E400E011
:1012700080E100E010B50446B4F5E06F0BD0B4F5A2
:10128000C06F08D0B4F5A06F05D0B4F5806F02D060
:10129000B4F5407F00D103E0692104A001F04AFACF
:1012A000104820431049086010BD00002E2E5C2E0F
:1012B0002E5C4C69627261726965735C53544D3384
:1012C00032463130785F5374645065726970685F7C
:1012D0004472697665725C7372635C6D6973632EC8
:1012E000630000000000FA050CED00E070B5044654
:1012F0000D461048204008B904B104E040F26F41A7
:101300000DA001F017FA0DB1012D00D104E04FF44A
:101310008E6109A001F00EFA2DB11748C069204373
:101320001549C86104E01448C069A0431249C86166
:1013300070BD0000003601812E2E5C2E2E5C4C69A3
:10134000627261726965735C53544D333246313059
:10135000785F5374645065726970685F447269762F
:1013600065725C7372635C73746D333266313078AE
:101370005F7263632E6300000010024070B5044684
:101380000D461048204008B904B104E04FF48A61CA
:101390000DA001F0CFF90DB1012D00D104E040F214
:1013A000514109A001F0C6F92DB1174880692043C9
:1013B0001549886104E014488069A0431249886196
:1013C00070BD00000200C0FF2E2E5C2E2E5C4C690A
:1013D000627261726965735C53544D3332463130C9
:1013E000785F5374645065726970685F447269769F
:1013F00065725C7372635C73746D3332663130781E
:101400005F7263632E6300000010024030B500215C
:101410000022002400232D4D6D6805F00C0121B140
:10142000042905D0082923D105E0294D056022E0D3
:10143000274D05601FE0254D6D6805F47012234DA2
:101440006D6805F48034022505EB92421CB9214DEC
:10145000554305600BE01D4D6D6805F400351DB169
:101460001C4D5543056002E0194D5543056002E0EF
:10147000174D056000BF00BF144D6D6805F0F00109
:101480000909154D6B5C0568DD4045600F4D6D68C1
:1014900005F4E061090A104D6B5C4568DD4085602C
:1014A0000A4D6D6805F46051C90A0B4D6B5C4568C7
:1014B000DD40C560054D6D6805F44041890B074D61
:1014C0006B5CC568B5FBF3F5056130BD00100240EB
:1014D00000127A0000093D000800002018000020DA
:1014E00010B500F001F810BD0CB50020019000907F
:1014F0003348006840F480303149086000BF30480C
:10150000006800F4003000900198401C01900098A1
:1015100018B90198B0F5A06FF1D12948006800F41E
:10152000003010B10120009001E0002000900098F0
:10153000012843D12348006840F010002149086089
:101540000846006820F0030008600846006840F084
:10155000020008601A484068194948600846406817
:1015600048600846406840F480604860084640682B
:1015700020F47C1048600846406840F4E810486059
:101580000846006840F08070086000BF0C480068A2
:1015900000F000700028F9D00948406820F00300EE
:1015A000074948600846406840F00200486000BFB4
:1015B0000348406800F00C000828F9D10CBD000079
:1015C000001002400020024010B5FEF7FFFD04F0BD
:1015D00083FE18B14FF08050024908600020FEF7EA
:1015E000FCFD10BD04ED00E010B51348006840F0AC
:1015F00001001149086008464068104908400E493A
:101600004860084600680E4908400B4908600846D3
:10161000006820F4802008600846406820F4FE003E
:1016200048604FF41F008860FFF75AFF4FF00060DA
:101630000449086010BD0000001002400000FFF8DF
:10164000FFFFF6FE08ED00E010B5024800F0F8FAE2
:1016500010BD0000E027002010B5024800F0F0FAAD
:1016600010BD00000830002010B5024800F0E8FA74
:1016700010BD00003038002070B504460D461B48F0
:1016800084420BD01A48844208D01A48844205D0BC
:101690001948844202D01948844200D104E04FF432
:1016A0006971174801F046F84FF69F40284008B985
:1016B00005B104E040F2A531114801F03BF805F412
:1016C0000070B0F5007F0ED10848844205D008486C
:1016D000844202D00748844200D104E040F2A9319C
:1016E000074801F027F8E843208070BD003801402A
:1016F0000044004000480040004C004000500040C2
:101700007067000870B504460D46154884420BD03A
:101710001448844208D01448844205D013488442B7
:1017200002D01348844200D104E04FF4B471114850
:1017300001F000F80DB1012D00D104E040F2691173
:101740000C4800F0F7FF25B1A08940F40050A081BB
:1017500004E0A0894DF6FF710840A08170BD000033
:10176000003801400044004000480040004C004068
:1017700000500040706700082DE9F04705460C4610
:1017800000270026B046B1463E4885420BD03E4871
:10179000854208D03D48854205D03D48854202D06B
:1017A0003C48854200D104E04FF472713A4800F0A1
:1017B000C1FF282C27D040F22770844223D040F26A
:1017C000266084421FD040F2255084421BD040F254
:1017D0002440844217D040F64600844213D040F69D
:1017E0006A1084420FD0B4F5587F0CD040F22530F7
:1017F000844208D0B4F5587F05D0B4F5187F02D0E4
:10180000B4F5B07F00D104E040F2C931224800F0C5
:1018100091FF40F66A1084420ED11A48854205D0E5
:101820001948854202D01948854200D104E040F2AF
:10183000CD31194800F07EFFC4F3421804F01F06B2
:10184000012000FA06F6B8F1010F02D1A88906407E
:1018500007E0B8F1020F02D1288A064001E0A88A09
:1018600006402712012000FA07F7288807401EB11A
:1018700017B14FF0010901E04FF000094846BDE8FB
:10188000F08700000038014000440040004800405C
:10189000004C004000500040706700082DE9F04700
:1018A00005460C4617464FF00008C246C1460026C2
:1018B000384885420BD03848854208D037488542A1
:1018C00005D03748854202D03648854200D104E031
:1018D00040F28F11344800F02DFF282C19D040F22F
:1018E0002770844215D040F22660844211D040F225
:1018F000255084420DD040F22440844209D040F665
:101900004600844205D040F66A10844201D0602C23
:1019100000D104E04FF4C871234800F00BFF0FB171
:10192000012F00D104E040F291111F4800F002FFA6
:1019300040F66A1084420ED11648854205D01648FA
:10194000854202D01548854200D104E040F295114D
:10195000154800F0EFFE2E46C4F3421804F01F0AAB
:10196000012000FA0AF9B8F1010F01D10C3605E0A7
:10197000B8F1020F01D1103600E0143627B13068FB
:1019800040EA0900306003E0306820EA0900306076
:10199000BDE8F087003801400044004000480040A6
:1019A000004C004000500040706700082DE9F047EF
:1019B00086B005460C460026B24600BFB146002759
:1019C0006B4885420BD06B48854208D06A488542F7
:1019D00005D06A48854202D06948854200D103E0BB
:1019E000BE21684800F0A6FE206820B16649206844
:1019F000884200D203E0BF21624800F09BFEA0882D
:101A000018B1A088B0F5805F00D103E0C0215D4827
:101A100000F090FEE08858B1E088B0F5805F07D014
:101A2000E088B0F5005F03D0E088B0F5405F00D1FA
:101A300003E0C121534800F07DFE208938B12089A0
:101A4000B0F5806F03D02089B0F5C06F00D103E0FE
:101A5000C2214C4800F06EFE60894FF6F3710840D9
:101A600010B9608900B103E0C321464800F062FE6E
:101A7000A08958B1A089B0F5807F07D0A089B0F5C2
:101A8000007F03D0A089B0F5407F00D103E0C421DE
:101A90003C4800F04FFEA08968B13548854205D02A
:101AA0003448854202D03448854200D103E0C82141
:101AB000344800F03FFE2F462E8A4CF6FF70064059
:101AC000E08806432E82AE894EF6F3100640A088C9
:101AD00021890843618908430643AE81AE8A4FF6E7
:101AE000FF400640A0890643AE8201A8FFF78EFCA6
:101AF0001F48874202D1DDF810A001E0DDF80CA0FC
:101B0000A88900F4004040B10AEBCA0000EB0A10BB
:101B100021684900B0FBF1F807E00AEBCA0000EBCE
:101B20000A1021688900B0FBF1F86420B8FBF0F0DE
:101B300006013009642101FB1089A88900F40040E6
:101B400040B1322000EBC900B0FBF1F000F007001B
:101B5000064308E0322000EB09106421B0FBF1F0ED
:101B600000F00F0006432E8106B0BDE8F0870000AC
:101B7000003801400044004000480040004C004054
:101B8000005000407067000821AA440010B50446C8
:101B90000C4884420BD00C48844208D00B48844245
:101BA00005D00B48844202D00A48844200D104E0A8
:101BB00040F26A21084800F0BDFDA088C0F308008B
:101BC00010BD0000003801400044004000480040C3
:101BD000004C0040005000407067000870B504469B
:101BE0000D46114884420BD01048844208D010485A
:101BF000844205D00F48844202D00F48844200D16D
:101C000004E040F259210D4800F094FDB5F5007F45
:101C100000DA04E040F25A21084800F08BFDC5F3D9
:101C20000800A08070BD0000003801400044004062
:101C300000480040004C0040005000407067000821
:101C400070B5044640F225512068FFF795FDE0B1DC
:101C50002068FFF79BFFC5B2E18AA0684554E08A7F
:101C6000401C80B2E082E189884201DB0020E082F2
:101C7000608BE189884202DA608B401C6083606A75
:101C800010B12846616A884700BF40F2277120687A
:101C9000FFF772FD08B3A08A60B9002240F22771F5
:101CA0002068FFF7FBFD012240F226612068FFF764
:101CB000F5FD37E0638A6268D15C2068FFF78EFF2C
:101CC000608A401C80B26082A189884201DB0020CA
:101CD0006082A08A401EA08224E040F22661206833
:101CE000FFF74AFDF0B1A08A50B9002240F2266108
:101CF0002068FFF7D3FD206AA0B1206A804711E079
:101D0000638A6268D15C2068FFF768FF608A401CC4
:101D100080B26082A189884201DB00206082A08AB3
:101D2000401EA08270BDF8B504460E461746002539
:101D30001DE008E0A08A0090A089BDF8001088424C
:101D400000DD01E000BFF5E700BF705D228A616839
:101D50008854208A401C80B22082A189884201DBFD
:101D600000202082A08A401CA082681C85B2BD424F
:101D7000DFDB012240F227712068FFF78FFDF8BDFD
:101D800020482149086021484860214888604FF474
:101D900080608881C881002008824882C8820883C8
:101DA00048838882C86108621A4848621A481B49F9
:101DB00008601B4848601B4888604FF48060888139
:101DC000C881002008824882C882088348838882AC
:101DD000C8610862144848621448154908601548EB
:101DE0004860154888604FF480608881C881002071
:101DF00008824882C882088348838882C861086252
:101E00004862704700380140E02700200828002081
:101E1000082C00209D2800080044004008300020C5
:101E20003030002030340020F52E000800480040FB
:101E30003038002058380020583C002000BFFEE712
:101E40000FB4054B10B503A9044A029800F0DAF864
:101E500010BC5DF814FB0000194900080C060020B6
:101E600002E008C8121F08C1002AFAD17047704763
:101E7000002001E001C1121F002AFBD170470000C1
:101E80002DE9FF5F82B00021DDE90430020DDDF8AD
:101E900040B0034318D044F61050A2F2FF32424340
:101EA0001514119801281FD0A5EB0B00401C5FEA08
:101EB000000A4FF000064E4FDFF83891B04650460A
:101EC00015D5CAF1000413E0119801244AA3012892
:101ED00001D16FEA0B010298119AC0E90031C0E903
:101EE000024206B0BDE8F09FCBF10000DFE70446F8
:101EF0000021404A491842EB0450CDE9001012E09D
:101F0000E00707D032463B4640464946FEF7AFFB66
:101F10008046894632463B4610461946FEF7A7FBE7
:101F200006460F466410002CEAD1DDE90401DDE924
:101F30000023BAF1000F06DAFEF799FB42464B4642
:101F4000FEF795FB05E0FEF75EFA42464B46FEF7CC
:101F50005AFA04460E460022284BFEF713FC03D81B
:101F60004FF0FF30014607E00022254B2046314666
:101F7000FEF7A2F9FEF7EDFB102409E0002C0ADBC6
:101F80000A220023FEF7C4FA039B30321A55641E5E
:101F900050EA0102F2D1641C039AC4F11103144403
:101FA000119A012A03D0012208430DD10AE0084307
:101FB00004D000204FF0110B119072E7A3EB0B053A
:101FC0006D1E0DE05B4504DD4FF0000205F10105DB
:101FD00004E003DA4FF00002A5F10105002AECD07D
:101FE00002981199C0E90231C0E9004579E7000083
:101FF000000014400000F03F300000000000F043FB
:102000000000E03F2DE9FF4F95B09B46894606460C
:1020100000250FE2252877D100242746F84A012120
:10202000059400E0044316F8013F203B01FA03F059
:102030001042F7D130782A2811D06FF02F03307872
:10204000A0F13002092A16D8059A44F0020402EBE6
:10205000820203EB42021044761C0590EFE759F828
:10206000042B0592002A03DA504244F400540590F0
:1020700044F00204761C30782E2816D116F8010F91
:1020800044F004042A280DD06FF02F023078A0F11C
:102090003003092B09D807EB870302EB4303C7186A
:1020A000761CF3E759F8047B761C30786C280FD047
:1020B00006DC4C2817D068280DD06A2814D104E01B
:1020C000742810D07A280FD10DE044F400140AE0EF
:1020D00044F4801401E044F440147278824202D146
:1020E00004F58014761C761C307866280BD013DC3F
:1020F000582877D009DC002875D04528F6D0462826
:10210000F4D047281AD19DE118E0632835D064281F
:1021100079D0652812D195E1702873D008DC672842
:10212000F1D069286FD06E280DD06F2806D1B5E0A8
:1021300073282CD0752875D0782874D05A461799F2
:1021400090476D1C75E1C4F30250022809D00328A2
:102150000DD0D9F8001004280DD00D6009F1040944
:1021600067E1D9F80010EA17C1E90052F6E7D9F89B
:1021700000100D80F2E70D70F0E719F8041B8DF8E0
:10218000001000208DF80100EA46012003E059F814
:1021900004AB4FF0FF3061074FF0000102D40DE0B7
:1021A00008F101018846B9420FDA8045F8DB1AF8D8
:1021B00008100029F4D108E008F1010188468142A5
:1021C000FADB1AF808100029F6D105985B46A0EB57
:1021D000080721463846179A00F094FA284400EB85
:1021E000080507E04DE029E10DE01AF8010B5A4619
:1021F00017999047B8F10108F7D25B462146384657
:10220000179A13E142E00A220092C4F302524FF0FF
:10221000000A022A08D059F804CB032A4FEAEC71CD
:102220000AD00DE029E02AE009F1070121F00702B8
:10223000F2E802C1914609E00FFA8CFC4FEAEC711A
:10224000042A03D14FFA8CFC4FEAEC71002907DA1B
:102250000A460021DCF1000C61EB02012D2202E0B4
:10226000220504D52B228DF80420012203E0E20789
:1022700001D02022F7E7904659E00A2102E010221F
:102280000DE010214FF0000A00910BE010224FF0FA
:10229000000A44F004040827009203E008224FF0EB
:1022A000000A0092C4F30252022A05D059F804CB66
:1022B0000021032A08D009E009F1070121F00702F3
:1022C000F2E802C1914605E01FFA8CFC042A01D114
:1022D0000CF0FF0C4FF00008220728D5702806D01C
:1022E000009B83F0100353EA0A0305D00EE040225E
:1022F0008DF80420012208E05CEA010206D03022B9
:102300008DF804208DF8050002229046009B83F092
:10231000080353EA0A030AD15CEA010201D1620709
:1023200005D530228DF804204FF001087F1E582873
:1023300004D034A003900EA802900DE036A0F9E777
:1023400053466046009AFEF7E3F884460398825CA1
:102350000298401E029002705CEA0100F0D10298DF
:1023600006A9081A00F1200A600702D524F4803477
:1023700000E00127574502DDA7EB0A0000E000203E
:1023800000EB0A01009005984144401A0590E003D3
:1023900006D45B462146179A059800F0B3F9054428
:1023A000002706E001A85A46C05D179990476D1CAA
:1023B0007F1C4745F6DBE0030CD55B462146179AA8
:1023C000059800F09FF9054404E030205A4617991B
:1023D00090476D1C0099481E00900029F5DC08E02C
:1023E000029802995A460078491C02911799904721
:1023F0006D1CBAF10001AAF1010AF1DC65E10000EF
:1024000009280100303132333435363738396162CA
:10241000636465660000000030313233343536378E
:1024200038394142434445460000000000F058F965
:102430000544761C307800287FF4ECAD19B02846AE
:10244000BDE8F08F620700D4062709F1070222F0E9
:10245000070CFCE80223E14603F000485FEA080CA1
:1024600002D00FF2702C0DE05FEA045C02D50FF28F
:10247000682C07E05FEAC47C02D00FF2602C01E018
:10248000AFF2700C4FF0FF3823F00043CDF850C08E
:1024900065280CD006DC452809D046281DD04728E1
:1024A0003DD13DE0662818D067287ED138E0002174
:1024B000112F01DB112000E0781CCDE9000106A9F5
:1024C0000EA8FFF7DDFCDDE90F010E9A0391002154
:1024D000009207F1010A04914DE04FF0004000978F
:1024E000CDE9011006A90EA8FFF7CAFCDDE90F022D
:1024F00003920E9B11990022DDF80CA00093049228
:1025000011B9791C00EB010AB7EB0A0004D4C0F141
:10251000FF3007F1010A0490AAEB0700019044E0A4
:10252000012F00DA01270021112F01DD112000E029
:102530003846CDE9000106A90EA8FFF7A1FCDDE9A8
:102540000F010E9A0391002104910092BA462107CF
:102550000CD40399514500DA8A46BAF1010F05DD22
:10256000009AAAF10101515C302908D0B84202DA80
:1025700010F1040F06DA0121CDE9011015E0AAF1EE
:102580000101E9E7002805DC049901440491AAEB64
:10259000000102E0411C514500DD8A460499401AC1
:1025A000401C01904FF000400290200704D4019895
:1025B000504501DBCDF8048000208DF84F000298D3
:1025C0000DF14F07B0F1004F25D02B200E9002984F
:1025D0004FF0020800280CDA404202902D200E90A5
:1025E00007E00A210298FDF77DFF3031029007F8DD
:1025F000011DB8F10001A8F10108F2DC02980028E1
:10260000EFD1791E0E980870307800F0200040F06D
:10261000450007F8020D12A8C01B00F10708149826
:10262000007800B1012000EB0A01019801EBE07194
:1026300005984144401A401E0590E00306D45B46CD
:102640002146179A059800F05DF805441498007823
:1026500018B15A46179990476D1CE00324D55B4684
:102660002146179A059800F04DF805441CE004989F
:10267000002807DBDDE90301884203DD0098405CA8
:10268000179901E0179930205A469047049805F1B0
:102690000105401C04900198401E019004D12E2099
:1026A0005A46179990476D1CBAF10001AAF1010A28
:1026B000DDDC05E017F8010B5A46179990476D1CB1
:1026C000B8F10001A8F10108F4DC5B462146179A35
:1026D0000598ABE62D0000002B0000002000000054
:1026E0002DE9F041044600251E461746880404D40F
:1026F00005E039462020B0476D1C641EF9D52846F8
:10270000BDE8F0812DE9F041044600251E469046C3
:10271000C80301D5302700E02027880404D505E050
:1027200041463846B0476D1C641EF9D52846BDE8C1
:10273000F081000004460D4604E02A46214602A02E
:10274000FFF77EFBF9E7000057726F6E672070613C
:1027500072616D65746572732076616C75653A207F
:1027600066696C65202573206F6E206C696E65202C
:1027700025640D0A0000000030B59BB005460C46EC
:10278000682101A8FDF761FD05B10CB91BB030BD92
:10279000224611A12846FDF780FD30B901F07EFCEC
:1027A00010A101A8FDF770FD10E022460EA12846F9
:1027B000FDF773FD30B901F061FC0AA101A8FDF736
:1027C00063FD03E00BA101A8FDF75EFD01A800F089
:1027D0000DF900BFDAE70000504F5745525F4F4EEA
:1027E000000000004F4B0000504F5745525F4F46CE
:1027F000460000004572726F722C20556E6B6E6F32
:10280000776E20415420636F6D6D616E640000002F
:1028100008B513A0FFF714FB002205210A2003F0DE
:102820007FF9174908600846006810B94FF0FF307B
:1028300008BD1448006880B9134800231A464FF6B3
:10284000FF71009011A003F0F5FE0E4908600846E4
:10285000006810B94FF0FF30EAE70020E8E7000019
:102860005B41545F434F4D4D414E445D2061745F69
:10287000636F6D6D616E645F696E69740D0A00004F
:102880001C04002020040020152A000841545F4346
:102890004D445F54696D65720000000038B5044610
:1028A0004D48007807287CD2DFE800F00415202B83
:1028B0004D586300412C0DD1142000F003F9012084
:1028C0004649087046480078401C45490870012078
:1028D000414908707DE0542C07D141480078401CE4
:1028E0003F49087002203C49087072E02B2C07D148
:1028F0003B480078401C3A4908700320364908706C
:1029000067E037480078401C354908703D2C0DD1F0
:1029100004203149087032480078401E31498870DF
:102920002F480078C870012008700BE00D2C09D1E9
:102930000620294908702A480078401E29498870D5
:102940000020087045E026480078401C24490870A3
:102950000D2C02D10620204908703AE00D2C07D139
:102960001F480078401C1E49087006201A4908704C
:102970002FE00A2C2BD11A480078401C1849087007
:10298000084600781749487008460078012807D1A2
:102990000846C07812490978081A801E1149087142
:1029A00000E015E000F0C2F800236A460D490E4829
:1029B000006803F072FA002007490870084908709F
:1029C000084800210160017102200449087000E0FC
:1029D00000BF00BF38BD000019040020180400200B
:1029E00029040020240400201C04002010B5044603
:1029F00004B910BD214602A0FFF722FA00BFF8E794
:102A00005B41545F434F4D4D414E445D2025730D56
:102A10000A00000010B50446002C1ED00F480068C4
:102A200084421AD10E48007801280FD100200D49A8
:102A300008700D4908700D480021016001710020E7
:102A400001F064FE0AA0FFF7FBF906E004480078F5
:102A5000032802D113A0FFF7F3F910BD20040020D2
:102A60001804002019040020290400202404002058
:102A70005B41545F434F4D4D414E445D2070617248
:102A800073652074696D656F75742C20556E6B6E5F
:102A90006F776E20415420636F6D6D616E640D0A17
:102AA000000000005B41545F434F4D4D414E445D7B
:102AB00020657865637574652074696D656F7574DC
:102AC0000D0A0000F8B50446254601F0AFF9A8B19B
:102AD000002003462A46092100901348006803F0AD
:102AE000F7FD03F0EFFB06460020034632460721C0
:102AF00000900D48006803F0EBFD14E00020034651
:102B00002A46042100900848006803F0E1FD03F024
:102B1000D3FB0646002003463246022100900248BD
:102B2000006803F0D5FDF8BD2004002008B501F0D1
:102B30007DF948B10020034602460821009007486D
:102B4000006803F0C5FD08E00020034602460321AB
:102B500000900248006803F0BBFD08BD200400207F
:102B600010B54FF44070FEF785FB00F0FFF800F061
:102B7000C5F800F001F810BD10B500F055F800F0F0
:102B800001F810BD08B501214FF49A70FEF7F6FB6D
:102B900003208DF8020004208DF80300C002ADF878
:102BA000000069461C48FDF7B3FF0120ADF80000A6
:102BB00069461A48FDF7ACFF4FF48070ADF800008D
:102BC00069461748FDF7A4FF4FF40040ADF8000038
:102BD00069461348FDF79CFF0820ADF800006946E0
:102BE0001048FDF795FF4FF48040ADF800006946AE
:102BF0000B48FDF78DFF4FF40050ADF8000069461B
:102C00000748FDF785FF8020ADF8000069460448BD
:102C1000FDF77EFF08BD00000010014000080140E4
:102C200000200140001401400021284A9172D17215
:102C30001173002018E06421254A02EB0012118173
:102C40000221234A02EB001211710021204A02EBFB
:102C5000001291721E4A02EB0012D1721C4A02EB62
:102C600000121173411CC8B20A28E4DB642218491F
:102C70000A87052281F83B206422A1F8482005221A
:102C800081F84B206422A1F85820052281F85B20AE
:102C90006422A1F86820052281F86B200D490C4AB6
:102CA00011600D4911610D4911620D4911630D4902
:102CB00011640D4911650D4911660D4911670D49E2
:102CC000C2F880100C49C2F890107047D02700203D
:102CD000302700200D10000875100008A91000080A
:102CE000DD100008F51000080D110008251100087E
:102CF0003D110008551100084110000808B50121D8
:102D00008020FEF73BFB012000F038F8022000F0A5
:102D100035F8032000F032F8042000F02FF80320EB
:102D20008DF8020010208DF80300C001ADF80000FE
:102D300069460D48FDF7ECFE8020ADF800006946BD
:102D40000948FDF7E5FE4FF48070ADF800006946D4
:102D50000548FDF7DDFE4FF40070ADF80000694650
:102D60000148FDF7D5FE08BD001C014010B5FFF776
:102D700007F8FEF76FF8FDF79BFE10BD411EC8B2C5
:102D800020B94FF400610B4A116011E0012803D112
:102D90008021084A11600BE0022803D1C101054AD5
:102DA000116005E0032803D14FF40071014A11605E
:102DB00070470000101C01402DE9F04105460E4609
:102DC00017460024E90E012000FA01F82DBB00BFD0
:102DD0001FE004EB4400134911F82000C0B104EBDC
:102DE000440001EB8000806890B104EB440001EBEB
:102DF0008000406800EA080050B104EB440001EB99
:102E000080003A463146836828469847064602E0E5
:102E1000641C1F2CDDD300BF00E000BF00BFBDE875
:102E2000F08100000087002070B50C4600210022D0
:102E30000722551C0E46491C855509260D46491C7E
:102E40004655431808A52E681E60AE889E80AD7951
:102E50009D71C91D01220D46491C425503260D4690
:102E6000491C465570BD000042542D44656D6F00ED
:102E700008B501210420FEF781FA8020ADF800009A
:102E800010208DF8030001208DF8020069460848E3
:102E9000FDF73EFE002280210548FDF725FFC820F2
:102EA00002F034FC012280210148FDF71DFF08BD1E
:102EB0000008014010B50648007838B9FFF7D8FF80
:102EC00001200349087003A0FEF7BAFF10BD0000FF
:102ED0009C0000205B42545F4452495645525D209D
:102EE00062745F64726976657220696E69740D0A36
:102EF0000000000070B504460025454800880628FB
:102F000007D2434801880088401C414A108041484C
:102F100044544148007830B101280CD0022824D014
:102F2000032871D148E0022C01D0042C02D10120E9
:102F30003949087069E0394800680078022807D1EB
:102F400033480088052803D30220334908700BE07A
:102F5000324800680078042806D12D4800880328EC
:102F600002D302202C4908704FE02D480088401CF5
:102F70002B49088029480068007802280AD1274890
:102F80000068B0F803000988884203DC0320224966
:102F9000087010E021480068007804280AD11F4812
:102FA000006880781E490988884203DC03201A499A
:102FB000087000E029E000BF184800680078022887
:102FC00006D116480068B0F80300401D85B208E03D
:102FD000124800680078042803D1104800688078FF
:102FE000C51C00222946012001F0A0F8062200217C
:102FF000084800F08DFE0020074908700449088049
:103000000749088001E0FFE700BF00BF70BD000076
:10301000A40000209E0000209D000020A8000020A9
:10302000AC00002070B5044600250026211D0120BB
:1030300000F0E2FC051D05B103E06E210BA0FFF7D7
:1030400079FB22462946012001F06EFB0646A64286
:1030500000D103E0712105A0FFF76CFB291F0222BC
:103060000E480068183000F063FC70BD2E2E5C2EF8
:103070002E5C4D6964646C65776172655C626C7529
:10308000655F616E67656C5C6472697665725C62CF
:10309000745F6472697665722E6300008C00002094
:1030A00070B504460D462A462146012001F09FFBDB
:1030B000211F002000F060FD70BD000070B50446C7
:1030C00000250026012C00DA03E0AD2115A0FFF752
:1030D00031FB04EB4400204901EB8000806808B913
:1030E000002070BD02F0B2F904EB44011A4A02EB71
:1030F000810101F10800012100F0E2FB05462E1FCD
:10310000306820F0404040F080403060134830F894
:1031100014200021284600F0FBFD02F0B9F92846F2
:10312000DFE700002E2E5C2E2E5C4D6964646C651A
:10313000776172655C626C75655F616E67656C5C1A
:103140007372635C636F6D6D6F6E5C62745F6D65EF
:103150006D6F72792E6300006C8500206E67000829
:103160002DE9F84304460E46314800904FF0000820
:10317000012C00DA03E0C1212EA0FFF7DBFA04EBFB
:103180004400394951F82000B04207D804EB44000C
:1031900001EB80004068B04200D303E0C22125A0CB
:1031A000FFF7C8FA351F286820F040402844071D63
:1031B00001212868B1EB907F01D100BF03E0C52158
:1031C0001CA0FFF7B7FA04226946384600F0FBFB63
:1031D00000B903E0C62117A0FFF7ACFA286820F079
:1031E0004040286002F032F904EB44011E4A02EB31
:1031F000810101F1080032461C4900F0CDFB8046F8
:10320000B8F1000F0BD104EB4401174A02EB810126
:1032100001F108000222314600F08AFB03E0CE21D2
:1032200004A0FFF787FA02F033F9BDE8F883000045
:10323000CDABCDAB2E2E5C2E2E5C4D6964646C65DF
:10324000776172655C626C75655F616E67656C5C09
:103250007372635C636F6D6D6F6E5C62745F6D65DE
:103260006D6F72792E6300006C850020B138000804
:103270002DE9F04704460D461646244830F8140060
:103280000830B6FBF0F90027B846BA461DB116B1B2
:10329000012C00DA03E098211DA0FFF74BFA02F0A1
:1032A000D5F804EB4400274941F82050A81904EB55
:1032B0004401244A02EB81014860002720E01348C2
:1032C00030F81400083007FB0058104830F814009C
:1032D000C8F800000D4830F81400404400F1040A1A
:1032E0001948CAF8000004EB4401164A02EB8101B8
:1032F00001F10800022208F1040100F019FB7F1C13
:103300004F45DCD302F0C4F8BDE8F0876E670008D3
:103310002E2E5C2E2E5C4D6964646C65776172653F
:103320005C626C75655F616E67656C5C7372635C33
:10333000636F6D6D6F6E5C62745F6D656D6F7279DA
:103340002E6300006C850020CDABCDAB10B5002402
:10335000184800781B2801D1002010BD15480178BD
:103360000078401C134A107001EB4100124901EB38
:103370008004A088A0F6134010B13F2816D108E0C1
:103380000E480068FCF76CFFA0710C480168A16052
:103390000DE001200A490870F0210948401CFFF7A0
:1033A00043FDF121A1710649A16000E000BF00BF0B
:1033B0002046D2E7B8000020D4010020BC01002044
:1033C000A885002010B5044610BD00002DE9FE437D
:1033D00006460F46154698464FF001090024DEB117
:1033E0002C462C48027839462B48FEF729FD2078D8
:1033F000012804D1A72129A0FFF79CF90CE020782F
:10340000022809D13448642322460090D4E90101FE
:1034100000F08CF8BDE8FE8330483844E0B1042861
:103420001BD1062208F107012D4800F0DAFA2C48DA
:10343000401E80792A49491E4979294A521E12792B
:10344000CDE9002102902648401EC3788278417859
:1034500024A0FEF7F5FC01E000E000BF00BFFFF78D
:1034600075FF044654B11C484FF47A73224600900D
:10347000D4E9010100F05AF8814608E0012018491A
:10348000491E0870002211461046FFF795FC484679
:10349000C0E70000B8000020B46700082E2E5C2EA4
:1034A0002E5C4D6964646C65776172655C626C75F5
:1034B000655F616E67656C5C7372635C636F726598
:1034C0005C6761705C62745F6761705F636F6D6D94
:1034D0006F6E2E6300000000CD330008FBEFFFDFAE
:1034E000958500205B42545F4741505F434F4D4DEF
:1034F0004F4E5D204C6F63616C207075626C696328
:103500002061646472203D202532782D2532782D8B
:103510002532782D2532782D2532782D2532780DDB
:103520000A00000001460020704700002DE9FF4717
:1035300090461D460C9E012700249DF8020000F1D4
:103540000409BDF8000040F0005ABDF8001027A0A3
:10355000FEF776FC09F10401002000F04DFA041D8D
:1035600034B92CA0FEF76CFC202004B0BDE8F08735
:1035700001202070BDF80000A4F801009DF80210A1
:10358000E1709DF80200002805DD9DF80220201D55
:10359000019900F026FA002E1AD0504600F0BEFF26
:1035A00040B124A0FEF74CFC211F002000F0E4FAFB
:1035B0002C48DAE7334642462946504600F0C4FF1D
:1035C0000746012F00D103E0292127A0FFF7B2F819
:1035D000E078021D2146002000F08AF8E078011D05
:1035E0002046FFF75DFD3846BFE700005B42545FB1
:1035F0004843495D20636D642073656E642C2063CD
:103600006D645F636F6465203D2030782578200D00
:103610000A0000005B42545F4843495D20636D64CB
:103620002073656E64206661696C2C204F4F4D20BD
:103630000D0A00005B42545F4843495D20636D649E
:103640002073656E64206661696C2C2074696D65F9
:103650007220616C72656164792065786973740D9C
:103660000A000000020000102E2E5C2E2E5C4D6918
:1036700064646C65776172655C626C75655F616ED0
:1036800067656C5C7372635C636F72655C686369C9
:103690005C62745F6863692E630000002DE9F0418D
:1036A0000446012667787507132F11D004DC0E2F0E
:1036B00007D00F2F11D107E03E2F0AD0FF2F0CD1DA
:1036C00008E0A08805430BE0E6783046BDE8F081CD
:1036D00006E005E045F47C4502E045F4803500BF96
:1036E00000BF2146284600F01DFE06463046EDE7A5
:1036F0002DE9F84F82460E4617464FF0000B002585
:10370000A846002400200090BAF1000F09D13078BB
:10371000012801D1814612E0307802280FD181467C
:103720000DE0BAF1010F0AD13078022802D14FF032
:10373000040904E03078042801D14FF00809761C10
:10374000781E87B2B81D1FFA80FB5946002000F092
:1037500053F9044604B103E02B2123A0FEF7EAFF4E
:10376000F5222846691C8DB222545A222846691C2B
:103770008DB222542846691C8DB204F80090284668
:10378000691C8DB227543A0A2846691C8DB222540E
:103790004FF0000808E016F808006055681C85B274
:1037A00008F101001FFA80F8B845F4DB4FF000087B
:1037B00009E014F8081000980844C0B2009008F11D
:1037C00001001FFA80F8ABF101004045F1DC0098E0
:1037D00060555A462146022001F009F82146002092
:1037E00000F0CAF9BDE8F88F2E2E5C2E2E5C4D69D4
:1037F00064646C65776172655C626C75655F616E4F
:1038000067656C5C706C6174666F726D5C62745F2E
:103810006C6F672E6300000010B5002425E00121C5
:1038200015480068183000F04BF8041D2078022875
:103830000BD1B4F80300401D82B221460120FFF7EE
:1038400057FF2046FFF76EFE0BE02078042808D1D2
:10385000A078C21C21460120FFF74AFF2046FFF74F
:103860001DFF211F012000F087F9034800688069CF
:103870000028D4D110BD00008C00002010B54FF4FA
:1038800080520849002000F0D3F94FF480520649D5
:10389000012000F0CDF94FF48C7204490020FFF7AD
:1038A000E7FC10BD3007002030170020180600206C
:1038B00002461068884201D1012070470020FCE7D1
:1038C0002DE9F04105460F462E46346805B103E068
:1038D0001C2109A0FEF72EFF5CB1022F05D101E0EB
:1038E0002646246820680028FAD12068306000202D
:1038F00020602046BDE8F0812E2E5C2E2E5C4D69A6
:1039000064646C65776172655C626C75655F616E3D
:1039100067656C5C7372635C636F6D6D6F6E5C6228
:10392000745F6C696E6B6E6F64652E6300000000DF
:103930002DE9F04105460E4617462C4605B103E039
:103940000E2107A0FEF7F6FE022F04D100E0246846
:1039500020680028FBD1206830602660BDE8F08137
:103960002E2E5C2E2E5C4D6964646C6577617265E9
:103970005C626C75655F616E67656C5C7372635CDD
:10398000636F6D6D6F6E5C62745F6C696E6B6E6F92
:1039900064652E63000000002DE9F04105460F46E6
:1039A00016462C460BE031462046B84710B120465B
:1039B000BDE8F0812468AC4201D10020F8E7002C7A
:1039C000F1D10020F4E770B504460D4616463246A4
:1039D00029462046FCF74BFC08B1012070BD0020B1
:1039E000FCE770B504460D46164632462946204689
:1039F000FCF712FC70BD00002DE9F04106460D46B3
:103A00004FF00008002400272946304600F064F9F2
:103A100068B9304600F06CF8264850F8260030B9F6
:103A2000472125A0FEF786FE0020BDE8F0812D1D70
:103A3000E81C20F0030501F009FD1E4850F826405F
:103A400004B103E050211CA0FEF774FE206820F0B2
:103A50004040401B08280FD3201D4119154840F84D
:103A600026102068401B001F20F04040114951F8EB
:103A7000261008602F4606E000210E4840F8261068
:103A8000206820F0404701F003FD3A1F0021201D6F
:103A900000F03EF927F0404040F080402060211DBA
:103AA0003944081F04221149FFF79BFF04F1040861
:103AB0004046BAE7508500202E2E5C2E2E5C4D69C4
:103AC00064646C65776172655C626C75655F616E7C
:103AD00067656C5C7372635C636F6D6D6F6E5C6267
:103AE000745F6D656D6F72792E6300008800002031
:103AF0002DE9F04104461F4850F82450002601F0FB
:103B0000A5FC00BF2868870FFFB90EB92E4606E056
:103B1000306829680844001D20F040403060154896
:103B2000083050F8240058B1306820F04041114866
:103B3000083050F82400006820F04040814205D948
:103B40000C48083040F8246000E00026286820F087
:103B500040402844051D074850F82400291A05480C
:103B6000103050F824008142CCD301F091FCBDE824
:103B7000F0810000488500202DE9F04105460E4601
:103B800000240027341F206820F04041201D0844F5
:103B9000071F042217493846FFF715FF00B903E055
:103BA0006C2115A0FEF7C6FD01212068B1EB907FC6
:103BB00000D103E06D2110A0FEF7BCFD1B4850F8BA
:103BC0002510103050F825000844216821F04041AC
:103BD0003144884200D303E06E2107A0FEF7AAFD1E
:103BE000206820F0404020602846FFF781FFBDE8B4
:103BF000F0810000880000202E2E5C2E2E5C4D6986
:103C000064646C65776172655C626C75655F616E3A
:103C100067656C5C7372635C636F6D6D6F6E5C6225
:103C2000745F6D656D6F72792E63000048850020AA
:103C300070B504460E4615461748006800B103E00B
:103C4000222116A0FEF776FD05F0030010B9082D1D
:103C500000D303E0232111A0FEF76CFD01F0F6FB79
:103C60001B4840F82450103840F8246050F82410C5
:103C7000083040F8241001F00BFC7119081F0422D1
:103C80001449FFF7AEFE281F20F0404010491039BC
:103C900051F82410086070BD8C0000202E2E5C2E80
:103CA0002E5C4D6964646C65776172655C626C75ED
:103CB000655F616E67656C5C7372635C636F6D6D8D
:103CC0006F6E5C62745F6D656D6F72792E6300005C
:103CD000588500208800002070B504460E46361D29
:103CE00001F0B4FB094850F8240048B1074850F8E7
:103CF0002400006820F04040B04201D9012500E0D6
:103D0000002501F0C5FB284670BD0000508500204D
:103D100070B506460C461546224629463046FCF745
:103D20008DFA70BD10B5042001F0D6FE10BD10B59F
:103D300003220021012001F0F3FE10BD012080F3D9
:103D4000108800BF7047002080F3108800BF7047C4
:103D500010B502F0B1FA10BD10B5044602F09CFA9D
:103D6000012800D110BD204602F037F900BFF9E765
:103D700010B5044602F090FA012800D110BD0023CE
:103D80001A461946204601F0E7FF00BFF6E738B5AE
:103D9000044602F081FA012800D138BD6946204668
:103DA00002F0D1F800BFF8E708B50C48006898B9F0
:103DB0000B4800231A464FF6FF71009009A002F04D
:103DC00039FC064908600846006808B100BF03E0F6
:103DD000222107A0FEF7AEFC08BD000094000020E1
:103DE0006540000842545F54696D65720000000030
:103DF0002E2E5C2E2E5C4D6964646C657761726555
:103E00005C626C75655F616E67656C5C706C61743B
:103E1000666F726D5C72746F735C62745F6F735FF8
:103E20006C617965725F6170692E63000448006897
:103E3000C0F3090109B9002070470120FCE7000028
:103E400004ED00E010B50848006800B103E030213F
:103E500006A0FEF76FFC0448006802F073FC08B18E
:103E6000012010BD0020FCE7940000202E2E5C2EC7
:103E70002E5C4D6964646C65776172655C626C751B
:103E8000655F616E67656C5C706C6174666F726DA6
:103E90005C72746F735C62745F6F735F6C61796581
:103EA000725F6170692E630010B5044604B103E0CF
:103EB0001A2103A0FEF73EFC1048046010BD00006C
:103EC0002E2E5C2E2E5C4D6964646C657761726584
:103ED0005C626C75655F616E67656C5C706C61746B
:103EE000666F726D5C72746F735C62745F6F735F28
:103EF0006C617965725F6170692E630098000020C3
:103F0000F8B5044625461748006800B103E03B2198
:103F100015A0FEF70FFCFFF795FF08B100F042F87F
:103F2000002003462A46042100900E48006802F053
:103F3000CFFB00B103E03F210BA0FEF7FBFB02F03B
:103F4000BBF9064600200346324602210090054890
:103F5000006802F0BDFB00B103E0402102A0FEF7C3
:103F6000E9FBF8BD940000202E2E5C2E2E5C4D69DE
:103F700064646C65776172655C626C75655F616EC7
:103F800067656C5C706C6174666F726D5C72746F87
:103F9000735C62745F6F735F6C617965725F61708F
:103FA000692E630008B50948006800B103E04521A7
:103FB00007A0FEF7BFFB0020034602460321009046
:103FC0000248006802F084FB08BD00009400002055
:103FD0002E2E5C2E2E5C4D6964646C657761726573
:103FE0005C626C75655F616E67656C5C706C61745A
:103FF000666F726D5C72746F735C62745F6F735F17
:104000006C617965725F6170692E630010B504465A
:1040100002F042F9012800D110BD4FF0FF312046D7
:1040200002F03CF800BFF7E770B505460C4602F019
:1040300033F9012800D170BD0023224619462846D5
:1040400001F0A1FD00BFF6E738B5044602F024F9FF
:10405000012800D138BD6A460021204601F0DAFF70
:1040600000BFF7E710B504460348006810B10248E6
:104070000068804710BD00009800002010B50020A7
:104080000449087000231A4603491846FFF79AF9B5
:10409000012010BDB8000020FF00002810B5142238
:1040A00000210648FFF734FE02200449087000236F
:1040B0001A4603491846FFF789F910BD9485002078
:1040C000FF0000281CB50024002000900190FFF79D
:1040D00035FE144804680822011D6846FFF781FC7C
:1040E000002010490860082200210E48001DFFF73B
:1040F0000FFEFFF728FE0C480068FFF787FF04F06B
:10410000010008B100F036F904F0020028B1BDF852
:104110000200FEF787FFFFF77FFB03480068FFF709
:104120001BFE1CBD78850020B000002070B5044641
:104130000D461646042C00D203E048210BA0FEF7E2
:10414000F9FAFFF7FBFD164800680121A14008437A
:1041500013490860081D20F81450083040F8246006
:10416000FFF7F1FD00F066F870BD00002E2E5C2E0A
:104170002E5C4D6964646C65776172655C626C7518
:10418000655F616E67656C5C706C6174666F726DA3
:104190005C62745F706C6174666F726D2E63000098
:1041A0007885002010B5FEF785FEFFF7FDFD11486C
:1041B000FFF77AFE1048006858B9FFF7B3FD0E49C3
:1041C00008600846006800B103E05D210BA0FEF71F
:1041D000B1FA1748006858B9FFF7A9FD14490860FB
:1041E0000846006800B103E0612104A0FEF7A2FACE
:1041F00010BD000021460008B00000202E2E5C2ECD
:104200002E5C4D6964646C65776172655C626C7587
:10421000655F616E67656C5C706C6174666F726D12
:104220005C62745F706C6174666F726D2E63000007
:10423000B400002010B50A48006800B103E0222154
:1042400008A0FEF777FAFFF7F1FD20B104480068F7
:10425000FFF79DFD03E002480068FFF789FD10BDF0
:10426000B40000202E2E5C2E2E5C4D6964646C65BB
:10427000776172655C626C75655F616E67656C5CC9
:10428000706C6174666F726D5C62745F706C617487
:10429000666F726D2E63000010B5FFF7C7FD20B189
:1042A00005480068FFF7D0FE05E04FF0FF310248F7
:1042B0000068FFF7B9FE10BDB4000020F1B500267C
:1042C000002700256A4614491448FFF765FB044699
:1042D0000CB91348F8BD01212046FFF7F1FA064654
:1042E0000E48844211D100F097F90C48006860B183
:1042F00000F026F9074609480068C068C51B002D74
:1043000000DA0025284600F081F931460020FEF74A
:1043100027FF0120DEE70000B544000890000020E0
:1043200001000010F0B585B004460D4601271421A8
:104330006846FBF78AFF0026204600F0EFF80646A5
:1043400016B90B4805B0F0BD142231466846FFF798
:1043500048FB2046FFF7B2FF049838B12B462146B0
:104360000020DDF810C0029AE04707463846E9E72A
:10437000010000102DE9F04186B0002500F0E0F8C2
:104380000646002700200590002414216846FBF70C
:104390005CFF254C11E0256875B1E868B0420BD888
:1043A00001212046FFF78CFA80460222414605A8EB
:1043B000FFF7BEFA1C4C00E02468002CEBD10598F6
:1043C00010B906B0BDE8F08116E0059D142229461B
:1043D0006846FFF706FB049830B100230120DDF8A2
:1043E00010C0DDE90112E047012105A8FFF768FAD6
:1043F00029460020FEF7B4FE05980028E5D10A48BA
:10440000006870B100F008F900F09AF80646064816
:104410000068C068871B002F00DA0027384600F0CC
:10442000F5F800BFCDE70000900000202DE9F0472F
:1044300004460D4600260027B046B1460CB105B132
:1044400003E027210EA0FEF775F92E46276817B95D
:104450000120BDE8F087F8683168A0EB0108F86832
:104460003168401A7168A0EB0109B8F1000F04DD52
:10447000B9F1000F01DD0120EBE70020E9E70000C2
:104480002E2E5C2E2E5C4D6964646C6577617265BE
:104490005C626C75655F616E67656C5C7372635CB2
:1044A000636F6D6D6F6E5C62745F74696D65722EA3
:1044B000630000002DE9F04104460D460026002768
:1044C0000CB105B103E0172107A0FEF733F9266808
:1044D00016B90120BDE8F0812F687068B84201D19B
:1044E0000120F7E70020F5E72E2E5C2E2E5C4D69AB
:1044F00064646C65776172655C626C75655F616E42
:1045000067656C5C7372635C636F6D6D6F6E5C622C
:10451000745F74696D65722E6300000031B500240C
:104520006A4605490548FFF737FA04460CB120688A
:1045300038BD0020FCE70000B544000890000020D2
:1045400010B5FFF705FC10BD2DE9FC4707460D46E9
:10455000904699460024002000900190002605B165
:1045600003E039211AA0FEF7E5F83846FFF7D6FF39
:1045700010B10220BDE8FC870020FEF79FFD044635
:104580000CB92020F6E7FFF7E3FB00900195676088
:10459000C4F80880C4F81090DDE900010844E06028
:1045A0006A4618491848FFF7F7F9064676B101221E
:1045B00021463046FFF7BCF91348864204D100F08B
:1045C0002BF8284600F022F80120D3E70220D1E79B
:1045D0002E2E5C2E2E5C4D6964646C65776172656D
:1045E0005C626C75655F616E67656C5C7372635C61
:1045F000636F6D6D6F6E5C62745F74696D65722E52
:10460000630000002D4400089000002010B504460F
:104610002046FFF775FC10BD10B5FFF7C3FC10BDB9
:1046200010B5002211461046FFF780FD10BD70B591
:104630000546002400262C680EE0E06810B1E06812
:1046400000F074F9A06810B1A06800F06FF9A669D5
:10465000204600F06BF93446002CEED10020286093
:1046600070BD70B5044600250026A56807E02E69D8
:10467000284600F010F8284600F058F93546002D7D
:10468000F5D1206810B1206800F050F900202060BA
:10469000A060E06170BD10B50446206810B12068CC
:1046A00000F044F90020206010BD70B504460025DC
:1046B0000026A56807E02E6A2846FFF7D2FF2846A5
:1046C00000F034F93546002DF5D10020A0602060BF
:1046D000606070BD70B504460D4600206063A06345
:1046E000E06320646064A064E0642065606500218C
:1046F000A165E165286810B12846FFF798FF002002
:104700000149086070BD0000EC03002000B50346BD
:104710001846FCF7B1F9024602B900BD0020D0826C
:104720001083508300BFF8E72DE9F04782468846A2
:1047300016465046FCF7A0F9044614B90020BDE81F
:10474000F087678B0FB90020F9E7B74225DA208B95
:10475000E18A884214DDE089218B401A85B2781BFA
:104760001FFA80F9228BA06881182A464046FBF781
:1047700053FD08EB05004A46A168FBF74DFD06E036
:10478000228BA06881183A464046FBF745FDE08A37
:104790002083002060833846D1E7208BE18A88425D
:1047A00016DDE089218B401A85B2701B1FFA80F953
:1047B000228BA06881182A464046FBF72DFD08EBA6
:1047C00005004A46A168FBF727FDA4F8189009E008
:1047D000228BA068811832464046FBF71DFD208BD6
:1047E00030442083608B801B60833046A7E72DE92F
:1047F000F04105460E4617462846FCF73DF90446AB
:104800000CB9BDE8F081E06908B1E06980473A463B
:1048100031462046FDF787FA00BFF2E713B504469C
:10482000012201A92046FFF7E2FF1CBD2DE9F04758
:1048300005460E4617469846DDF82090302000F0D9
:10484000D9F8044604B32846FBF70AFD00F1010A33
:10485000504600F0CFF82060206888B129462068D3
:10486000FBF712FD01206060E6602761C4F8148048
:10487000C4F818900020A06020626062E06103E04C
:10488000204600F053F800242046BDE8F0870000E1
:1048900010B50024FCF7A4F820B10EA0FDF7D0FA63
:1048A000012010BD1648006858B90022114615A015
:1048B000FCF704F8124908600846006808B90120AE
:1048C000EFE70220FCF740F82046FCF7CFF8002085
:1048D000E7E700000A496E697469616C697A61747E
:1048E000696F6E206F662054657374205265676926
:1048F00073747279206661696C65642E0D0A00001C
:104900001404002073756974655F666F725F746567
:104910007374000000BF704770B504460D46E1B2E5
:104920000020FFF77BFF204670BD000010B5002877
:1049300021D0114B0022001F196803E0814203D8E7
:104940000A4649680029F9D152B11368841A9C4279
:1049500004D1006818441060104602E0506000E086
:10496000186039B102680B1A934203D10B681A44DC
:1049700002604968416010BD1006002001462C22EB
:10498000002902DA064800687047914203DD0448B6
:1049900050F82200F8E7024850F82100F4E7000040
:1049A000240300200022826800230B6203685B1C42
:1049B00003601AB9816000234B6207E001E0126ACC
:1049C00000BF136A002BFAD111624A6270470120BE
:1049D00080F3108800BFFEF7C3F8FEF74FFFFDF726
:1049E00017FFFFF755FFFBF733FF00F0A9FF00BFEC
:1049F000FEE70000F0B50B30154D20F00701002454
:104A0000144A0FE003688B420BD38B4205D95E1A20
:104A100043184768C3E9006700E04368136002C0B9
:104A200004E0021D10680028ECD12046002802D1C5
:104A3000286808B10020F0BD064A07481060074A00
:104A4000121A22F00702C0E9002401202860D7E7EB
:104A500014060020100600207C880020789000209A
:104A600010B504460E48006844600E480068844251
:104A700007D20B480168091D0B48006800F0C0FC14
:104A80000CE007480168091D0848006800F0B8FC00
:104A900007480068844201D20548046010BD000048
:104AA0001C000020300000202400002020000020F6
:104AB0004C0000202DE9F04106460F461FB9B0001A
:104AC00000F0B4FB00E03846054655B1542000F034
:104AD000ADFB04460CB1256304E0284600F0EEFC73
:104AE00000E000242046BDE8F081000010B500F091
:104AF000ADFC10480068C8B90F4800F071FC0F48C1
:104B000000F06EFC0C480E4908600C480D49086026
:104B100000220C210A2001F003F80649086008462B
:104B2000006818B9FBF752FB00BFFEE700F0B0FCCD
:104B300010BD00005C000020204100203441002016
:104B4000540000205800002070B523E000F02CFF36
:104B50001348006808B9012000E00020054601F074
:104B6000F5FCBDB900F072FC0D48C068C468201D9A
:104B700000F01AFC0B480068401E0A4908600A4809
:104B80000068401E0849086000F082FC204600F0E2
:104B900062F800BF044800680028D7D170BD00004B
:104BA000F84000202C0000202800002070B50446AA
:104BB0000D46206C70B1216CE0680844E0606168CB
:104BC000E068884201D32068E0602846226CE168F2
:104BD000FBF722FB70BD2DE9F04104460E46154659
:104BE0000027206C40B9206878BB606801F012FC97
:104BF00007460020606028E07DB93146226CA0683D
:104C0000FBF70AFB216CA0680844A060D4E90110FE
:104C100088421AD32068A06017E03146226CE06811
:104C2000FBF7FAFA216CE068401AE0602168E0685E
:104C3000884203D2216C6068401AE060022D04D1E2
:104C4000A06B10B1A06B401EA063A06B401CA063C2
:104C50003846BDE8F08110B50446206B00F02EFC0C
:104C6000204600F02BFC10BD0146084A126812686D
:104C70000AB9012200E000220A600A6822B9034A48
:104C80001268D268106800E00020704754000020CD
:104C900030B54FF48843174800F007042CB1C01D0D
:104CA00020F00700134C041B1B1B0246124C226011
:104CB0000024114D6C60D018083820F007000F4C0C
:104CC000206000240D4D2D686C600C4D2D682C600B
:104CD0001146441A4C60094C24680C60084D4C681D
:104CE0002C60084D4C682C604FF00044064D2C6041
:104CF00030BD0000484100207000002078000020F6
:104D0000800000207C0000208400002000BFFFF70E
:104D10001BFF034800680128F9D900F043FCF6E7BF
:104D2000584000202DE9F04704460F4615469946A5
:104D3000DDF82080002607E0B95D04F134008155DC
:104D4000B85D00B902E0761C102EF5D300BF00213B
:104D500043200155052D00D30425E562656400203C
:104D6000A064201D00F049FB04F1180000F045FB91
:104D70002461C5F10500A06164620020E06484F84C
:104D80005000BDE8F087000010B5002407E004EBF8
:104D900084010F4A02EB810000F022FB641C052C09
:104DA000F5D30C4800F01CFB0B4800F019FB0B4836
:104DB00000F016FB0A4800F013FB0A4800F010FB55
:104DC00004480949086004480849086010BD00000B
:104DD00058400020BC400020D0400020E44000208B
:104DE000F84000200C41002020000020240000207A
:104DF00010B50146164800E0006803688B42FBD3FB
:104E00000246436813448B4204D143684C682344F0
:104E1000436001460A464B6813440468A34211D11B
:104E20000C4C03682468A34208D04B68046864688B
:104E300023444B6003681B680B6005E0054B1B684F
:104E40000B6001E003680B60884200D0016010BD78
:104E500070000020780000202DE9F04104460D4646
:104E600016461F464FF0000865602461B5420CD815
:104E7000F01BA169884202D34FF0010811E0211D07
:104E80000948006800F0BCFA0BE0BE4204D2BD4203
:104E900002D34FF0010804E0211D0448006800F02F
:104EA000AFFA4046BDE8F0815800002054000020D1
:104EB00070B5054600F0CAFAA86B08B9012400E0F5
:104EC000002400F0E5FA204670BD70B5054600F0FC
:104ED000BDFAA86BE96B884201D1012400E00024EF
:104EE00000F0D6FA204670BDF8B505460F461348C7
:104EF0000068C068C468201D00F056FAE069012807
:104F000017D1A06941192B463A462046FFF7A4FF66
:104F100001280ED1002003462A4601460090204673
:104F200001F0D6FB06461EB9FBF750F900BFFEE7BD
:104F300000BF2046616A8847F8BD00005400002089
:104F400070B586B05DE0039800285ADB059C606967
:104F500008B9012000E0002010B9201D00F024FA5B
:104F600002A800F0A7F8054603980A2847D2DFE810
:104F700000F00905072B2D4206082C2E00BF00BFAC
:104F800000BF00BF0498A269811803462A46204644
:104F9000FFF762FF012816D12046616A8847E06961
:104FA000012810D1002000900498A1694218002324
:104FB0001946204601F08CFB06461EB9FBF706F9A0
:104FC00000BFFEE700BF1BE000BF19E000BF049870
:104FD000A061A06908B1012000E0002018B9FBF72A
:104FE000F5F800BFFEE7A06941192B462A46204686
:104FF000FFF732FF04E0204600F060FA00E000BF57
:1050000000BF00231A4603A90348006800F0BBFD57
:10501000002898D106B070BD5C000020F8B50546A8
:105020000C4600F0C1FC684600F044F806460098C3
:10503000F0B944B9B54206D801F088FA314628469D
:10504000FFF752FF16E03CB10B480068006808B952
:10505000012000E000200446A91B22460748006802
:1050600000F0ACFA01F072FA20B900F09BFA01E00E
:1050700001F06CFAF8BD0000580000205C00002030
:105080000A490968096809B9012100E0002121B134
:105090004FF0FF31064A116006E004490968C9680B
:1050A000C868034A41681160704700002000002072
:1050B0004C00002070B5044601F0FEF80546074894
:1050C0000068854204D200F00BF80120206001E066
:1050D0000020206001480560284670BD6000002067
:1050E0002DE9F8432BE020480068C06805681E4899
:1050F0000068C068C468201D00F056F92046616A47
:105100008847E06901281AD1A0694619AE4207D93B
:1051100066602461211D1448006800F071F90EE0FA
:10512000002003462A4601460090204601F0D0FAAE
:1051300007461FB9FBF74AF800BFFEE700BF0A4861
:105140000068006808B9012000E000200028CAD0EB
:105150000548D0F800800548006803490860034806
:10516000C0F80080BDE8F8835400002058000020FB
:1051700007480068401C08B9012000E0002018B969
:10518000FBF724F800BFFEE7FBF720F800BFFEE7BF
:105190006400002008B500BF6846FFF765FD0446BF
:1051A00020460099FFF73AFFFFF7CAFEF4E710B573
:1051B000044600F04BF911E0606A08B9012000E0F4
:1051C000002038B904F1240001F07AF918B100F098
:1051D000D5FA00E005E0A06C401EA064A06C002899
:1051E000EADC00BF4FF0FF30A06400F051F900F09E
:1051F0002DF911E0206908B9012000E0002050B924
:1052000004F1100001F05CF908B100F0B7FA606C2D
:10521000401E606400E002E0606C0028EADC00BF31
:105220004FF0FF30606400F033F910BD2DE9F0411C
:1052300004464FF0000800F0B7FB3C48006808B98E
:10524000FFF726FD3A480068204000285DD19CB158
:10525000083404F0070078B104F00700C0F108003A
:10526000044404F0070008B9012000E0002018B948
:10527000FAF7ACFF00BFFEE7002C46D02D480068CF
:10528000844242D82C4E3046056801E02E462D68F7
:105290006868A04202D228680028F7D12348006835
:1052A000854232D0306800F10808286830606868AC
:1052B000001B102812D92F1907F0070008B9012088
:1052C00000E0002018B9FAF781FF00BFFEE7686828
:1052D000001B78606C603846FFF78AFD15496868E6
:1052E0000968081A134908600846006813490968E4
:1052F000884203D20F480068104908600C4968686A
:105300000968084368600020286001F01FF908F070
:10531000070008B9012000E0002018B9FAF756FF8D
:1053200000BFFEE74046BDE8F081000078000020A5
:10533000840000207C0000207000002080000020FD
:105340000648006830B10549096801F14800896CD8
:10535000491C016001480068704700001C000020E3
:10536000001F4FF080730360001F0160001F034B9C
:105370000360143802602038704700007151000843
:1053800070B505460E460024AC6809E0206830B1CF
:1053900030462168FBF7F4FA08B9012070BD246A91
:1053A000002CF3D10020F9E701460A69D1E9013068
:1053B0009860D1E9010358605068884201D188683B
:1053C0005060002008611068401E1060106870472F
:1053D000FEF7E8FE03E0FEF75FFFFEF773FEFAE775
:1053E00000F1080141604FF0FF31816000F10801D8
:1053F000C1600161002101607047002101617047B7
:1054000010B502460B685C1C0CB9106907E002F18C
:10541000080000E04068446824689C42FAD9446867
:105420004C604C68A160886041600A611468641C2B
:10543000146010BD42684A6093688B60936859603D
:105440009160086103685B1C0360704710B5FAF750
:10545000BDFE0D480068401C0B490860BFF34F8F2C
:10546000BFF36F8F0846006801280BD1074800681A
:10547000C0B208B9012000E0002018B9FAF7A6FE72
:1054800000BFFEE710BD00006400002004ED00E056
:1054900010B50948006818B9FAF798FE00BFFEE792
:1054A00005480068401E044908600846006810B9B5
:1054B0000020FAF792FE10BD6400002070B5064689
:1054C0003546002E31D0083D2C46184960680968E1
:1054D000084008B1012000E0002018B9FAF776FE74
:1054E00000BFFEE7206808B9012000E0002018B9DD
:1054F000FAF76CFE00BFFEE70C49606809680840D7
:1055000098B1206888B90949606809688843606073
:1055100000F04AFA064960680968084404490860CE
:105520002046FFF765FC01F011F870BD84000020F3
:105530007C00002003484FF0E0214861072008610B
:10554000704700003F19010070B5FAF749FE0546A3
:10555000102D0FD305F1E02090F8F0430E480078AD
:10556000844201DB012000E0002018B9FAF72EFE8A
:1055700000BFFEE70948006800F4E06008490968D8
:10558000884201D8012000E0002018B9FAF71EFE79
:1055900000BFFEE770BD0000680000200CED00E0D9
:1055A0006C0000204FF0805003490860BFF34F8F1C
:1055B000BFF36F8F7047000004ED00E02DE9F0416C
:1055C00005460E4617462C46FFF740FF606C401C10
:1055D00008B900206064A06C401C08B90020A064D9
:1055E000FFF756FFA06B28B93A46314604F1240074
:1055F00000F002F92046FFF7DAFDBDE8F081000077
:105600001CB500200090019000240025002657E0E2
:1056100000235A1E69462B48006800F0B4FA01289E
:1056200047D10320284908709DF80100FFF7FEFDCF
:10563000044604B103E09A2124A0FDF77BF89DF80D
:10564000012021460020FFF76FF8C6B29DF8010047
:10565000B04200D103E09C211CA0FDF76BF821466D
:1056600025A0FCF7EDFB002520E09DF8022005EBCE
:105670004500254B03EBC0012046FAF70EFE98B912
:1056800005EB4500204901EBC000406958B19DF889
:1056900004109DF80330181905EB45031A4F07EB6A
:1056A000C3035A69904703E0681CC5B2142DDCDBC4
:1056B00000BF14B12046FFF701FF002000900190C9
:1056C000A6E700001C040020180400202E2E5C2EEB
:1056D0002E5C4D6964646C65776172655C61745FB2
:1056E000636F6D6D616E645C61745F636F6D6D613E
:1056F0006E642E63000000005B41545F434F4D4DCC
:10570000414E445D202573002C04002070B50446F2
:10571000002634B31548006808B9012000E00020D5
:1057200018B9FAF753FD00BFFEE700F03DF9104845
:10573000006805190F480068001DFFF735FE50B9D5
:105740000C48006890F82C10012088400A4909682C
:105750008143094801602846FFF782F900F0F6FE10
:1057600006460EB9FFF71EFF70BD00005000002076
:10577000300000201C0000203400002001200149DE
:10578000086070474000002070B505460C461DB902
:10579000FAF71CFD00BFFEE71348016818312846E0
:1057A000FFF72EFE10480068001DFFF7FDFD50B901
:1057B0000D48006890F82C10012088400B490968BA
:1057C00081430A480160601C30B907480168091D1F
:1057D0000748FFF72FFE05E0064800680619304627
:1057E000FFF73EF970BD00001C00002034000020CF
:1057F0000C410020300000202DE9F04104460D4608
:1058000016461CB9FAF7E2FC00BFFEE71348016830
:1058100018312046FFF70EFE10480068001DFFF704
:10582000C3FD50B90D48006890F82C100120884045
:105830000B49096881430A480160012E06D10748D7
:105840000168091D0748FFF7F5FD05E006480068F7
:1058500047193846FFF704F9BDE8F0811C00002025
:10586000340000200C4100203000002070B50546B7
:105870002C46002D4BD02649E06A0968C96A884247
:1058800045D2A06900F0004028B921480068C06AEC
:10589000C0F10500A061E16A01EB81011D4A02EB44
:1058A00081016069884201D1012000E0002050B3ED
:1058B000201DFFF779FD78B9E06A00EB80001549FB
:1058C00051F8200040B994F82C100120884012496A
:1058D00009688143104801600D480068C06AE062B1
:1058E00094F82C10012088400B49096808430A49A4
:1058F0000860E16A01EB8101064A02EB8100211D8B
:10590000FFF798FD03E002480068C06AE06270BDDE
:105910001C000020584000203400002010B5044630
:105920001CB9FAF753FC00BFFEE70348006820608B
:1059300002480068606010BD440000203000002074
:105940001FB500200090019002900346802210A114
:105950000390114800F000FC0446012C02D100F035
:1059600091FE0446012C0DD1FAF730FCA01E0B4924
:10597000086001200A49086000200A49086000F018
:105980005BF804E01CB9FAF721FC00BFFEE71FBD7D
:1059900049444C45000000000D4D00084C0000201B
:1059A000380000203000002002480068401C0149F7
:1059B000086070475000002010B51A48006818B100
:1059C0000120194908602BE000201749086017489A
:1059D0000068B0FA80F0C0F11F0404EB84001449A1
:1059E00051F8200008B1012000E0002018B9FAF7B2
:1059F000EDFB00BFFEE704EB84010D4A02EB8100E2
:105A000041684968416000F1080142688A4202D158
:105A10004168496841604168C968064A116000BF31
:105A200010BD000050000020400000203400002085
:105A3000584000201C0000201CB52248014609786F
:105A40000191FF21024611700146097800919DF8ED
:105A5000001001F010011C4A117007211B4A11604F
:105A600009E01A490968491E184A11609DF800109A
:105A70004906090E00919DF8001001F0800180296F
:105A8000EFD0124909680902104A116011460988CD
:105A900001F4E06111600B4A019911700C48006833
:105AA00040F470000A4908600846006840F0704001
:105AB0000860FFF73FFD002006490860FAF754FB35
:105AC00000201CBD00E400E0680000206C00002005
:105AD00020ED00E06400002070B505464C20FFF783
